{
  "contracts/DeadlineUtils.sol": {
    "DeadlineUtils": {
      "abi": [
        {
          "inputs": [],
          "name": "DateIsInThePast",
          "type": "error"
        },
        {
          "inputs": [],
          "name": "WorkerDeadlineMustBeAfterCreationDate",
          "type": "error"
        },
        {
          "inputs": [
            {
              "internalType": "uint256",
              "name": "nowAsUnixSeconds",
              "type": "uint256"
            },
            {
              "internalType": "uint256",
              "name": "dateAsUnixSeconds",
              "type": "uint256"
            }
          ],
          "name": "getDaysBeforeDate",
          "outputs": [
            {
              "internalType": "uint128",
              "name": "",
              "type": "uint128"
            }
          ],
          "stateMutability": "pure",
          "type": "function"
        },
        {
          "inputs": [
            {
              "internalType": "uint256",
              "name": "bountyCreationDate",
              "type": "uint256"
            },
            {
              "internalType": "uint256",
              "name": "nowAsUnixSeconds",
              "type": "uint256"
            },
            {
              "internalType": "uint256",
              "name": "workerDeadline",
              "type": "uint256"
            },
            {
              "internalType": "uint256",
              "name": "investmentOpportunityPercentage",
              "type": "uint256"
            }
          ],
          "name": "getDaysBeforeInvestmentOpportunityDeadline",
          "outputs": [
            {
              "internalType": "uint128",
              "name": "",
              "type": "uint128"
            }
          ],
          "stateMutability": "pure",
          "type": "function"
        },
        {
          "inputs": [
            {
              "internalType": "uint256",
              "name": "bountyCreationDate",
              "type": "uint256"
            },
            {
              "internalType": "uint256",
              "name": "workerDeadline",
              "type": "uint256"
            },
            {
              "internalType": "uint256",
              "name": "investmentOpportunityPercentage",
              "type": "uint256"
            }
          ],
          "name": "getInvestmentOpportunityDeadline",
          "outputs": [
            {
              "internalType": "uint256",
              "name": "",
              "type": "uint256"
            }
          ],
          "stateMutability": "pure",
          "type": "function"
        },
        {
          "inputs": [
            {
              "internalType": "uint256",
              "name": "workerDeadline",
              "type": "uint256"
            }
          ],
          "name": "isWorkerDeadlineExpired",
          "outputs": [
            {
              "internalType": "bool",
              "name": "",
              "type": "bool"
            }
          ],
          "stateMutability": "view",
          "type": "function"
        },
        {
          "inputs": [
            {
              "internalType": "uint256",
              "name": "bountyCreationDate",
              "type": "uint256"
            },
            {
              "internalType": "uint256",
              "name": "workerDeadline",
              "type": "uint256"
            }
          ],
          "name": "revertIfWorkerDeadlineIsInvalid",
          "outputs": [],
          "stateMutability": "pure",
          "type": "function"
        }
      ],
      "evm": {
        "bytecode": {
          "linkReferences": {
            "contracts/MathUtils.sol": {
              "MathUtils": [
                {
                  "length": 20,
                  "start": 592
                }
              ]
            }
          },
          "object": "610688610053600b82828239805160001a607314610046577f4e487b7100000000000000000000000000000000000000000000000000000000600052600060045260246000fd5b30600052607381538281f3fe73000000000000000000000000000000000000000030146080604052600436106100615760003560e01c806338d8babe146100665780636d13eebf14610096578063c4a9ddad146100b2578063dc00ece1146100e2578063dd50d07f14610112575b600080fd5b610080600480360381019061007b919061035b565b610142565b60405161008d9190610491565b60405180910390f35b6100b060048036038101906100ab919061035b565b6101a0565b005b6100cc60048036038101906100c79190610397565b6101dd565b6040516100d991906104ac565b60405180910390f35b6100fc60048036038101906100f791906103e6565b6102ae565b6040516101099190610491565b60405180910390f35b61012c60048036038101906101279190610309565b6102d3565b6040516101399190610476565b60405180910390f35b60008282101561017e576040517f08197feb00000000000000000000000000000000000000000000000000000000815260040160405180910390fd5b62015180838361018e9190610577565b6101989190610546565b905092915050565b8181116101d9576040517f69e90e0000000000000000000000000000000000000000000000000000000000815260040160405180910390fd5b5050565b60006101e984846101a0565b600084846101f79190610577565b9050600073__$5dc460cc747dc4210092f6da12cdb25a64$__632133e3b983866040518363ffffffff1660e01b81526004016102349291906104c7565b60206040518083038186803b15801561024c57600080fd5b505af4158015610260573d6000803e3d6000fd5b505050506040513d601f19601f820116820180604052508101906102849190610332565b90506000818361029491906104f0565b905080876102a291906104f0565b93505050509392505050565b6000806102bc8685856101dd565b90506102c88582610142565b915050949350505050565b60004282109050919050565b6000813590506102ee8161063b565b92915050565b6000815190506103038161063b565b92915050565b60006020828403121561031b57600080fd5b6000610329848285016102df565b91505092915050565b60006020828403121561034457600080fd5b6000610352848285016102f4565b91505092915050565b6000806040838503121561036e57600080fd5b600061037c858286016102df565b925050602061038d858286016102df565b9150509250929050565b6000806000606084860312156103ac57600080fd5b60006103ba868287016102df565b93505060206103cb868287016102df565b92505060406103dc868287016102df565b9150509250925092565b600080600080608085870312156103fc57600080fd5b600061040a878288016102df565b945050602061041b878288016102df565b935050604061042c878288016102df565b925050606061043d878288016102df565b91505092959194509250565b610452816105ab565b82525050565b610461816105b7565b82525050565b610470816105d3565b82525050565b600060208201905061048b6000830184610449565b92915050565b60006020820190506104a66000830184610458565b92915050565b60006020820190506104c16000830184610467565b92915050565b60006040820190506104dc6000830185610467565b6104e96020830184610467565b9392505050565b60006104fb826105d3565b9150610506836105d3565b9250827fffffffffffffffffffffffffffffffffffffffffffffffffffffffffffffffff0382111561053b5761053a6105dd565b5b828201905092915050565b6000610551826105d3565b915061055c836105d3565b92508261056c5761056b61060c565b5b828204905092915050565b6000610582826105d3565b915061058d836105d3565b9250828210156105a05761059f6105dd565b5b828203905092915050565b60008115159050919050565b60006fffffffffffffffffffffffffffffffff82169050919050565b6000819050919050565b7f4e487b7100000000000000000000000000000000000000000000000000000000600052601160045260246000fd5b7f4e487b7100000000000000000000000000000000000000000000000000000000600052601260045260246000fd5b610644816105d3565b811461064f57600080fd5b5056fea26469706673582212201be7d6ec37a4cfe4bc59bced88125eef507e9015aeacb2b969ed70525c6c5e2e64736f6c63430008040033",
          "opcodes": "PUSH2 0x688 PUSH2 0x53 PUSH1 0xB DUP3 DUP3 DUP3 CODECOPY DUP1 MLOAD PUSH1 0x0 BYTE PUSH1 0x73 EQ PUSH2 0x46 JUMPI PUSH32 0x4E487B7100000000000000000000000000000000000000000000000000000000 PUSH1 0x0 MSTORE PUSH1 0x0 PUSH1 0x4 MSTORE PUSH1 0x24 PUSH1 0x0 REVERT JUMPDEST ADDRESS PUSH1 0x0 MSTORE PUSH1 0x73 DUP2 MSTORE8 DUP3 DUP2 RETURN INVALID PUSH20 0x0 ADDRESS EQ PUSH1 0x80 PUSH1 0x40 MSTORE PUSH1 0x4 CALLDATASIZE LT PUSH2 0x61 JUMPI PUSH1 0x0 CALLDATALOAD PUSH1 0xE0 SHR DUP1 PUSH4 0x38D8BABE EQ PUSH2 0x66 JUMPI DUP1 PUSH4 0x6D13EEBF EQ PUSH2 0x96 JUMPI DUP1 PUSH4 0xC4A9DDAD EQ PUSH2 0xB2 JUMPI DUP1 PUSH4 0xDC00ECE1 EQ PUSH2 0xE2 JUMPI DUP1 PUSH4 0xDD50D07F EQ PUSH2 0x112 JUMPI JUMPDEST PUSH1 0x0 DUP1 REVERT JUMPDEST PUSH2 0x80 PUSH1 0x4 DUP1 CALLDATASIZE SUB DUP2 ADD SWAP1 PUSH2 0x7B SWAP2 SWAP1 PUSH2 0x35B JUMP JUMPDEST PUSH2 0x142 JUMP JUMPDEST PUSH1 0x40 MLOAD PUSH2 0x8D SWAP2 SWAP1 PUSH2 0x491 JUMP JUMPDEST PUSH1 0x40 MLOAD DUP1 SWAP2 SUB SWAP1 RETURN JUMPDEST PUSH2 0xB0 PUSH1 0x4 DUP1 CALLDATASIZE SUB DUP2 ADD SWAP1 PUSH2 0xAB SWAP2 SWAP1 PUSH2 0x35B JUMP JUMPDEST PUSH2 0x1A0 JUMP JUMPDEST STOP JUMPDEST PUSH2 0xCC PUSH1 0x4 DUP1 CALLDATASIZE SUB DUP2 ADD SWAP1 PUSH2 0xC7 SWAP2 SWAP1 PUSH2 0x397 JUMP JUMPDEST PUSH2 0x1DD JUMP JUMPDEST PUSH1 0x40 MLOAD PUSH2 0xD9 SWAP2 SWAP1 PUSH2 0x4AC JUMP JUMPDEST PUSH1 0x40 MLOAD DUP1 SWAP2 SUB SWAP1 RETURN JUMPDEST PUSH2 0xFC PUSH1 0x4 DUP1 CALLDATASIZE SUB DUP2 ADD SWAP1 PUSH2 0xF7 SWAP2 SWAP1 PUSH2 0x3E6 JUMP JUMPDEST PUSH2 0x2AE JUMP JUMPDEST PUSH1 0x40 MLOAD PUSH2 0x109 SWAP2 SWAP1 PUSH2 0x491 JUMP JUMPDEST PUSH1 0x40 MLOAD DUP1 SWAP2 SUB SWAP1 RETURN JUMPDEST PUSH2 0x12C PUSH1 0x4 DUP1 CALLDATASIZE SUB DUP2 ADD SWAP1 PUSH2 0x127 SWAP2 SWAP1 PUSH2 0x309 JUMP JUMPDEST PUSH2 0x2D3 JUMP JUMPDEST PUSH1 0x40 MLOAD PUSH2 0x139 SWAP2 SWAP1 PUSH2 0x476 JUMP JUMPDEST PUSH1 0x40 MLOAD DUP1 SWAP2 SUB SWAP1 RETURN JUMPDEST PUSH1 0x0 DUP3 DUP3 LT ISZERO PUSH2 0x17E JUMPI PUSH1 0x40 MLOAD PUSH32 0x8197FEB00000000000000000000000000000000000000000000000000000000 DUP2 MSTORE PUSH1 0x4 ADD PUSH1 0x40 MLOAD DUP1 SWAP2 SUB SWAP1 REVERT JUMPDEST PUSH3 0x15180 DUP4 DUP4 PUSH2 0x18E SWAP2 SWAP1 PUSH2 0x577 JUMP JUMPDEST PUSH2 0x198 SWAP2 SWAP1 PUSH2 0x546 JUMP JUMPDEST SWAP1 POP SWAP3 SWAP2 POP POP JUMP JUMPDEST DUP2 DUP2 GT PUSH2 0x1D9 JUMPI PUSH1 0x40 MLOAD PUSH32 0x69E90E0000000000000000000000000000000000000000000000000000000000 DUP2 MSTORE PUSH1 0x4 ADD PUSH1 0x40 MLOAD DUP1 SWAP2 SUB SWAP1 REVERT JUMPDEST POP POP JUMP JUMPDEST PUSH1 0x0 PUSH2 0x1E9 DUP5 DUP5 PUSH2 0x1A0 JUMP JUMPDEST PUSH1 0x0 DUP5 DUP5 PUSH2 0x1F7 SWAP2 SWAP1 PUSH2 0x577 JUMP JUMPDEST SWAP1 POP PUSH1 0x0 PUSH20 0x0 PUSH4 0x2133E3B9 DUP4 DUP7 PUSH1 0x40 MLOAD DUP4 PUSH4 0xFFFFFFFF AND PUSH1 0xE0 SHL DUP2 MSTORE PUSH1 0x4 ADD PUSH2 0x234 SWAP3 SWAP2 SWAP1 PUSH2 0x4C7 JUMP JUMPDEST PUSH1 0x20 PUSH1 0x40 MLOAD DUP1 DUP4 SUB DUP2 DUP7 DUP1 EXTCODESIZE ISZERO DUP1 ISZERO PUSH2 0x24C JUMPI PUSH1 0x0 DUP1 REVERT JUMPDEST POP GAS DELEGATECALL ISZERO DUP1 ISZERO PUSH2 0x260 JUMPI RETURNDATASIZE PUSH1 0x0 DUP1 RETURNDATACOPY RETURNDATASIZE PUSH1 0x0 REVERT JUMPDEST POP POP POP POP PUSH1 0x40 MLOAD RETURNDATASIZE PUSH1 0x1F NOT PUSH1 0x1F DUP3 ADD AND DUP3 ADD DUP1 PUSH1 0x40 MSTORE POP DUP2 ADD SWAP1 PUSH2 0x284 SWAP2 SWAP1 PUSH2 0x332 JUMP JUMPDEST SWAP1 POP PUSH1 0x0 DUP2 DUP4 PUSH2 0x294 SWAP2 SWAP1 PUSH2 0x4F0 JUMP JUMPDEST SWAP1 POP DUP1 DUP8 PUSH2 0x2A2 SWAP2 SWAP1 PUSH2 0x4F0 JUMP JUMPDEST SWAP4 POP POP POP POP SWAP4 SWAP3 POP POP POP JUMP JUMPDEST PUSH1 0x0 DUP1 PUSH2 0x2BC DUP7 DUP6 DUP6 PUSH2 0x1DD JUMP JUMPDEST SWAP1 POP PUSH2 0x2C8 DUP6 DUP3 PUSH2 0x142 JUMP JUMPDEST SWAP2 POP POP SWAP5 SWAP4 POP POP POP POP JUMP JUMPDEST PUSH1 0x0 TIMESTAMP DUP3 LT SWAP1 POP SWAP2 SWAP1 POP JUMP JUMPDEST PUSH1 0x0 DUP2 CALLDATALOAD SWAP1 POP PUSH2 0x2EE DUP2 PUSH2 0x63B JUMP JUMPDEST SWAP3 SWAP2 POP POP JUMP JUMPDEST PUSH1 0x0 DUP2 MLOAD SWAP1 POP PUSH2 0x303 DUP2 PUSH2 0x63B JUMP JUMPDEST SWAP3 SWAP2 POP POP JUMP JUMPDEST PUSH1 0x0 PUSH1 0x20 DUP3 DUP5 SUB SLT ISZERO PUSH2 0x31B JUMPI PUSH1 0x0 DUP1 REVERT JUMPDEST PUSH1 0x0 PUSH2 0x329 DUP5 DUP3 DUP6 ADD PUSH2 0x2DF JUMP JUMPDEST SWAP2 POP POP SWAP3 SWAP2 POP POP JUMP JUMPDEST PUSH1 0x0 PUSH1 0x20 DUP3 DUP5 SUB SLT ISZERO PUSH2 0x344 JUMPI PUSH1 0x0 DUP1 REVERT JUMPDEST PUSH1 0x0 PUSH2 0x352 DUP5 DUP3 DUP6 ADD PUSH2 0x2F4 JUMP JUMPDEST SWAP2 POP POP SWAP3 SWAP2 POP POP JUMP JUMPDEST PUSH1 0x0 DUP1 PUSH1 0x40 DUP4 DUP6 SUB SLT ISZERO PUSH2 0x36E JUMPI PUSH1 0x0 DUP1 REVERT JUMPDEST PUSH1 0x0 PUSH2 0x37C DUP6 DUP3 DUP7 ADD PUSH2 0x2DF JUMP JUMPDEST SWAP3 POP POP PUSH1 0x20 PUSH2 0x38D DUP6 DUP3 DUP7 ADD PUSH2 0x2DF JUMP JUMPDEST SWAP2 POP POP SWAP3 POP SWAP3 SWAP1 POP JUMP JUMPDEST PUSH1 0x0 DUP1 PUSH1 0x0 PUSH1 0x60 DUP5 DUP7 SUB SLT ISZERO PUSH2 0x3AC JUMPI PUSH1 0x0 DUP1 REVERT JUMPDEST PUSH1 0x0 PUSH2 0x3BA DUP7 DUP3 DUP8 ADD PUSH2 0x2DF JUMP JUMPDEST SWAP4 POP POP PUSH1 0x20 PUSH2 0x3CB DUP7 DUP3 DUP8 ADD PUSH2 0x2DF JUMP JUMPDEST SWAP3 POP POP PUSH1 0x40 PUSH2 0x3DC DUP7 DUP3 DUP8 ADD PUSH2 0x2DF JUMP JUMPDEST SWAP2 POP POP SWAP3 POP SWAP3 POP SWAP3 JUMP JUMPDEST PUSH1 0x0 DUP1 PUSH1 0x0 DUP1 PUSH1 0x80 DUP6 DUP8 SUB SLT ISZERO PUSH2 0x3FC JUMPI PUSH1 0x0 DUP1 REVERT JUMPDEST PUSH1 0x0 PUSH2 0x40A DUP8 DUP3 DUP9 ADD PUSH2 0x2DF JUMP JUMPDEST SWAP5 POP POP PUSH1 0x20 PUSH2 0x41B DUP8 DUP3 DUP9 ADD PUSH2 0x2DF JUMP JUMPDEST SWAP4 POP POP PUSH1 0x40 PUSH2 0x42C DUP8 DUP3 DUP9 ADD PUSH2 0x2DF JUMP JUMPDEST SWAP3 POP POP PUSH1 0x60 PUSH2 0x43D DUP8 DUP3 DUP9 ADD PUSH2 0x2DF JUMP JUMPDEST SWAP2 POP POP SWAP3 SWAP6 SWAP2 SWAP5 POP SWAP3 POP JUMP JUMPDEST PUSH2 0x452 DUP2 PUSH2 0x5AB JUMP JUMPDEST DUP3 MSTORE POP POP JUMP JUMPDEST PUSH2 0x461 DUP2 PUSH2 0x5B7 JUMP JUMPDEST DUP3 MSTORE POP POP JUMP JUMPDEST PUSH2 0x470 DUP2 PUSH2 0x5D3 JUMP JUMPDEST DUP3 MSTORE POP POP JUMP JUMPDEST PUSH1 0x0 PUSH1 0x20 DUP3 ADD SWAP1 POP PUSH2 0x48B PUSH1 0x0 DUP4 ADD DUP5 PUSH2 0x449 JUMP JUMPDEST SWAP3 SWAP2 POP POP JUMP JUMPDEST PUSH1 0x0 PUSH1 0x20 DUP3 ADD SWAP1 POP PUSH2 0x4A6 PUSH1 0x0 DUP4 ADD DUP5 PUSH2 0x458 JUMP JUMPDEST SWAP3 SWAP2 POP POP JUMP JUMPDEST PUSH1 0x0 PUSH1 0x20 DUP3 ADD SWAP1 POP PUSH2 0x4C1 PUSH1 0x0 DUP4 ADD DUP5 PUSH2 0x467 JUMP JUMPDEST SWAP3 SWAP2 POP POP JUMP JUMPDEST PUSH1 0x0 PUSH1 0x40 DUP3 ADD SWAP1 POP PUSH2 0x4DC PUSH1 0x0 DUP4 ADD DUP6 PUSH2 0x467 JUMP JUMPDEST PUSH2 0x4E9 PUSH1 0x20 DUP4 ADD DUP5 PUSH2 0x467 JUMP JUMPDEST SWAP4 SWAP3 POP POP POP JUMP JUMPDEST PUSH1 0x0 PUSH2 0x4FB DUP3 PUSH2 0x5D3 JUMP JUMPDEST SWAP2 POP PUSH2 0x506 DUP4 PUSH2 0x5D3 JUMP JUMPDEST SWAP3 POP DUP3 PUSH32 0xFFFFFFFFFFFFFFFFFFFFFFFFFFFFFFFFFFFFFFFFFFFFFFFFFFFFFFFFFFFFFFFF SUB DUP3 GT ISZERO PUSH2 0x53B JUMPI PUSH2 0x53A PUSH2 0x5DD JUMP JUMPDEST JUMPDEST DUP3 DUP3 ADD SWAP1 POP SWAP3 SWAP2 POP POP JUMP JUMPDEST PUSH1 0x0 PUSH2 0x551 DUP3 PUSH2 0x5D3 JUMP JUMPDEST SWAP2 POP PUSH2 0x55C DUP4 PUSH2 0x5D3 JUMP JUMPDEST SWAP3 POP DUP3 PUSH2 0x56C JUMPI PUSH2 0x56B PUSH2 0x60C JUMP JUMPDEST JUMPDEST DUP3 DUP3 DIV SWAP1 POP SWAP3 SWAP2 POP POP JUMP JUMPDEST PUSH1 0x0 PUSH2 0x582 DUP3 PUSH2 0x5D3 JUMP JUMPDEST SWAP2 POP PUSH2 0x58D DUP4 PUSH2 0x5D3 JUMP JUMPDEST SWAP3 POP DUP3 DUP3 LT ISZERO PUSH2 0x5A0 JUMPI PUSH2 0x59F PUSH2 0x5DD JUMP JUMPDEST JUMPDEST DUP3 DUP3 SUB SWAP1 POP SWAP3 SWAP2 POP POP JUMP JUMPDEST PUSH1 0x0 DUP2 ISZERO ISZERO SWAP1 POP SWAP2 SWAP1 POP JUMP JUMPDEST PUSH1 0x0 PUSH16 0xFFFFFFFFFFFFFFFFFFFFFFFFFFFFFFFF DUP3 AND SWAP1 POP SWAP2 SWAP1 POP JUMP JUMPDEST PUSH1 0x0 DUP2 SWAP1 POP SWAP2 SWAP1 POP JUMP JUMPDEST PUSH32 0x4E487B7100000000000000000000000000000000000000000000000000000000 PUSH1 0x0 MSTORE PUSH1 0x11 PUSH1 0x4 MSTORE PUSH1 0x24 PUSH1 0x0 REVERT JUMPDEST PUSH32 0x4E487B7100000000000000000000000000000000000000000000000000000000 PUSH1 0x0 MSTORE PUSH1 0x12 PUSH1 0x4 MSTORE PUSH1 0x24 PUSH1 0x0 REVERT JUMPDEST PUSH2 0x644 DUP2 PUSH2 0x5D3 JUMP JUMPDEST DUP2 EQ PUSH2 0x64F JUMPI PUSH1 0x0 DUP1 REVERT JUMPDEST POP JUMP INVALID LOG2 PUSH5 0x6970667358 0x22 SLT KECCAK256 SHL 0xE7 0xD6 0xEC CALLDATACOPY LOG4 0xCF 0xE4 0xBC MSIZE 0xBC 0xED DUP9 SLT 0x5E 0xEF POP PUSH31 0x9015AEACB2B969ED70525C6C5E2E64736F6C63430008040033000000000000 "
        },
        "methodIdentifiers": {
          "getDaysBeforeDate(uint256,uint256)": "38d8babe",
          "getDaysBeforeInvestmentOpportunityDeadline(uint256,uint256,uint256,uint256)": "dc00ece1",
          "getInvestmentOpportunityDeadline(uint256,uint256,uint256)": "c4a9ddad",
          "isWorkerDeadlineExpired(uint256)": "dd50d07f",
          "revertIfWorkerDeadlineIsInvalid(uint256,uint256)": "6d13eebf"
        }
      }
    }
  }
}