{
  "_format": "hh-sol-artifact-1",
  "contractName": "WorkFi",
  "sourceName": "contracts/WorkFi.sol",
  "abi": [
    {
      "inputs": [],
      "name": "AWorkerWasAlreadyAccepted",
      "type": "error"
    },
    {
      "inputs": [],
      "name": "BountyDoesNotExist",
      "type": "error"
    },
    {
      "inputs": [],
      "name": "BountyIsNotCancelled",
      "type": "error"
    },
    {
      "inputs": [],
      "name": "BountyIsNotOngoing",
      "type": "error"
    },
    {
      "inputs": [],
      "name": "InvestmentOpportunityIsClosed",
      "type": "error"
    },
    {
      "inputs": [],
      "name": "InvestmentOpportunityIsStillOpen",
      "type": "error"
    },
    {
      "inputs": [
        {
          "internalType": "uint128",
          "name": "maxPossibleAmount",
          "type": "uint128"
        }
      ],
      "name": "MaxInvestmentExceeded",
      "type": "error"
    },
    {
      "inputs": [],
      "name": "NotAWhitelistedStablecoin",
      "type": "error"
    },
    {
      "inputs": [],
      "name": "NotAnInvestor",
      "type": "error"
    },
    {
      "inputs": [],
      "name": "NotRecruiter",
      "type": "error"
    },
    {
      "inputs": [],
      "name": "NotTheWorker",
      "type": "error"
    },
    {
      "inputs": [],
      "name": "RecruiterCannotInvest",
      "type": "error"
    },
    {
      "inputs": [
        {
          "internalType": "uint128",
          "name": "required",
          "type": "uint128"
        }
      ],
      "name": "ThisAmountOfEthIsRequired",
      "type": "error"
    },
    {
      "inputs": [],
      "name": "ValueShouldBeZeroIfNotPayingWithEth",
      "type": "error"
    },
    {
      "inputs": [],
      "name": "WorkerCannotBeZero",
      "type": "error"
    },
    {
      "inputs": [],
      "name": "WorkerCannotInvest",
      "type": "error"
    },
    {
      "inputs": [],
      "name": "WorkerDeadlineExpired",
      "type": "error"
    },
    {
      "inputs": [],
      "name": "WorkerHasBeenPaid",
      "type": "error"
    },
    {
      "anonymous": false,
      "inputs": [
        {
          "indexed": true,
          "internalType": "uint256",
          "name": "bountyId",
          "type": "uint256"
        }
      ],
      "name": "BountyCancelled",
      "type": "event"
    },
    {
      "anonymous": false,
      "inputs": [
        {
          "indexed": true,
          "internalType": "uint256",
          "name": "bountyId",
          "type": "uint256"
        }
      ],
      "name": "BountyCompleted",
      "type": "event"
    },
    {
      "anonymous": false,
      "inputs": [
        {
          "indexed": true,
          "internalType": "uint256",
          "name": "bountyId",
          "type": "uint256"
        },
        {
          "indexed": true,
          "internalType": "address",
          "name": "recruiter",
          "type": "address"
        }
      ],
      "name": "BountyCreated",
      "type": "event"
    },
    {
      "anonymous": false,
      "inputs": [
        {
          "indexed": true,
          "internalType": "uint256",
          "name": "bountyId",
          "type": "uint256"
        },
        {
          "indexed": true,
          "internalType": "address",
          "name": "investor",
          "type": "address"
        },
        {
          "indexed": false,
          "internalType": "uint128",
          "name": "amount",
          "type": "uint128"
        }
      ],
      "name": "Invested",
      "type": "event"
    },
    {
      "anonymous": false,
      "inputs": [
        {
          "indexed": true,
          "internalType": "uint256",
          "name": "bountyId",
          "type": "uint256"
        }
      ],
      "name": "InvestmentsWithdrawn",
      "type": "event"
    },
    {
      "anonymous": false,
      "inputs": [
        {
          "indexed": true,
          "internalType": "uint256",
          "name": "bountyId",
          "type": "uint256"
        },
        {
          "indexed": false,
          "internalType": "uint128",
          "name": "payment",
          "type": "uint128"
        }
      ],
      "name": "InvestorPaymentAccepted",
      "type": "event"
    },
    {
      "anonymous": false,
      "inputs": [
        {
          "indexed": true,
          "internalType": "address",
          "name": "previousOwner",
          "type": "address"
        },
        {
          "indexed": true,
          "internalType": "address",
          "name": "newOwner",
          "type": "address"
        }
      ],
      "name": "OwnershipTransferred",
      "type": "event"
    },
    {
      "anonymous": false,
      "inputs": [
        {
          "indexed": true,
          "internalType": "address",
          "name": "stablecoin",
          "type": "address"
        }
      ],
      "name": "StablecoinAddedToWhitelist",
      "type": "event"
    },
    {
      "anonymous": false,
      "inputs": [
        {
          "indexed": true,
          "internalType": "address",
          "name": "stablecoin",
          "type": "address"
        }
      ],
      "name": "StablecoinRemovedFromWhitelist",
      "type": "event"
    },
    {
      "anonymous": false,
      "inputs": [
        {
          "indexed": true,
          "internalType": "uint256",
          "name": "bountyId",
          "type": "uint256"
        },
        {
          "indexed": true,
          "internalType": "address",
          "name": "worker",
          "type": "address"
        }
      ],
      "name": "WorkerAccepted",
      "type": "event"
    },
    {
      "anonymous": false,
      "inputs": [
        {
          "indexed": true,
          "internalType": "uint256",
          "name": "bountyId",
          "type": "uint256"
        },
        {
          "indexed": false,
          "internalType": "uint128",
          "name": "nativePay",
          "type": "uint128"
        },
        {
          "indexed": false,
          "internalType": "uint128",
          "name": "stablePay",
          "type": "uint128"
        }
      ],
      "name": "WorkerPaymentAccepted",
      "type": "event"
    },
    {
      "inputs": [],
      "name": "INVESTMENT_OPPORTUNITY_DURATION_PERCENTAGE_IN_BASIS_POINT",
      "outputs": [
        {
          "internalType": "uint256",
          "name": "",
          "type": "uint256"
        }
      ],
      "stateMutability": "view",
      "type": "function"
    },
    {
      "inputs": [
        {
          "internalType": "uint256",
          "name": "bountyId",
          "type": "uint256"
        }
      ],
      "name": "acceptInvestorPayment",
      "outputs": [],
      "stateMutability": "nonpayable",
      "type": "function"
    },
    {
      "inputs": [
        {
          "internalType": "uint256",
          "name": "bountyId",
          "type": "uint256"
        },
        {
          "internalType": "address",
          "name": "worker",
          "type": "address"
        }
      ],
      "name": "acceptWorker",
      "outputs": [],
      "stateMutability": "nonpayable",
      "type": "function"
    },
    {
      "inputs": [
        {
          "internalType": "uint256",
          "name": "bountyId",
          "type": "uint256"
        }
      ],
      "name": "acceptWorkerPayment",
      "outputs": [],
      "stateMutability": "nonpayable",
      "type": "function"
    },
    {
      "inputs": [
        {
          "internalType": "address",
          "name": "stablecoin",
          "type": "address"
        }
      ],
      "name": "addStablecoinToWhitelist",
      "outputs": [],
      "stateMutability": "nonpayable",
      "type": "function"
    },
    {
      "inputs": [
        {
          "internalType": "uint128",
          "name": "initialValue",
          "type": "uint128"
        },
        {
          "internalType": "uint128",
          "name": "dailyYieldPercentage",
          "type": "uint128"
        },
        {
          "internalType": "uint128",
          "name": "daysBeforeInvestmentOpportunityCloses",
          "type": "uint128"
        }
      ],
      "name": "calculateTotalYield",
      "outputs": [
        {
          "internalType": "uint128",
          "name": "",
          "type": "uint128"
        }
      ],
      "stateMutability": "pure",
      "type": "function"
    },
    {
      "inputs": [
        {
          "internalType": "uint128",
          "name": "workerNativePay",
          "type": "uint128"
        },
        {
          "internalType": "uint128",
          "name": "dailyYieldPercentage",
          "type": "uint128"
        },
        {
          "internalType": "uint256",
          "name": "bountyCreationDate",
          "type": "uint256"
        },
        {
          "internalType": "uint256",
          "name": "workerDeadline",
          "type": "uint256"
        }
      ],
      "name": "calculateYieldPool",
      "outputs": [
        {
          "internalType": "uint128",
          "name": "",
          "type": "uint128"
        }
      ],
      "stateMutability": "pure",
      "type": "function"
    },
    {
      "inputs": [
        {
          "internalType": "uint256",
          "name": "bountyId",
          "type": "uint256"
        }
      ],
      "name": "cancelBounty",
      "outputs": [],
      "stateMutability": "nonpayable",
      "type": "function"
    },
    {
      "inputs": [
        {
          "internalType": "uint128",
          "name": "workerStablePay",
          "type": "uint128"
        },
        {
          "internalType": "uint128",
          "name": "workerNativePay",
          "type": "uint128"
        },
        {
          "internalType": "uint96",
          "name": "exchangeRate",
          "type": "uint96"
        },
        {
          "internalType": "address",
          "name": "nativeToken",
          "type": "address"
        },
        {
          "internalType": "address",
          "name": "stablecoin",
          "type": "address"
        },
        {
          "internalType": "uint128",
          "name": "dailyYieldPercentage",
          "type": "uint128"
        },
        {
          "internalType": "uint256",
          "name": "workerDeadline",
          "type": "uint256"
        }
      ],
      "name": "createBounty",
      "outputs": [
        {
          "internalType": "uint256",
          "name": "",
          "type": "uint256"
        }
      ],
      "stateMutability": "payable",
      "type": "function"
    },
    {
      "inputs": [
        {
          "internalType": "uint256",
          "name": "bountyId",
          "type": "uint256"
        }
      ],
      "name": "getAmountOfInvestments",
      "outputs": [
        {
          "internalType": "uint256",
          "name": "",
          "type": "uint256"
        }
      ],
      "stateMutability": "view",
      "type": "function"
    },
    {
      "inputs": [
        {
          "internalType": "uint256",
          "name": "bountyId",
          "type": "uint256"
        }
      ],
      "name": "getBounty",
      "outputs": [
        {
          "components": [
            {
              "internalType": "uint128",
              "name": "workerStablePay",
              "type": "uint128"
            },
            {
              "internalType": "uint128",
              "name": "workerNativePay",
              "type": "uint128"
            },
            {
              "internalType": "uint96",
              "name": "exchangeRate",
              "type": "uint96"
            },
            {
              "internalType": "address",
              "name": "stablecoin",
              "type": "address"
            },
            {
              "internalType": "address",
              "name": "nativeToken",
              "type": "address"
            },
            {
              "internalType": "uint128",
              "name": "dailyYieldPercentage",
              "type": "uint128"
            },
            {
              "internalType": "address",
              "name": "worker",
              "type": "address"
            },
            {
              "internalType": "address",
              "name": "recruiter",
              "type": "address"
            },
            {
              "internalType": "enum BountyStatus",
              "name": "status",
              "type": "uint8"
            },
            {
              "internalType": "uint256",
              "name": "workerDeadline",
              "type": "uint256"
            },
            {
              "internalType": "uint128",
              "name": "initialWorkerStablePay",
              "type": "uint128"
            },
            {
              "internalType": "uint128",
              "name": "initialWorkerNativePay",
              "type": "uint128"
            },
            {
              "internalType": "uint256",
              "name": "creationDate",
              "type": "uint256"
            },
            {
              "internalType": "uint256",
              "name": "workerPaidAt",
              "type": "uint256"
            }
          ],
          "internalType": "struct BountyMetadata",
          "name": "",
          "type": "tuple"
        }
      ],
      "stateMutability": "view",
      "type": "function"
    },
    {
      "inputs": [
        {
          "internalType": "uint256",
          "name": "bountyId",
          "type": "uint256"
        },
        {
          "internalType": "uint256",
          "name": "investmentId",
          "type": "uint256"
        }
      ],
      "name": "getInvestment",
      "outputs": [
        {
          "components": [
            {
              "internalType": "uint128",
              "name": "stableAmount",
              "type": "uint128"
            },
            {
              "internalType": "uint256",
              "name": "creationDate",
              "type": "uint256"
            }
          ],
          "internalType": "struct IWorkFi.InvestmentMetadata",
          "name": "",
          "type": "tuple"
        }
      ],
      "stateMutability": "view",
      "type": "function"
    },
    {
      "inputs": [
        {
          "internalType": "uint256",
          "name": "bountyId",
          "type": "uint256"
        },
        {
          "internalType": "uint128",
          "name": "stableAmount",
          "type": "uint128"
        }
      ],
      "name": "invest",
      "outputs": [],
      "stateMutability": "nonpayable",
      "type": "function"
    },
    {
      "inputs": [
        {
          "internalType": "uint256",
          "name": "bountyId",
          "type": "uint256"
        }
      ],
      "name": "markBountyAsCompleted",
      "outputs": [],
      "stateMutability": "nonpayable",
      "type": "function"
    },
    {
      "inputs": [],
      "name": "owner",
      "outputs": [
        {
          "internalType": "address",
          "name": "",
          "type": "address"
        }
      ],
      "stateMutability": "view",
      "type": "function"
    },
    {
      "inputs": [
        {
          "internalType": "address",
          "name": "stablecoin",
          "type": "address"
        }
      ],
      "name": "removeStablecoinFromWhitelist",
      "outputs": [],
      "stateMutability": "nonpayable",
      "type": "function"
    },
    {
      "inputs": [],
      "name": "renounceOwnership",
      "outputs": [],
      "stateMutability": "nonpayable",
      "type": "function"
    },
    {
      "inputs": [
        {
          "internalType": "address",
          "name": "newOwner",
          "type": "address"
        }
      ],
      "name": "transferOwnership",
      "outputs": [],
      "stateMutability": "nonpayable",
      "type": "function"
    }
  ],
  "bytecode": "0x60806040523480156200001157600080fd5b5060016000819055506200003a6200002e6200004060201b60201c565b6200004860201b60201c565b6200010e565b600033905090565b6000600160009054906101000a900473ffffffffffffffffffffffffffffffffffffffff16905081600160006101000a81548173ffffffffffffffffffffffffffffffffffffffff021916908373ffffffffffffffffffffffffffffffffffffffff1602179055508173ffffffffffffffffffffffffffffffffffffffff168173ffffffffffffffffffffffffffffffffffffffff167f8be0079c531659141344cd1fd0a4f28419497f9722a3daafe3b4186f6b6457e060405160405180910390a35050565b6146cb806200011e6000396000f3fe6080604052600436106101095760003560e01c8063ac5426ab11610095578063d4d3697c11610064578063d4d3697c14610365578063e5e5dff11461038e578063ee8c4bbf146103b7578063f2fde38b146103f4578063f8ef4d761461041d57610109565b8063ac5426ab14610285578063b596a722146102ae578063c0376ce4146102eb578063cfdc8ef01461032857610109565b806358279718116100dc57806358279718146101c85780635c0b1941146101f157806363dd5c1f1461021a578063715018a6146102435780638da5cb5b1461025a57610109565b806308c4f6ed1461010e57806321b46a101461014b578063228b6f4514610174578063491145841461019d575b600080fd5b34801561011a57600080fd5b5061013560048036038101906101309190613adb565b61044d565b604051610142919061410a565b60405180910390f35b34801561015757600080fd5b50610172600480360381019061016d9190613adb565b6104aa565b005b34801561018057600080fd5b5061019b60048036038101906101969190613910565b61096c565b005b3480156101a957600080fd5b506101b2610a12565b6040516101bf919061410a565b60405180910390f35b3480156101d457600080fd5b506101ef60048036038101906101ea9190613b69565b610a18565b005b3480156101fd57600080fd5b5061021860048036038101906102139190613910565b611045565b005b34801561022657600080fd5b50610241600480360381019061023c9190613b2d565b6110eb565b005b34801561024f57600080fd5b5061025861147c565b005b34801561026657600080fd5b5061026f611490565b60405161027c9190613ec3565b60405180910390f35b34801561029157600080fd5b506102ac60048036038101906102a79190613adb565b6114ba565b005b3480156102ba57600080fd5b506102d560048036038101906102d091906139da565b611bea565b6040516102e29190614082565b60405180910390f35b3480156102f757600080fd5b50610312600480360381019061030d9190613ba5565b611c02565b60405161031f9190614067565b60405180910390f35b34801561033457600080fd5b5061034f600480360381019061034a919061398b565b611d52565b60405161035c9190614082565b60405180910390f35b34801561037157600080fd5b5061038c60048036038101906103879190613adb565b611d68565b005b34801561039a57600080fd5b506103b560048036038101906103b09190613adb565b612090565b005b3480156103c357600080fd5b506103de60048036038101906103d99190613adb565b61247e565b6040516103eb9190614007565b60405180910390f35b34801561040057600080fd5b5061041b60048036038101906104169190613910565b61289a565b005b61043760048036038101906104329190613a3d565b61291e565b604051610444919061410a565b60405180910390f35b60006003600083815260200190815260200160002060003373ffffffffffffffffffffffffffffffffffffffff1673ffffffffffffffffffffffffffffffffffffffff168152602001908152602001600020805490509050919050565b600260005414156104f0576040517f08c379a00000000000000000000000000000000000000000000000000000000081526004016104e790613fe7565b60405180910390fd5b6002600081905550600280549050811115610537576040517f8150e7de00000000000000000000000000000000000000000000000000000000815260040160405180910390fd5b600060026001836105489190614335565b8154811061057f577f4e487b7100000000000000000000000000000000000000000000000000000000600052603260045260246000fd5b90600052602060002090600a02019050600260038111156105c9577f4e487b7100000000000000000000000000000000000000000000000000000000600052602160045260246000fd5b8160050160149054906101000a900460ff166003811115610613577f4e487b7100000000000000000000000000000000000000000000000000000000600052602160045260246000fd5b141561064b576040517f399acfc500000000000000000000000000000000000000000000000000000000815260040160405180910390fd5b8060040160009054906101000a900473ffffffffffffffffffffffffffffffffffffffff1673ffffffffffffffffffffffffffffffffffffffff163373ffffffffffffffffffffffffffffffffffffffff16146106d4576040517fafdf2ce500000000000000000000000000000000000000000000000000000000815260040160405180910390fd5b60008160000160109054906101000a90046fffffffffffffffffffffffffffffffff16905060008260000160009054906101000a90046fffffffffffffffffffffffffffffffff16905060028360050160146101000a81548160ff0219169083600381111561076c577f4e487b7100000000000000000000000000000000000000000000000000000000600052602160045260246000fd5b02179055508273__$9bab18f9566666dc186b5520eb0702d110$__6305d46a1d90916040518263ffffffff1660e01b81526004016107aa9190614023565b60006040518083038186803b1580156107c257600080fd5b505af41580156107d6573d6000803e3d6000fd5b50505050428360090181905550837f0d15d1b7a8256ac701c087dd0be0a0ab20494033aad566e718ffc6ff7863025f838360405161081592919061409d565b60405180910390a26108828360020160009054906101000a900473ffffffffffffffffffffffffffffffffffffffff168460040160009054906101000a900473ffffffffffffffffffffffffffffffffffffffff16846fffffffffffffffffffffffffffffffff166131c1565b600083600101600c9054906101000a900473ffffffffffffffffffffffffffffffffffffffff1690508073ffffffffffffffffffffffffffffffffffffffff1663a9059cbb8560040160009054906101000a900473ffffffffffffffffffffffffffffffffffffffff16846040518363ffffffff1660e01b815260040161090a929190613f15565b602060405180830381600087803b15801561092457600080fd5b505af1158015610938573d6000803e3d6000fd5b505050506040513d601f19601f8201168201806040525081019061095c9190613939565b5050505050600160008190555050565b6109746132bd565b6001600460008373ffffffffffffffffffffffffffffffffffffffff1673ffffffffffffffffffffffffffffffffffffffff16815260200190815260200160002060006101000a81548160ff0219169083151502179055508073ffffffffffffffffffffffffffffffffffffffff167fa5b2df84db0941e7676d85be87df7655f22b50609194645573ea63223f97987c60405160405180910390a250565b610bb881565b600280549050821115610a57576040517f8150e7de00000000000000000000000000000000000000000000000000000000815260040160405180910390fd5b60006002600184610a689190614335565b81548110610a9f577f4e487b7100000000000000000000000000000000000000000000000000000000600052603260045260246000fd5b90600052602060002090600a020190508073__$9bab18f9566666dc186b5520eb0702d110$__63580011889091610bb86040518363ffffffff1660e01b8152600401610aec92919061403e565b60206040518083038186803b158015610b0457600080fd5b505af4158015610b18573d6000803e3d6000fd5b505050506040513d601f19601f82011682018060405250810190610b3c9190613939565b15610b73576040517fb652eee300000000000000000000000000000000000000000000000000000000815260040160405180910390fd5b8060040160009054906101000a900473ffffffffffffffffffffffffffffffffffffffff1673ffffffffffffffffffffffffffffffffffffffff163373ffffffffffffffffffffffffffffffffffffffff161415610bfd576040517f73c37c2800000000000000000000000000000000000000000000000000000000815260040160405180910390fd5b8060050160009054906101000a900473ffffffffffffffffffffffffffffffffffffffff1673ffffffffffffffffffffffffffffffffffffffff163373ffffffffffffffffffffffffffffffffffffffff161415610c87576040517f7b42ad9c00000000000000000000000000000000000000000000000000000000815260040160405180910390fd5b6000610cdd8260000160109054906101000a90046fffffffffffffffffffffffffffffffff168360010160009054906101000a90046bffffffffffffffffffffffff166bffffffffffffffffffffffff1661333b565b9050806fffffffffffffffffffffffffffffffff16836fffffffffffffffffffffffffffffffff161115610d4857806040517f8cc585e4000000000000000000000000000000000000000000000000000000008152600401610d3f9190614082565b60405180910390fd5b6000610d7e848460010160009054906101000a90046bffffffffffffffffffffffff166bffffffffffffffffffffffff16613351565b9050808360000160108282829054906101000a90046fffffffffffffffffffffffffffffffff16610daf9190614301565b92506101000a8154816fffffffffffffffffffffffffffffffff02191690836fffffffffffffffffffffffffffffffff160217905550838360000160008282829054906101000a90046fffffffffffffffffffffffffffffffff16610e1491906141e6565b92506101000a8154816fffffffffffffffffffffffffffffffff02191690836fffffffffffffffffffffffffffffffff1602179055506003600086815260200190815260200160002060003373ffffffffffffffffffffffffffffffffffffffff1673ffffffffffffffffffffffffffffffffffffffff1681526020019081526020016000206040518060400160405280866fffffffffffffffffffffffffffffffff16815260200142815250908060018154018082558091505060019003906000526020600020906002020160009091909190915060008201518160000160006101000a8154816fffffffffffffffffffffffffffffffff02191690836fffffffffffffffffffffffffffffffff1602179055506020820151816001015550503373ffffffffffffffffffffffffffffffffffffffff16857ff53ccaea78f40d9e5e62fd32c3b916b6248bcc781ef9345e206f0674f650b58a86604051610f7c9190614082565b60405180910390a3600083600101600c9054906101000a900473ffffffffffffffffffffffffffffffffffffffff1690508073ffffffffffffffffffffffffffffffffffffffff166323b872dd3330886040518463ffffffff1660e01b8152600401610fea93929190613ede565b602060405180830381600087803b15801561100457600080fd5b505af1158015611018573d6000803e3d6000fd5b505050506040513d601f19601f8201168201806040525081019061103c9190613939565b50505050505050565b61104d6132bd565b6000600460008373ffffffffffffffffffffffffffffffffffffffff1673ffffffffffffffffffffffffffffffffffffffff16815260200190815260200160002060006101000a81548160ff0219169083151502179055508073ffffffffffffffffffffffffffffffffffffffff167f59e282a3362703b42cb4526d0a76d5f1acc03d3944f5dc8ab0bffc69bddfb6be60405160405180910390a250565b60028054905082111561112a576040517f8150e7de00000000000000000000000000000000000000000000000000000000815260040160405180910390fd5b600073ffffffffffffffffffffffffffffffffffffffff168173ffffffffffffffffffffffffffffffffffffffff161415611191576040517f2bc20eca00000000000000000000000000000000000000000000000000000000815260040160405180910390fd5b600060026001846111a29190614335565b815481106111d9577f4e487b7100000000000000000000000000000000000000000000000000000000600052603260045260246000fd5b90600052602060002090600a0201905073__$68f0cd47664ad2a7a4ad3f283322e95943$__63dd50d07f82600601546040518263ffffffff1660e01b815260040161122491906140ef565b60206040518083038186803b15801561123c57600080fd5b505af4158015611250573d6000803e3d6000fd5b505050506040513d601f19601f820116820180604052508101906112749190613939565b156112ab576040517f0baf493500000000000000000000000000000000000000000000000000000000815260040160405180910390fd5b600060038111156112e5577f4e487b7100000000000000000000000000000000000000000000000000000000600052602160045260246000fd5b8160050160149054906101000a900460ff16600381111561132f577f4e487b7100000000000000000000000000000000000000000000000000000000600052602160045260246000fd5b14611366576040517fb3b8134a00000000000000000000000000000000000000000000000000000000815260040160405180910390fd5b600073ffffffffffffffffffffffffffffffffffffffff168160040160009054906101000a900473ffffffffffffffffffffffffffffffffffffffff1673ffffffffffffffffffffffffffffffffffffffff16146113f0576040517f99c9446b00000000000000000000000000000000000000000000000000000000815260040160405180910390fd5b818160040160006101000a81548173ffffffffffffffffffffffffffffffffffffffff021916908373ffffffffffffffffffffffffffffffffffffffff1602179055508173ffffffffffffffffffffffffffffffffffffffff16837f1d0ba82b48138c804a042cce564f9f9c5a1a903576dda8d1f57545b454142adb60405160405180910390a3505050565b6114846132bd565b61148e6000613367565b565b6000600160009054906101000a900473ffffffffffffffffffffffffffffffffffffffff16905090565b60026000541415611500576040517f08c379a00000000000000000000000000000000000000000000000000000000081526004016114f790613fe7565b60405180910390fd5b6002600081905550600280549050811115611547576040517f8150e7de00000000000000000000000000000000000000000000000000000000815260040160405180910390fd5b600060026001836115589190614335565b8154811061158f577f4e487b7100000000000000000000000000000000000000000000000000000000600052603260045260246000fd5b90600052602060002090600a020190508073__$9bab18f9566666dc186b5520eb0702d110$__63580011889091610bb86040518363ffffffff1660e01b81526004016115dc92919061403e565b60206040518083038186803b1580156115f457600080fd5b505af4158015611608573d6000803e3d6000fd5b505050506040513d601f19601f8201168201806040525081019061162c9190613939565b611662576040517f5b4ca53900000000000000000000000000000000000000000000000000000000815260040160405180910390fd5b60006003600084815260200190815260200160002060003373ffffffffffffffffffffffffffffffffffffffff1673ffffffffffffffffffffffffffffffffffffffff1681526020019081526020016000208054905014156116f0576040517fb777672400000000000000000000000000000000000000000000000000000000815260040160405180910390fd5b600080808360090154116117985773__$68f0cd47664ad2a7a4ad3f283322e95943$__63c4a9ddad84600801548560060154610bb86040518463ffffffff1660e01b81526004016117439392919061414e565b60206040518083038186803b15801561175b57600080fd5b505af415801561176f573d6000803e3d6000fd5b505050506040513d601f19601f820116820180604052508101906117939190613b04565b61179e565b82600901545b905060005b6003600086815260200190815260200160002060003373ffffffffffffffffffffffffffffffffffffffff1673ffffffffffffffffffffffffffffffffffffffff16815260200190815260200160002080549050811015611b065760006003600087815260200190815260200160002060003373ffffffffffffffffffffffffffffffffffffffff1673ffffffffffffffffffffffffffffffffffffffff1681526020019081526020016000208281548110611888577f4e487b7100000000000000000000000000000000000000000000000000000000600052603260045260246000fd5b906000526020600020906002020160000160009054906101000a90046fffffffffffffffffffffffffffffffff16905060006003600088815260200190815260200160002060003373ffffffffffffffffffffffffffffffffffffffff1673ffffffffffffffffffffffffffffffffffffffff1681526020019081526020016000208381548110611942577f4e487b7100000000000000000000000000000000000000000000000000000000600052603260045260246000fd5b9060005260206000209060020201600101549050600060016003811115611992577f4e487b7100000000000000000000000000000000000000000000000000000000600052602160045260246000fd5b8760050160149054906101000a900460ff1660038111156119dc577f4e487b7100000000000000000000000000000000000000000000000000000000600052602160045260246000fd5b146119e8576000611a1d565b611a1c838860010160009054906101000a90046bffffffffffffffffffffffff166bffffffffffffffffffffffff16613351565b5b9050600073__$68f0cd47664ad2a7a4ad3f283322e95943$__6338d8babe84886040518363ffffffff1660e01b8152600401611a5a929190614125565b60206040518083038186803b158015611a7257600080fd5b505af4158015611a86573d6000803e3d6000fd5b505050506040513d601f19601f82011682018060405250810190611aaa9190613962565b9050611ad7828960030160009054906101000a90046fffffffffffffffffffffffffffffffff168361342d565b82611ae291906141e6565b87611aed91906141e6565b9650505050508080611afe9061441c565b9150506117a3565b506003600085815260200190815260200160002060003373ffffffffffffffffffffffffffffffffffffffff1673ffffffffffffffffffffffffffffffffffffffff1681526020019081526020016000206000611b639190613684565b837f855ef22eae8ad28734be800428e4ec1671c8d3c1e80c21b12765757cb9b5d53183604051611b939190614082565b60405180910390a2611bdc8360020160009054906101000a900473ffffffffffffffffffffffffffffffffffffffff1633846fffffffffffffffffffffffffffffffff166131c1565b505050600160008190555050565b6000611bf8858585856134de565b9050949350505050565b611c0a6136a8565b600280549050831115611c49576040517f8150e7de00000000000000000000000000000000000000000000000000000000815260040160405180910390fd5b6003600084815260200190815260200160002060003373ffffffffffffffffffffffffffffffffffffffff1673ffffffffffffffffffffffffffffffffffffffff168152602001908152602001600020600183611ca69190614335565b81548110611cdd577f4e487b7100000000000000000000000000000000000000000000000000000000600052603260045260246000fd5b90600052602060002090600202016040518060400160405290816000820160009054906101000a90046fffffffffffffffffffffffffffffffff166fffffffffffffffffffffffffffffffff166fffffffffffffffffffffffffffffffff168152602001600182015481525050905092915050565b6000611d5f84848461342d565b90509392505050565b600280549050811115611da7576040517f8150e7de00000000000000000000000000000000000000000000000000000000815260040160405180910390fd5b60006002600183611db89190614335565b81548110611def577f4e487b7100000000000000000000000000000000000000000000000000000000600052603260045260246000fd5b90600052602060002090600a020190508060050160009054906101000a900473ffffffffffffffffffffffffffffffffffffffff1673ffffffffffffffffffffffffffffffffffffffff163373ffffffffffffffffffffffffffffffffffffffff1614611e88576040517ffc6403e800000000000000000000000000000000000000000000000000000000815260040160405180910390fd5b600073ffffffffffffffffffffffffffffffffffffffff168160040160009054906101000a900473ffffffffffffffffffffffffffffffffffffffff1673ffffffffffffffffffffffffffffffffffffffff161415611f13576040517f2bc20eca00000000000000000000000000000000000000000000000000000000815260040160405180910390fd5b60006003811115611f4d577f4e487b7100000000000000000000000000000000000000000000000000000000600052602160045260246000fd5b8160050160149054906101000a900460ff166003811115611f97577f4e487b7100000000000000000000000000000000000000000000000000000000600052602160045260246000fd5b14611fce576040517fb3b8134a00000000000000000000000000000000000000000000000000000000815260040160405180910390fd5b428160060154101561200c576040517f0baf493500000000000000000000000000000000000000000000000000000000815260040160405180910390fd5b60018160050160146101000a81548160ff0219169083600381111561205a577f4e487b7100000000000000000000000000000000000000000000000000000000600052602160045260246000fd5b0217905550817f687045981c43db01605c41aa9dbf9296e20e6848624353e83979327e96434ccc60405160405180910390a25050565b6002805490508111156120cf576040517f8150e7de00000000000000000000000000000000000000000000000000000000815260040160405180910390fd5b600060026001836120e09190614335565b81548110612117577f4e487b7100000000000000000000000000000000000000000000000000000000600052603260045260246000fd5b90600052602060002090600a020190508060050160009054906101000a900473ffffffffffffffffffffffffffffffffffffffff1673ffffffffffffffffffffffffffffffffffffffff163373ffffffffffffffffffffffffffffffffffffffff16146121b0576040517ffc6403e800000000000000000000000000000000000000000000000000000000815260040160405180910390fd5b60038160050160146101000a81548160ff021916908360038111156121fe577f4e487b7100000000000000000000000000000000000000000000000000000000600052602160045260246000fd5b02179055508073__$9bab18f9566666dc186b5520eb0702d110$__6305d46a1d90916040518263ffffffff1660e01b815260040161223c9190614023565b60006040518083038186803b15801561225457600080fd5b505af4158015612268573d6000803e3d6000fd5b5050505060006122be8260070160109054906101000a90046fffffffffffffffffffffffffffffffff168360030160009054906101000a90046fffffffffffffffffffffffffffffffff164285600601546134de565b9050827f92717314c0b0f9d632e1d46a0b8437778ff9daee1db8ec295f2bc0b57c4bcaac60405160405180910390a261237d8260020160009054906101000a900473ffffffffffffffffffffffffffffffffffffffff168360050160009054906101000a900473ffffffffffffffffffffffffffffffffffffffff16838560070160109054906101000a90046fffffffffffffffffffffffffffffffff1661236691906141e6565b6fffffffffffffffffffffffffffffffff166131c1565b600082600101600c9054906101000a900473ffffffffffffffffffffffffffffffffffffffff1690508073ffffffffffffffffffffffffffffffffffffffff1663a9059cbb8460050160009054906101000a900473ffffffffffffffffffffffffffffffffffffffff168560070160009054906101000a90046fffffffffffffffffffffffffffffffff166040518363ffffffff1660e01b8152600401612425929190613f15565b602060405180830381600087803b15801561243f57600080fd5b505af1158015612453573d6000803e3d6000fd5b505050506040513d601f19601f820116820180604052508101906124779190613939565b5050505050565b6124866136d4565b60026001836124959190614335565b815481106124cc577f4e487b7100000000000000000000000000000000000000000000000000000000600052603260045260246000fd5b90600052602060002090600a0201604051806101c00160405290816000820160009054906101000a90046fffffffffffffffffffffffffffffffff166fffffffffffffffffffffffffffffffff166fffffffffffffffffffffffffffffffff1681526020016000820160109054906101000a90046fffffffffffffffffffffffffffffffff166fffffffffffffffffffffffffffffffff166fffffffffffffffffffffffffffffffff1681526020016001820160009054906101000a90046bffffffffffffffffffffffff166bffffffffffffffffffffffff166bffffffffffffffffffffffff16815260200160018201600c9054906101000a900473ffffffffffffffffffffffffffffffffffffffff1673ffffffffffffffffffffffffffffffffffffffff1673ffffffffffffffffffffffffffffffffffffffff1681526020016002820160009054906101000a900473ffffffffffffffffffffffffffffffffffffffff1673ffffffffffffffffffffffffffffffffffffffff1673ffffffffffffffffffffffffffffffffffffffff1681526020016003820160009054906101000a90046fffffffffffffffffffffffffffffffff166fffffffffffffffffffffffffffffffff166fffffffffffffffffffffffffffffffff1681526020016004820160009054906101000a900473ffffffffffffffffffffffffffffffffffffffff1673ffffffffffffffffffffffffffffffffffffffff1673ffffffffffffffffffffffffffffffffffffffff1681526020016005820160009054906101000a900473ffffffffffffffffffffffffffffffffffffffff1673ffffffffffffffffffffffffffffffffffffffff1673ffffffffffffffffffffffffffffffffffffffff1681526020016005820160149054906101000a900460ff1660038111156127a5577f4e487b7100000000000000000000000000000000000000000000000000000000600052602160045260246000fd5b60038111156127dd577f4e487b7100000000000000000000000000000000000000000000000000000000600052602160045260246000fd5b8152602001600682015481526020016007820160009054906101000a90046fffffffffffffffffffffffffffffffff166fffffffffffffffffffffffffffffffff166fffffffffffffffffffffffffffffffff1681526020016007820160109054906101000a90046fffffffffffffffffffffffffffffffff166fffffffffffffffffffffffffffffffff166fffffffffffffffffffffffffffffffff168152602001600882015481526020016009820154815250509050919050565b6128a26132bd565b600073ffffffffffffffffffffffffffffffffffffffff168173ffffffffffffffffffffffffffffffffffffffff161415612912576040517f08c379a000000000000000000000000000000000000000000000000000000000815260040161290990613f67565b60405180910390fd5b61291b81613367565b50565b600060026000541415612966576040517f08c379a000000000000000000000000000000000000000000000000000000000815260040161295d90613fe7565b60405180910390fd5b6002600081905550600061297c888542866134de565b90506000818961298c91906141e6565b9050600073ffffffffffffffffffffffffffffffffffffffff168773ffffffffffffffffffffffffffffffffffffffff161415612a1e57806fffffffffffffffffffffffffffffffff163414612a1957806040517fec7fbc5d000000000000000000000000000000000000000000000000000000008152600401612a109190614082565b60405180910390fd5b612a5a565b6000341115612a59576040517f0aebd0a100000000000000000000000000000000000000000000000000000000815260040160405180910390fd5b5b600460008773ffffffffffffffffffffffffffffffffffffffff1673ffffffffffffffffffffffffffffffffffffffff16815260200190815260200160002060009054906101000a900460ff16612add576040517fa361c61a00000000000000000000000000000000000000000000000000000000815260040160405180910390fd5b73__$68f0cd47664ad2a7a4ad3f283322e95943$__636d13eebf42866040518363ffffffff1660e01b8152600401612b16929190614125565b60006040518083038186803b158015612b2e57600080fd5b505af4158015612b42573d6000803e3d6000fd5b505050506000604051806101c001604052808c6fffffffffffffffffffffffffffffffff1681526020018b6fffffffffffffffffffffffffffffffff1681526020018a6bffffffffffffffffffffffff1681526020018873ffffffffffffffffffffffffffffffffffffffff1681526020018973ffffffffffffffffffffffffffffffffffffffff168152602001876fffffffffffffffffffffffffffffffff168152602001600073ffffffffffffffffffffffffffffffffffffffff1681526020013373ffffffffffffffffffffffffffffffffffffffff16815260200160006003811115612c5b577f4e487b7100000000000000000000000000000000000000000000000000000000600052602160045260246000fd5b81526020018681526020018c6fffffffffffffffffffffffffffffffff1681526020018b6fffffffffffffffffffffffffffffffff1681526020014281526020016000815250905060028190806001815401808255809150506001900390600052602060002090600a020160009091909190915060008201518160000160006101000a8154816fffffffffffffffffffffffffffffffff02191690836fffffffffffffffffffffffffffffffff16021790555060208201518160000160106101000a8154816fffffffffffffffffffffffffffffffff02191690836fffffffffffffffffffffffffffffffff16021790555060408201518160010160006101000a8154816bffffffffffffffffffffffff02191690836bffffffffffffffffffffffff160217905550606082015181600101600c6101000a81548173ffffffffffffffffffffffffffffffffffffffff021916908373ffffffffffffffffffffffffffffffffffffffff16021790555060808201518160020160006101000a81548173ffffffffffffffffffffffffffffffffffffffff021916908373ffffffffffffffffffffffffffffffffffffffff16021790555060a08201518160030160006101000a8154816fffffffffffffffffffffffffffffffff02191690836fffffffffffffffffffffffffffffffff16021790555060c08201518160040160006101000a81548173ffffffffffffffffffffffffffffffffffffffff021916908373ffffffffffffffffffffffffffffffffffffffff16021790555060e08201518160050160006101000a81548173ffffffffffffffffffffffffffffffffffffffff021916908373ffffffffffffffffffffffffffffffffffffffff1602179055506101008201518160050160146101000a81548160ff02191690836003811115612f31577f4e487b7100000000000000000000000000000000000000000000000000000000600052602160045260246000fd5b021790555061012082015181600601556101408201518160070160006101000a8154816fffffffffffffffffffffffffffffffff02191690836fffffffffffffffffffffffffffffffff1602179055506101608201518160070160106101000a8154816fffffffffffffffffffffffffffffffff02191690836fffffffffffffffffffffffffffffffff16021790555061018082015181600801556101a0820151816009015550503373ffffffffffffffffffffffffffffffffffffffff166002805490507fa42a102b7be732c6c110f2a200de7ae4a49832e42c61c6c194cf1c94fbc5042e60405160405180910390a3600073ffffffffffffffffffffffffffffffffffffffff168873ffffffffffffffffffffffffffffffffffffffff16146130ed5760008890508073ffffffffffffffffffffffffffffffffffffffff166323b872dd3330866040518463ffffffff1660e01b815260040161309893929190613ede565b602060405180830381600087803b1580156130b257600080fd5b505af11580156130c6573d6000803e3d6000fd5b505050506040513d601f19601f820116820180604052508101906130ea9190613939565b50505b60008b6fffffffffffffffffffffffffffffffff1611156131a3576000816060015190508073ffffffffffffffffffffffffffffffffffffffff166323b872dd33308f6040518463ffffffff1660e01b815260040161314e93929190613ede565b602060405180830381600087803b15801561316857600080fd5b505af115801561317c573d6000803e3d6000fd5b505050506040513d601f19601f820116820180604052508101906131a09190613939565b50505b60028054905093505050506001600081905550979650505050505050565b600073ffffffffffffffffffffffffffffffffffffffff168373ffffffffffffffffffffffffffffffffffffffff161461328e5760008390508073ffffffffffffffffffffffffffffffffffffffff1663a9059cbb84846040518363ffffffff1660e01b8152600401613235929190613f3e565b602060405180830381600087803b15801561324f57600080fd5b505af1158015613263573d6000803e3d6000fd5b505050506040513d601f19601f820116820180604052508101906132879190613939565b50506132b8565b6132b7818373ffffffffffffffffffffffffffffffffffffffff1661358890919063ffffffff16565b5b505050565b6132c561367c565b73ffffffffffffffffffffffffffffffffffffffff166132e3611490565b73ffffffffffffffffffffffffffffffffffffffff1614613339576040517f08c379a000000000000000000000000000000000000000000000000000000000815260040161333090613fc7565b60405180910390fd5b565b60008183613349919061425d565b905092915050565b6000818361335f919061422c565b905092915050565b6000600160009054906101000a900473ffffffffffffffffffffffffffffffffffffffff16905081600160006101000a81548173ffffffffffffffffffffffffffffffffffffffff021916908373ffffffffffffffffffffffffffffffffffffffff1602179055508173ffffffffffffffffffffffffffffffffffffffff168173ffffffffffffffffffffffffffffffffffffffff167f8be0079c531659141344cd1fd0a4f28419497f9722a3daafe3b4186f6b6457e060405160405180910390a35050565b6000816fffffffffffffffffffffffffffffffff1673__$5dc460cc747dc4210092f6da12cdb25a64$__632133e3b986866040518363ffffffff1660e01b815260040161347b9291906140c6565b60206040518083038186803b15801561349357600080fd5b505af41580156134a7573d6000803e3d6000fd5b505050506040513d601f19601f820116820180604052508101906134cb9190613b04565b6134d591906142a7565b90509392505050565b60008073__$68f0cd47664ad2a7a4ad3f283322e95943$__63dc00ece1858686610bb86040518563ffffffff1660e01b81526004016135209493929190614185565b60206040518083038186803b15801561353857600080fd5b505af415801561354c573d6000803e3d6000fd5b505050506040513d601f19601f820116820180604052508101906135709190613962565b905061357d86868361342d565b915050949350505050565b804710156135cb576040517f08c379a00000000000000000000000000000000000000000000000000000000081526004016135c290613fa7565b60405180910390fd5b60008273ffffffffffffffffffffffffffffffffffffffff16826040516135f190613eae565b60006040518083038185875af1925050503d806000811461362e576040519150601f19603f3d011682016040523d82523d6000602084013e613633565b606091505b5050905080613677576040517f08c379a000000000000000000000000000000000000000000000000000000000815260040161366e90613f87565b60405180910390fd5b505050565b600033905090565b50805460008255600202906000526020600020908101906136a5919061383b565b50565b604051806040016040528060006fffffffffffffffffffffffffffffffff168152602001600081525090565b604051806101c0016040528060006fffffffffffffffffffffffffffffffff16815260200160006fffffffffffffffffffffffffffffffff16815260200160006bffffffffffffffffffffffff168152602001600073ffffffffffffffffffffffffffffffffffffffff168152602001600073ffffffffffffffffffffffffffffffffffffffff16815260200160006fffffffffffffffffffffffffffffffff168152602001600073ffffffffffffffffffffffffffffffffffffffff168152602001600073ffffffffffffffffffffffffffffffffffffffff168152602001600060038111156137ee577f4e487b7100000000000000000000000000000000000000000000000000000000600052602160045260246000fd5b81526020016000815260200160006fffffffffffffffffffffffffffffffff16815260200160006fffffffffffffffffffffffffffffffff16815260200160008152602001600081525090565b5b8082111561387957600080820160006101000a8154906fffffffffffffffffffffffffffffffff021916905560018201600090555060020161383c565b5090565b60008135905061388c81614622565b92915050565b6000815190506138a181614639565b92915050565b6000813590506138b681614650565b92915050565b6000815190506138cb81614650565b92915050565b6000813590506138e081614667565b92915050565b6000815190506138f581614667565b92915050565b60008135905061390a8161467e565b92915050565b60006020828403121561392257600080fd5b60006139308482850161387d565b91505092915050565b60006020828403121561394b57600080fd5b600061395984828501613892565b91505092915050565b60006020828403121561397457600080fd5b6000613982848285016138bc565b91505092915050565b6000806000606084860312156139a057600080fd5b60006139ae868287016138a7565b93505060206139bf868287016138a7565b92505060406139d0868287016138a7565b9150509250925092565b600080600080608085870312156139f057600080fd5b60006139fe878288016138a7565b9450506020613a0f878288016138a7565b9350506040613a20878288016138d1565b9250506060613a31878288016138d1565b91505092959194509250565b600080600080600080600060e0888a031215613a5857600080fd5b6000613a668a828b016138a7565b9750506020613a778a828b016138a7565b9650506040613a888a828b016138fb565b9550506060613a998a828b0161387d565b9450506080613aaa8a828b0161387d565b93505060a0613abb8a828b016138a7565b92505060c0613acc8a828b016138d1565b91505092959891949750929550565b600060208284031215613aed57600080fd5b6000613afb848285016138d1565b91505092915050565b600060208284031215613b1657600080fd5b6000613b24848285016138e6565b91505092915050565b60008060408385031215613b4057600080fd5b6000613b4e858286016138d1565b9250506020613b5f8582860161387d565b9150509250929050565b60008060408385031215613b7c57600080fd5b6000613b8a858286016138d1565b9250506020613b9b858286016138a7565b9150509250929050565b60008060408385031215613bb857600080fd5b6000613bc6858286016138d1565b9250506020613bd7858286016138d1565b9150509250929050565b613bea81614369565b82525050565b613bf981614369565b82525050565b613c08816143f8565b82525050565b6000613c1b6026836141d5565b9150613c26826144f2565b604082019050919050565b6000613c3e603a836141d5565b9150613c4982614541565b604082019050919050565b6000613c61601d836141d5565b9150613c6c82614590565b602082019050919050565b6000613c846020836141d5565b9150613c8f826145b9565b602082019050919050565b6000613ca76000836141ca565b9150613cb2826145e2565b600082019050919050565b6000613cca601f836141d5565b9150613cd5826145e5565b602082019050919050565b6101c082016000820151613cf76000850182613e36565b506020820151613d0a6020850182613e36565b506040820151613d1d6040850182613e9f565b506060820151613d306060850182613be1565b506080820151613d436080850182613be1565b5060a0820151613d5660a0850182613e36565b5060c0820151613d6960c0850182613be1565b5060e0820151613d7c60e0850182613be1565b50610100820151613d91610100850182613bff565b50610120820151613da6610120850182613e72565b50610140820151613dbb610140850182613e36565b50610160820151613dd0610160850182613e36565b50610180820151613de5610180850182613e72565b506101a0820151613dfa6101a0850182613e72565b50505050565b8082525050565b604082016000820151613e1d6000850182613e36565b506020820151613e306020850182613e72565b50505050565b613e3f8161439a565b82525050565b613e4e8161439a565b82525050565b613e5d8161440a565b82525050565b613e6c8161440a565b82525050565b613e7b816143d6565b82525050565b613e8a816143d6565b82525050565b613e99816143d6565b82525050565b613ea8816143e0565b82525050565b6000613eb982613c9a565b9150819050919050565b6000602082019050613ed86000830184613bf0565b92915050565b6000606082019050613ef36000830186613bf0565b613f006020830185613bf0565b613f0d6040830184613e54565b949350505050565b6000604082019050613f2a6000830185613bf0565b613f376020830184613e54565b9392505050565b6000604082019050613f536000830185613bf0565b613f606020830184613e81565b9392505050565b60006020820190508181036000830152613f8081613c0e565b9050919050565b60006020820190508181036000830152613fa081613c31565b9050919050565b60006020820190508181036000830152613fc081613c54565b9050919050565b60006020820190508181036000830152613fe081613c77565b9050919050565b6000602082019050818103600083015261400081613cbd565b9050919050565b60006101c08201905061401d6000830184613ce0565b92915050565b60006020820190506140386000830184613e00565b92915050565b60006040820190506140536000830185613e00565b6140606020830184613e90565b9392505050565b600060408201905061407c6000830184613e07565b92915050565b60006020820190506140976000830184613e45565b92915050565b60006040820190506140b26000830185613e45565b6140bf6020830184613e45565b9392505050565b60006040820190506140db6000830185613e63565b6140e86020830184613e63565b9392505050565b60006020820190506141046000830184613e90565b92915050565b600060208201905061411f6000830184613e81565b92915050565b600060408201905061413a6000830185613e90565b6141476020830184613e90565b9392505050565b60006060820190506141636000830186613e90565b6141706020830185613e90565b61417d6040830184613e90565b949350505050565b600060808201905061419a6000830187613e90565b6141a76020830186613e90565b6141b46040830185613e90565b6141c16060830184613e90565b95945050505050565b600081905092915050565b600082825260208201905092915050565b60006141f18261439a565b91506141fc8361439a565b9250826fffffffffffffffffffffffffffffffff0382111561422157614220614465565b5b828201905092915050565b60006142378261439a565b91506142428361439a565b92508261425257614251614494565b5b828204905092915050565b60006142688261439a565b91506142738361439a565b9250816fffffffffffffffffffffffffffffffff048311821515161561429c5761429b614465565b5b828202905092915050565b60006142b2826143d6565b91506142bd836143d6565b9250817fffffffffffffffffffffffffffffffffffffffffffffffffffffffffffffffff04831182151516156142f6576142f5614465565b5b828202905092915050565b600061430c8261439a565b91506143178361439a565b92508282101561432a57614329614465565b5b828203905092915050565b6000614340826143d6565b915061434b836143d6565b92508282101561435e5761435d614465565b5b828203905092915050565b6000614374826143b6565b9050919050565b60008115159050919050565b60008190506143958261460e565b919050565b60006fffffffffffffffffffffffffffffffff82169050919050565b600073ffffffffffffffffffffffffffffffffffffffff82169050919050565b6000819050919050565b60006bffffffffffffffffffffffff82169050919050565b600061440382614387565b9050919050565b60006144158261439a565b9050919050565b6000614427826143d6565b91507fffffffffffffffffffffffffffffffffffffffffffffffffffffffffffffffff82141561445a57614459614465565b5b600182019050919050565b7f4e487b7100000000000000000000000000000000000000000000000000000000600052601160045260246000fd5b7f4e487b7100000000000000000000000000000000000000000000000000000000600052601260045260246000fd5b7f4e487b7100000000000000000000000000000000000000000000000000000000600052602160045260246000fd5b7f4f776e61626c653a206e6577206f776e657220697320746865207a65726f206160008201527f6464726573730000000000000000000000000000000000000000000000000000602082015250565b7f416464726573733a20756e61626c6520746f2073656e642076616c75652c207260008201527f6563697069656e74206d61792068617665207265766572746564000000000000602082015250565b7f416464726573733a20696e73756666696369656e742062616c616e6365000000600082015250565b7f4f776e61626c653a2063616c6c6572206973206e6f7420746865206f776e6572600082015250565b50565b7f5265656e7472616e637947756172643a207265656e7472616e742063616c6c00600082015250565b6004811061461f5761461e6144c3565b5b50565b61462b81614369565b811461463657600080fd5b50565b6146428161437b565b811461464d57600080fd5b50565b6146598161439a565b811461466457600080fd5b50565b614670816143d6565b811461467b57600080fd5b50565b614687816143e0565b811461469257600080fd5b5056fea264697066735822122034db2dc6de3b219f3d17d992a0447add063bd75771453de1131236bdc955f9d564736f6c63430008040033",
  "linkReferences": {
    "contracts/BountyUtils.sol": {
      "BountyUtils": [
        {
          "length": 20,
          "start": 2194
        },
        {
          "length": 20,
          "start": 3024
        },
        {
          "length": 20,
          "start": 5824
        },
        {
          "length": 20,
          "start": 8996
        }
      ]
    },
    "contracts/DeadlineUtils.sol": {
      "DeadlineUtils": [
        {
          "length": 20,
          "start": 4873
        },
        {
          "length": 20,
          "start": 6174
        },
        {
          "length": 20,
          "start": 6977
        },
        {
          "length": 20,
          "start": 11261
        },
        {
          "length": 20,
          "start": 13825
        }
      ]
    },
    "contracts/MathUtils.sol": {
      "MathUtils": [
        {
          "length": 20,
          "start": 13666
        }
      ]
    }
  },
  "deployedLinkReferences": {
    "contracts/BountyUtils.sol": {
      "BountyUtils": [
        {
          "length": 20,
          "start": 1908
        },
        {
          "length": 20,
          "start": 2738
        },
        {
          "length": 20,
          "start": 5538
        },
        {
          "length": 20,
          "start": 8710
        }
      ]
    },
    "contracts/DeadlineUtils.sol": {
      "DeadlineUtils": [
        {
          "length": 20,
          "start": 4587
        },
        {
          "length": 20,
          "start": 5888
        },
        {
          "length": 20,
          "start": 6691
        },
        {
          "length": 20,
          "start": 10975
        },
        {
          "length": 20,
          "start": 13539
        }
      ]
    },
    "contracts/MathUtils.sol": {
      "MathUtils": [
        {
          "length": 20,
          "start": 13380
        }
      ]
    }
  }
}