{
  "_format": "hh-sol-artifact-1",
  "contractName": "WorkFi",
  "sourceName": "contracts/WorkFi.sol",
  "abi": [
    {
      "inputs": [
        {
          "internalType": "address",
          "name": "_stablecoin",
          "type": "address"
        }
      ],
      "stateMutability": "nonpayable",
      "type": "constructor"
    },
    {
      "inputs": [],
      "name": "BountyDoesNotExist",
      "type": "error"
    },
    {
      "inputs": [],
      "name": "BountyIsCompleted",
      "type": "error"
    },
    {
      "inputs": [],
      "name": "BountyIsNotCompleted",
      "type": "error"
    },
    {
      "inputs": [],
      "name": "DeadlineExpired",
      "type": "error"
    },
    {
      "inputs": [],
      "name": "NotAnInvestorOrWorker",
      "type": "error"
    },
    {
      "inputs": [],
      "name": "NotRecruiter",
      "type": "error"
    },
    {
      "inputs": [],
      "name": "RecruiterCannotInvest",
      "type": "error"
    },
    {
      "inputs": [],
      "name": "TokenAddressMissing",
      "type": "error"
    },
    {
      "inputs": [],
      "name": "WorkerCannotBeZero",
      "type": "error"
    },
    {
      "inputs": [],
      "name": "WorkerCannotInvest",
      "type": "error"
    },
    {
      "inputs": [],
      "name": "WorkerHasBeenPaid",
      "type": "error"
    },
    {
      "anonymous": false,
      "inputs": [
        {
          "indexed": true,
          "internalType": "uint256",
          "name": "bountyId",
          "type": "uint256"
        },
        {
          "indexed": true,
          "internalType": "address",
          "name": "recruiter",
          "type": "address"
        }
      ],
      "name": "BountyCreated",
      "type": "event"
    },
    {
      "anonymous": false,
      "inputs": [
        {
          "indexed": true,
          "internalType": "uint256",
          "name": "bountyId",
          "type": "uint256"
        },
        {
          "indexed": true,
          "internalType": "address",
          "name": "investor",
          "type": "address"
        },
        {
          "indexed": false,
          "internalType": "uint256",
          "name": "amount",
          "type": "uint256"
        }
      ],
      "name": "Invested",
      "type": "event"
    },
    {
      "anonymous": false,
      "inputs": [
        {
          "indexed": true,
          "internalType": "uint256",
          "name": "bountyId",
          "type": "uint256"
        },
        {
          "indexed": true,
          "internalType": "address",
          "name": "worker",
          "type": "address"
        }
      ],
      "name": "WorkerAccepted",
      "type": "event"
    },
    {
      "inputs": [
        {
          "internalType": "uint256",
          "name": "bountyId",
          "type": "uint256"
        }
      ],
      "name": "acceptPayment",
      "outputs": [],
      "stateMutability": "nonpayable",
      "type": "function"
    },
    {
      "inputs": [
        {
          "internalType": "uint256",
          "name": "bountyId",
          "type": "uint256"
        },
        {
          "internalType": "address",
          "name": "worker",
          "type": "address"
        }
      ],
      "name": "acceptWorker",
      "outputs": [],
      "stateMutability": "nonpayable",
      "type": "function"
    },
    {
      "inputs": [
        {
          "internalType": "uint128",
          "name": "stablePay",
          "type": "uint128"
        },
        {
          "internalType": "uint128",
          "name": "nativePay",
          "type": "uint128"
        },
        {
          "internalType": "uint96",
          "name": "exchangeRate",
          "type": "uint96"
        },
        {
          "internalType": "address",
          "name": "nativeToken",
          "type": "address"
        },
        {
          "internalType": "uint256",
          "name": "deadline",
          "type": "uint256"
        }
      ],
      "name": "createBounty",
      "outputs": [
        {
          "internalType": "uint256",
          "name": "",
          "type": "uint256"
        }
      ],
      "stateMutability": "nonpayable",
      "type": "function"
    },
    {
      "inputs": [
        {
          "internalType": "uint256",
          "name": "bountyId",
          "type": "uint256"
        }
      ],
      "name": "getBounty",
      "outputs": [
        {
          "components": [
            {
              "internalType": "uint128",
              "name": "stablePay",
              "type": "uint128"
            },
            {
              "internalType": "uint128",
              "name": "nativePay",
              "type": "uint128"
            },
            {
              "internalType": "uint96",
              "name": "exchangeRate",
              "type": "uint96"
            },
            {
              "internalType": "address",
              "name": "nativeToken",
              "type": "address"
            },
            {
              "internalType": "address",
              "name": "worker",
              "type": "address"
            },
            {
              "internalType": "address",
              "name": "recruiter",
              "type": "address"
            },
            {
              "internalType": "bool",
              "name": "isCompleted",
              "type": "bool"
            },
            {
              "internalType": "uint256",
              "name": "deadline",
              "type": "uint256"
            },
            {
              "internalType": "bool",
              "name": "hasWorkerBeenPaid",
              "type": "bool"
            }
          ],
          "internalType": "struct IWorkFi.BountyMetadata",
          "name": "",
          "type": "tuple"
        }
      ],
      "stateMutability": "view",
      "type": "function"
    },
    {
      "inputs": [
        {
          "internalType": "uint256",
          "name": "bountyId",
          "type": "uint256"
        }
      ],
      "name": "getInvestment",
      "outputs": [
        {
          "internalType": "uint256",
          "name": "",
          "type": "uint256"
        }
      ],
      "stateMutability": "view",
      "type": "function"
    },
    {
      "inputs": [
        {
          "internalType": "uint256",
          "name": "bountyId",
          "type": "uint256"
        },
        {
          "internalType": "uint128",
          "name": "stableAmount",
          "type": "uint128"
        }
      ],
      "name": "invest",
      "outputs": [],
      "stateMutability": "nonpayable",
      "type": "function"
    },
    {
      "inputs": [
        {
          "internalType": "uint256",
          "name": "bountyId",
          "type": "uint256"
        }
      ],
      "name": "markBountyAsCompleted",
      "outputs": [],
      "stateMutability": "nonpayable",
      "type": "function"
    }
  ],
  "bytecode": "0x60806040523480156200001157600080fd5b5060405162001dda38038062001dda833981810160405281019062000037919062000096565b80600260006101000a81548173ffffffffffffffffffffffffffffffffffffffff021916908373ffffffffffffffffffffffffffffffffffffffff1602179055505062000110565b6000815190506200009081620000f6565b92915050565b600060208284031215620000a957600080fd5b6000620000b9848285016200007f565b91505092915050565b6000620000cf82620000d6565b9050919050565b600073ffffffffffffffffffffffffffffffffffffffff82169050919050565b6200010181620000c2565b81146200010d57600080fd5b50565b611cba80620001206000396000f3fe608060405234801561001057600080fd5b506004361061007d5760003560e01c8063bf846e041161005b578063bf846e04146100ea578063d4d3697c14610106578063d8b8b81c14610122578063ee8c4bbf146101525761007d565b806322ae634f1461008257806358279718146100b257806363dd5c1f146100ce575b600080fd5b61009c6004803603810190610097919061182b565b610182565b6040516100a99190611a69565b60405180910390f35b6100cc60048036038101906100c79190611890565b61021a565b005b6100e860048036038101906100e39190611854565b610725565b005b61010460048036038101906100ff919061182b565b610985565b005b610120600480360381019061011b919061182b565b610c4a565b005b61013c600480360381019061013791906117b4565b610e74565b6040516101499190611a69565b60405180910390f35b61016c6004803603810190610167919061182b565b611378565b6040516101799190611a32565b60405180910390f35b600080805490508211156101c2576040517f8150e7de00000000000000000000000000000000000000000000000000000000815260040160405180910390fd5b6001600083815260200190815260200160002060003373ffffffffffffffffffffffffffffffffffffffff1673ffffffffffffffffffffffffffffffffffffffff168152602001908152602001600020549050919050565b600080549050821115610259576040517f8150e7de00000000000000000000000000000000000000000000000000000000815260040160405180910390fd5b60006001836102689190611b20565b8154811061029f577f4e487b7100000000000000000000000000000000000000000000000000000000600052603260045260246000fd5b906000526020600020906006020160030160149054906101000a900460ff16156102f5576040517fddf1ecfc00000000000000000000000000000000000000000000000000000000815260040160405180910390fd5b6102fe826115fb565b15610335576040517f1ab7da6b00000000000000000000000000000000000000000000000000000000815260040160405180910390fd5b60006001836103449190611b20565b8154811061037b577f4e487b7100000000000000000000000000000000000000000000000000000000600052603260045260246000fd5b906000526020600020906006020160020160009054906101000a900473ffffffffffffffffffffffffffffffffffffffff1673ffffffffffffffffffffffffffffffffffffffff163373ffffffffffffffffffffffffffffffffffffffff161415610412576040517f73c37c2800000000000000000000000000000000000000000000000000000000815260040160405180910390fd5b60006001836104219190611b20565b81548110610458577f4e487b7100000000000000000000000000000000000000000000000000000000600052603260045260246000fd5b906000526020600020906006020160030160009054906101000a900473ffffffffffffffffffffffffffffffffffffffff1673ffffffffffffffffffffffffffffffffffffffff163373ffffffffffffffffffffffffffffffffffffffff1614156104ef576040517f7b42ad9c00000000000000000000000000000000000000000000000000000000815260040160405180910390fd5b8060006001846104ff9190611b20565b81548110610536577f4e487b7100000000000000000000000000000000000000000000000000000000600052603260045260246000fd5b906000526020600020906006020160000160008282829054906101000a90046fffffffffffffffffffffffffffffffff166105719190611a84565b92506101000a8154816fffffffffffffffffffffffffffffffff02191690836fffffffffffffffffffffffffffffffff160217905550806fffffffffffffffffffffffffffffffff166001600084815260200190815260200160002060003373ffffffffffffffffffffffffffffffffffffffff1673ffffffffffffffffffffffffffffffffffffffff16815260200190815260200160002060008282546106199190611aca565b925050819055503373ffffffffffffffffffffffffffffffffffffffff16827f85e040b1b514c2f60555b8b931138cd55218c914496a8fcf822858bd240df422836040516106679190611a4e565b60405180910390a3600260009054906101000a900473ffffffffffffffffffffffffffffffffffffffff1673ffffffffffffffffffffffffffffffffffffffff166323b872dd3330846040518463ffffffff1660e01b81526004016106ce939291906119fb565b602060405180830381600087803b1580156106e857600080fd5b505af11580156106fc573d6000803e3d6000fd5b505050506040513d601f19601f82011682018060405250810190610720919061178b565b505050565b600080549050821115610764576040517f8150e7de00000000000000000000000000000000000000000000000000000000815260040160405180910390fd5b600073ffffffffffffffffffffffffffffffffffffffff168173ffffffffffffffffffffffffffffffffffffffff1614156107cb576040517f2bc20eca00000000000000000000000000000000000000000000000000000000815260040160405180910390fd5b60006001836107da9190611b20565b81548110610811577f4e487b7100000000000000000000000000000000000000000000000000000000600052603260045260246000fd5b906000526020600020906006020160030160149054906101000a900460ff1615610867576040517fddf1ecfc00000000000000000000000000000000000000000000000000000000815260040160405180910390fd5b610870826115fb565b156108a7576040517f1ab7da6b00000000000000000000000000000000000000000000000000000000815260040160405180910390fd5b8060006001846108b79190611b20565b815481106108ee577f4e487b7100000000000000000000000000000000000000000000000000000000600052603260045260246000fd5b906000526020600020906006020160020160006101000a81548173ffffffffffffffffffffffffffffffffffffffff021916908373ffffffffffffffffffffffffffffffffffffffff1602179055508073ffffffffffffffffffffffffffffffffffffffff16827f1d0ba82b48138c804a042cce564f9f9c5a1a903576dda8d1f57545b454142adb60405160405180910390a35050565b6000805490508111156109c4576040517f8150e7de00000000000000000000000000000000000000000000000000000000815260040160405180910390fd5b6000806001836109d49190611b20565b81548110610a0b577f4e487b7100000000000000000000000000000000000000000000000000000000600052603260045260246000fd5b906000526020600020906006020190508060030160149054906101000a900460ff16610a63576040517f2ea8067d00000000000000000000000000000000000000000000000000000000815260040160405180910390fd5b8060020160009054906101000a900473ffffffffffffffffffffffffffffffffffffffff1673ffffffffffffffffffffffffffffffffffffffff163373ffffffffffffffffffffffffffffffffffffffff161415610b09578060050160009054906101000a900460ff1615610b04576040517f399acfc500000000000000000000000000000000000000000000000000000000815260040160405180910390fd5b610c46565b60006001600084815260200190815260200160002060003373ffffffffffffffffffffffffffffffffffffffff1673ffffffffffffffffffffffffffffffffffffffff168152602001908152602001600020541115610c135760006001600084815260200190815260200160002060003373ffffffffffffffffffffffffffffffffffffffff1673ffffffffffffffffffffffffffffffffffffffff16815260200190815260200160002054905060006001600085815260200190815260200160002060003373ffffffffffffffffffffffffffffffffffffffff1673ffffffffffffffffffffffffffffffffffffffff1681526020019081526020016000208190555050610c45565b6040517fe30c5b0b00000000000000000000000000000000000000000000000000000000815260040160405180910390fd5b5b5050565b600080549050811115610c89576040517f8150e7de00000000000000000000000000000000000000000000000000000000815260040160405180910390fd5b6000600182610c989190611b20565b81548110610ccf577f4e487b7100000000000000000000000000000000000000000000000000000000600052603260045260246000fd5b906000526020600020906006020160030160149054906101000a900460ff1615610d25576040517fddf1ecfc00000000000000000000000000000000000000000000000000000000815260040160405180910390fd5b6000600182610d349190611b20565b81548110610d6b577f4e487b7100000000000000000000000000000000000000000000000000000000600052603260045260246000fd5b906000526020600020906006020160030160009054906101000a900473ffffffffffffffffffffffffffffffffffffffff1673ffffffffffffffffffffffffffffffffffffffff163373ffffffffffffffffffffffffffffffffffffffff1614610e01576040517ffc6403e800000000000000000000000000000000000000000000000000000000815260040160405180910390fd5b60016000600183610e129190611b20565b81548110610e49577f4e487b7100000000000000000000000000000000000000000000000000000000600052603260045260246000fd5b906000526020600020906006020160030160146101000a81548160ff02191690831515021790555050565b600080604051806101200160405280886fffffffffffffffffffffffffffffffff168152602001876fffffffffffffffffffffffffffffffff168152602001866bffffffffffffffffffffffff1681526020018573ffffffffffffffffffffffffffffffffffffffff168152602001600073ffffffffffffffffffffffffffffffffffffffff1681526020013373ffffffffffffffffffffffffffffffffffffffff168152602001600015158152602001848152602001600015158152509050600081908060018154018082558091505060019003906000526020600020906006020160009091909190915060008201518160000160006101000a8154816fffffffffffffffffffffffffffffffff02191690836fffffffffffffffffffffffffffffffff16021790555060208201518160000160106101000a8154816fffffffffffffffffffffffffffffffff02191690836fffffffffffffffffffffffffffffffff16021790555060408201518160010160006101000a8154816bffffffffffffffffffffffff02191690836bffffffffffffffffffffffff160217905550606082015181600101600c6101000a81548173ffffffffffffffffffffffffffffffffffffffff021916908373ffffffffffffffffffffffffffffffffffffffff16021790555060808201518160020160006101000a81548173ffffffffffffffffffffffffffffffffffffffff021916908373ffffffffffffffffffffffffffffffffffffffff16021790555060a08201518160030160006101000a81548173ffffffffffffffffffffffffffffffffffffffff021916908373ffffffffffffffffffffffffffffffffffffffff16021790555060c08201518160030160146101000a81548160ff02191690831515021790555060e082015181600401556101008201518160050160006101000a81548160ff02191690831515021790555050503373ffffffffffffffffffffffffffffffffffffffff166000805490507fa42a102b7be732c6c110f2a200de7ae4a49832e42c61c6c194cf1c94fbc5042e60405160405180910390a3600073ffffffffffffffffffffffffffffffffffffffff168473ffffffffffffffffffffffffffffffffffffffff1614611298576000866fffffffffffffffffffffffffffffffff161415611201576040517f9a8ccd4a00000000000000000000000000000000000000000000000000000000815260040160405180910390fd5b60008490508073ffffffffffffffffffffffffffffffffffffffff166323b872dd33308a6040518463ffffffff1660e01b8152600401611243939291906119fb565b602060405180830381600087803b15801561125d57600080fd5b505af1158015611271573d6000803e3d6000fd5b505050506040513d601f19601f82011682018060405250810190611295919061178b565b50505b6000876fffffffffffffffffffffffffffffffff16111561136657600260009054906101000a900473ffffffffffffffffffffffffffffffffffffffff1673ffffffffffffffffffffffffffffffffffffffff166323b872dd33308a6040518463ffffffff1660e01b8152600401611312939291906119fb565b602060405180830381600087803b15801561132c57600080fd5b505af1158015611340573d6000803e3d6000fd5b505050506040513d601f19601f82011682018060405250810190611364919061178b565b505b60008054905091505095945050505050565b61138061165e565b600060018361138f9190611b20565b815481106113c6577f4e487b7100000000000000000000000000000000000000000000000000000000600052603260045260246000fd5b9060005260206000209060060201604051806101200160405290816000820160009054906101000a90046fffffffffffffffffffffffffffffffff166fffffffffffffffffffffffffffffffff166fffffffffffffffffffffffffffffffff1681526020016000820160109054906101000a90046fffffffffffffffffffffffffffffffff166fffffffffffffffffffffffffffffffff166fffffffffffffffffffffffffffffffff1681526020016001820160009054906101000a90046bffffffffffffffffffffffff166bffffffffffffffffffffffff166bffffffffffffffffffffffff16815260200160018201600c9054906101000a900473ffffffffffffffffffffffffffffffffffffffff1673ffffffffffffffffffffffffffffffffffffffff1673ffffffffffffffffffffffffffffffffffffffff1681526020016002820160009054906101000a900473ffffffffffffffffffffffffffffffffffffffff1673ffffffffffffffffffffffffffffffffffffffff1673ffffffffffffffffffffffffffffffffffffffff1681526020016003820160009054906101000a900473ffffffffffffffffffffffffffffffffffffffff1673ffffffffffffffffffffffffffffffffffffffff1673ffffffffffffffffffffffffffffffffffffffff1681526020016003820160149054906101000a900460ff16151515158152602001600482015481526020016005820160009054906101000a900460ff1615151515815250509050919050565b600042600060018461160d9190611b20565b81548110611644577f4e487b7100000000000000000000000000000000000000000000000000000000600052603260045260246000fd5b906000526020600020906006020160040154109050919050565b60405180610120016040528060006fffffffffffffffffffffffffffffffff16815260200160006fffffffffffffffffffffffffffffffff16815260200160006bffffffffffffffffffffffff168152602001600073ffffffffffffffffffffffffffffffffffffffff168152602001600073ffffffffffffffffffffffffffffffffffffffff168152602001600073ffffffffffffffffffffffffffffffffffffffff168152602001600015158152602001600081526020016000151581525090565b60008135905061173181611c11565b92915050565b60008151905061174681611c28565b92915050565b60008135905061175b81611c3f565b92915050565b60008135905061177081611c56565b92915050565b60008135905061178581611c6d565b92915050565b60006020828403121561179d57600080fd5b60006117ab84828501611737565b91505092915050565b600080600080600060a086880312156117cc57600080fd5b60006117da8882890161174c565b95505060206117eb8882890161174c565b94505060406117fc88828901611776565b935050606061180d88828901611722565b925050608061181e88828901611761565b9150509295509295909350565b60006020828403121561183d57600080fd5b600061184b84828501611761565b91505092915050565b6000806040838503121561186757600080fd5b600061187585828601611761565b925050602061188685828601611722565b9150509250929050565b600080604083850312156118a357600080fd5b60006118b185828601611761565b92505060206118c28582860161174c565b9150509250929050565b6118d581611b54565b82525050565b6118e481611b54565b82525050565b6118f381611b66565b82525050565b6101208201600082015161191060008501826119b0565b50602082015161192360208501826119b0565b50604082015161193660408501826119ec565b50606082015161194960608501826118cc565b50608082015161195c60808501826118cc565b5060a082015161196f60a08501826118cc565b5060c082015161198260c08501826118ea565b5060e082015161199560e08501826119ce565b506101008201516119aa6101008501826118ea565b50505050565b6119b981611b72565b82525050565b6119c881611bd0565b82525050565b6119d781611bae565b82525050565b6119e681611bae565b82525050565b6119f581611bb8565b82525050565b6000606082019050611a1060008301866118db565b611a1d60208301856118db565b611a2a60408301846119bf565b949350505050565b600061012082019050611a4860008301846118f9565b92915050565b6000602082019050611a6360008301846119bf565b92915050565b6000602082019050611a7e60008301846119dd565b92915050565b6000611a8f82611b72565b9150611a9a83611b72565b9250826fffffffffffffffffffffffffffffffff03821115611abf57611abe611be2565b5b828201905092915050565b6000611ad582611bae565b9150611ae083611bae565b9250827fffffffffffffffffffffffffffffffffffffffffffffffffffffffffffffffff03821115611b1557611b14611be2565b5b828201905092915050565b6000611b2b82611bae565b9150611b3683611bae565b925082821015611b4957611b48611be2565b5b828203905092915050565b6000611b5f82611b8e565b9050919050565b60008115159050919050565b60006fffffffffffffffffffffffffffffffff82169050919050565b600073ffffffffffffffffffffffffffffffffffffffff82169050919050565b6000819050919050565b60006bffffffffffffffffffffffff82169050919050565b6000611bdb82611b72565b9050919050565b7f4e487b7100000000000000000000000000000000000000000000000000000000600052601160045260246000fd5b611c1a81611b54565b8114611c2557600080fd5b50565b611c3181611b66565b8114611c3c57600080fd5b50565b611c4881611b72565b8114611c5357600080fd5b50565b611c5f81611bae565b8114611c6a57600080fd5b50565b611c7681611bb8565b8114611c8157600080fd5b5056fea264697066735822122056aa550f478f2d8784215fb536317cc3f912b7d618449570068f2d5da7eda08e64736f6c63430008040033",
  "linkReferences": {},
  "deployedLinkReferences": {}
}