{
  "_format": "hh-sol-artifact-1",
  "contractName": "WorkFi",
  "sourceName": "contracts/WorkFi.sol",
  "abi": [
    {
      "inputs": [],
      "name": "AWorkerWasAlreadyAccepted",
      "type": "error"
    },
    {
      "inputs": [],
      "name": "BountyDoesNotExist",
      "type": "error"
    },
    {
      "inputs": [],
      "name": "BountyIsCompleted",
      "type": "error"
    },
    {
      "inputs": [],
      "name": "BountyIsNotCompleted",
      "type": "error"
    },
    {
      "inputs": [],
      "name": "DeadlineExpired",
      "type": "error"
    },
    {
      "inputs": [],
      "name": "NotAWhitelistedStablecoin",
      "type": "error"
    },
    {
      "inputs": [],
      "name": "NotAnInvestorOrWorker",
      "type": "error"
    },
    {
      "inputs": [],
      "name": "NotRecruiter",
      "type": "error"
    },
    {
      "inputs": [],
      "name": "RecruiterCannotInvest",
      "type": "error"
    },
    {
      "inputs": [],
      "name": "ValueMustBeEqualToNativePayIfPayingWithEth",
      "type": "error"
    },
    {
      "inputs": [],
      "name": "ValueShouldBeZeroIfNotPayingWithEth",
      "type": "error"
    },
    {
      "inputs": [],
      "name": "WorkerCannotBeZero",
      "type": "error"
    },
    {
      "inputs": [],
      "name": "WorkerCannotInvest",
      "type": "error"
    },
    {
      "inputs": [],
      "name": "WorkerHasBeenPaid",
      "type": "error"
    },
    {
      "anonymous": false,
      "inputs": [
        {
          "indexed": true,
          "internalType": "uint256",
          "name": "bountyId",
          "type": "uint256"
        },
        {
          "indexed": true,
          "internalType": "address",
          "name": "recruiter",
          "type": "address"
        }
      ],
      "name": "BountyCreated",
      "type": "event"
    },
    {
      "anonymous": false,
      "inputs": [
        {
          "indexed": true,
          "internalType": "uint256",
          "name": "bountyId",
          "type": "uint256"
        },
        {
          "indexed": true,
          "internalType": "address",
          "name": "investor",
          "type": "address"
        },
        {
          "indexed": false,
          "internalType": "uint256",
          "name": "amount",
          "type": "uint256"
        }
      ],
      "name": "Invested",
      "type": "event"
    },
    {
      "anonymous": false,
      "inputs": [
        {
          "indexed": true,
          "internalType": "address",
          "name": "previousOwner",
          "type": "address"
        },
        {
          "indexed": true,
          "internalType": "address",
          "name": "newOwner",
          "type": "address"
        }
      ],
      "name": "OwnershipTransferred",
      "type": "event"
    },
    {
      "anonymous": false,
      "inputs": [
        {
          "indexed": true,
          "internalType": "address",
          "name": "stablecoin",
          "type": "address"
        }
      ],
      "name": "StablecoinAddedToWhitelist",
      "type": "event"
    },
    {
      "anonymous": false,
      "inputs": [
        {
          "indexed": true,
          "internalType": "address",
          "name": "stablecoin",
          "type": "address"
        }
      ],
      "name": "StablecoinRemovedFromWhitelist",
      "type": "event"
    },
    {
      "anonymous": false,
      "inputs": [
        {
          "indexed": true,
          "internalType": "uint256",
          "name": "bountyId",
          "type": "uint256"
        },
        {
          "indexed": true,
          "internalType": "address",
          "name": "worker",
          "type": "address"
        }
      ],
      "name": "WorkerAccepted",
      "type": "event"
    },
    {
      "inputs": [
        {
          "internalType": "uint256",
          "name": "bountyId",
          "type": "uint256"
        }
      ],
      "name": "acceptPayment",
      "outputs": [],
      "stateMutability": "nonpayable",
      "type": "function"
    },
    {
      "inputs": [
        {
          "internalType": "uint256",
          "name": "bountyId",
          "type": "uint256"
        },
        {
          "internalType": "address",
          "name": "worker",
          "type": "address"
        }
      ],
      "name": "acceptWorker",
      "outputs": [],
      "stateMutability": "nonpayable",
      "type": "function"
    },
    {
      "inputs": [
        {
          "internalType": "address",
          "name": "stablecoin",
          "type": "address"
        }
      ],
      "name": "addStablecoinToWhitelist",
      "outputs": [],
      "stateMutability": "nonpayable",
      "type": "function"
    },
    {
      "inputs": [
        {
          "internalType": "uint256",
          "name": "bountyId",
          "type": "uint256"
        }
      ],
      "name": "closeBounty",
      "outputs": [],
      "stateMutability": "nonpayable",
      "type": "function"
    },
    {
      "inputs": [
        {
          "internalType": "uint128",
          "name": "stablePay",
          "type": "uint128"
        },
        {
          "internalType": "uint128",
          "name": "nativePay",
          "type": "uint128"
        },
        {
          "internalType": "uint96",
          "name": "exchangeRate",
          "type": "uint96"
        },
        {
          "internalType": "address",
          "name": "nativeToken",
          "type": "address"
        },
        {
          "internalType": "address",
          "name": "stablecoin",
          "type": "address"
        },
        {
          "internalType": "uint256",
          "name": "deadline",
          "type": "uint256"
        }
      ],
      "name": "createBounty",
      "outputs": [
        {
          "internalType": "uint256",
          "name": "",
          "type": "uint256"
        }
      ],
      "stateMutability": "payable",
      "type": "function"
    },
    {
      "inputs": [
        {
          "internalType": "uint256",
          "name": "bountyId",
          "type": "uint256"
        }
      ],
      "name": "getBounty",
      "outputs": [
        {
          "components": [
            {
              "internalType": "uint128",
              "name": "stablePay",
              "type": "uint128"
            },
            {
              "internalType": "uint128",
              "name": "nativePay",
              "type": "uint128"
            },
            {
              "internalType": "uint96",
              "name": "exchangeRate",
              "type": "uint96"
            },
            {
              "internalType": "address",
              "name": "stablecoin",
              "type": "address"
            },
            {
              "internalType": "address",
              "name": "nativeToken",
              "type": "address"
            },
            {
              "internalType": "address",
              "name": "worker",
              "type": "address"
            },
            {
              "internalType": "address",
              "name": "recruiter",
              "type": "address"
            },
            {
              "internalType": "bool",
              "name": "isCompleted",
              "type": "bool"
            },
            {
              "internalType": "uint256",
              "name": "deadline",
              "type": "uint256"
            },
            {
              "internalType": "bool",
              "name": "hasWorkerBeenPaid",
              "type": "bool"
            }
          ],
          "internalType": "struct IWorkFi.BountyMetadata",
          "name": "",
          "type": "tuple"
        }
      ],
      "stateMutability": "view",
      "type": "function"
    },
    {
      "inputs": [
        {
          "internalType": "uint256",
          "name": "bountyId",
          "type": "uint256"
        }
      ],
      "name": "getInvestment",
      "outputs": [
        {
          "internalType": "uint256",
          "name": "",
          "type": "uint256"
        }
      ],
      "stateMutability": "view",
      "type": "function"
    },
    {
      "inputs": [
        {
          "internalType": "uint256",
          "name": "bountyId",
          "type": "uint256"
        },
        {
          "internalType": "uint128",
          "name": "stableAmount",
          "type": "uint128"
        }
      ],
      "name": "invest",
      "outputs": [],
      "stateMutability": "nonpayable",
      "type": "function"
    },
    {
      "inputs": [
        {
          "internalType": "uint256",
          "name": "bountyId",
          "type": "uint256"
        }
      ],
      "name": "markBountyAsCompleted",
      "outputs": [],
      "stateMutability": "nonpayable",
      "type": "function"
    },
    {
      "inputs": [],
      "name": "owner",
      "outputs": [
        {
          "internalType": "address",
          "name": "",
          "type": "address"
        }
      ],
      "stateMutability": "view",
      "type": "function"
    },
    {
      "inputs": [
        {
          "internalType": "address",
          "name": "stablecoin",
          "type": "address"
        }
      ],
      "name": "removeStablecoinFromWhitelist",
      "outputs": [],
      "stateMutability": "nonpayable",
      "type": "function"
    },
    {
      "inputs": [],
      "name": "renounceOwnership",
      "outputs": [],
      "stateMutability": "nonpayable",
      "type": "function"
    },
    {
      "inputs": [
        {
          "internalType": "address",
          "name": "newOwner",
          "type": "address"
        }
      ],
      "name": "transferOwnership",
      "outputs": [],
      "stateMutability": "nonpayable",
      "type": "function"
    }
  ],
  "bytecode": "0x60806040523480156200001157600080fd5b5060016000819055506200003a6200002e6200004060201b60201c565b6200004860201b60201c565b6200010e565b600033905090565b6000600160009054906101000a900473ffffffffffffffffffffffffffffffffffffffff16905081600160006101000a81548173ffffffffffffffffffffffffffffffffffffffff021916908373ffffffffffffffffffffffffffffffffffffffff1602179055508173ffffffffffffffffffffffffffffffffffffffff168173ffffffffffffffffffffffffffffffffffffffff167f8be0079c531659141344cd1fd0a4f28419497f9722a3daafe3b4186f6b6457e060405160405180910390a35050565b61254b806200011e6000396000f3fe6080604052600436106100c25760003560e01c80638da5cb5b1161007f578063bf846e0411610059578063bf846e0414610243578063d4d3697c1461026c578063ee8c4bbf14610295578063f2fde38b146102d2576100c2565b80638da5cb5b146101bf5780639a269a05146101ea578063b988997f1461021a576100c2565b8063228b6f45146100c757806322ae634f146100f0578063582797181461012d5780635c0b19411461015657806363dd5c1f1461017f578063715018a6146101a8575b600080fd5b3480156100d357600080fd5b506100ee60048036038101906100e99190611e36565b6102fb565b005b3480156100fc57600080fd5b5061011760048036038101906101129190611f11565b6103a1565b6040516101249190612248565b60405180910390f35b34801561013957600080fd5b50610154600480360381019061014f9190611f76565b61043a565b005b34801561016257600080fd5b5061017d60048036038101906101789190611e36565b61085a565b005b34801561018b57600080fd5b506101a660048036038101906101a19190611f3a565b610900565b005b3480156101b457600080fd5b506101bd610b9d565b005b3480156101cb57600080fd5b506101d4610bb1565b6040516101e1919061215f565b60405180910390f35b61020460048036038101906101ff9190611e88565b610bdb565b6040516102119190612248565b60405180910390f35b34801561022657600080fd5b50610241600480360381019061023c9190611f11565b61127a565b005b34801561024f57600080fd5b5061026a60048036038101906102659190611f11565b61127d565b005b34801561027857600080fd5b50610293600480360381019061028e9190611f11565b6115b6565b005b3480156102a157600080fd5b506102bc60048036038101906102b79190611f11565b6117e0565b6040516102c99190612211565b60405180910390f35b3480156102de57600080fd5b506102f960048036038101906102f49190611e36565b611ab9565b005b610303611b3d565b6001600460008373ffffffffffffffffffffffffffffffffffffffff1673ffffffffffffffffffffffffffffffffffffffff16815260200190815260200160002060006101000a81548160ff0219169083151502179055508073ffffffffffffffffffffffffffffffffffffffff167fa5b2df84db0941e7676d85be87df7655f22b50609194645573ea63223f97987c60405160405180910390a250565b60006002805490508211156103e2576040517f8150e7de00000000000000000000000000000000000000000000000000000000815260040160405180910390fd5b6003600083815260200190815260200160002060003373ffffffffffffffffffffffffffffffffffffffff1673ffffffffffffffffffffffffffffffffffffffff168152602001908152602001600020549050919050565b600280549050821115610479576040517f8150e7de00000000000000000000000000000000000000000000000000000000815260040160405180910390fd5b61048282611bbb565b156104b9576040517f1ab7da6b00000000000000000000000000000000000000000000000000000000815260040160405180910390fd5b600060026001846104ca9190612310565b81548110610501577f4e487b7100000000000000000000000000000000000000000000000000000000600052603260045260246000fd5b906000526020600020906007020190508060040160149054906101000a900460ff161561055a576040517fddf1ecfc00000000000000000000000000000000000000000000000000000000815260040160405180910390fd5b8060030160009054906101000a900473ffffffffffffffffffffffffffffffffffffffff1673ffffffffffffffffffffffffffffffffffffffff163373ffffffffffffffffffffffffffffffffffffffff1614156105e4576040517f73c37c2800000000000000000000000000000000000000000000000000000000815260040160405180910390fd5b8060040160009054906101000a900473ffffffffffffffffffffffffffffffffffffffff1673ffffffffffffffffffffffffffffffffffffffff163373ffffffffffffffffffffffffffffffffffffffff16141561066e576040517f7b42ad9c00000000000000000000000000000000000000000000000000000000815260040160405180910390fd5b818160000160008282829054906101000a90046fffffffffffffffffffffffffffffffff1661069d9190612274565b92506101000a8154816fffffffffffffffffffffffffffffffff02191690836fffffffffffffffffffffffffffffffff160217905550816fffffffffffffffffffffffffffffffff166003600085815260200190815260200160002060003373ffffffffffffffffffffffffffffffffffffffff1673ffffffffffffffffffffffffffffffffffffffff168152602001908152602001600020600082825461074591906122ba565b925050819055503373ffffffffffffffffffffffffffffffffffffffff16837f85e040b1b514c2f60555b8b931138cd55218c914496a8fcf822858bd240df42284604051610793919061222d565b60405180910390a3600081600101600c9054906101000a900473ffffffffffffffffffffffffffffffffffffffff1690508073ffffffffffffffffffffffffffffffffffffffff166323b872dd3330866040518463ffffffff1660e01b81526004016108019392919061217a565b602060405180830381600087803b15801561081b57600080fd5b505af115801561082f573d6000803e3d6000fd5b505050506040513d601f19601f820116820180604052508101906108539190611e5f565b5050505050565b610862611b3d565b6000600460008373ffffffffffffffffffffffffffffffffffffffff1673ffffffffffffffffffffffffffffffffffffffff16815260200190815260200160002060006101000a81548160ff0219169083151502179055508073ffffffffffffffffffffffffffffffffffffffff167f59e282a3362703b42cb4526d0a76d5f1acc03d3944f5dc8ab0bffc69bddfb6be60405160405180910390a250565b60028054905082111561093f576040517f8150e7de00000000000000000000000000000000000000000000000000000000815260040160405180910390fd5b600073ffffffffffffffffffffffffffffffffffffffff168173ffffffffffffffffffffffffffffffffffffffff1614156109a6576040517f2bc20eca00000000000000000000000000000000000000000000000000000000815260040160405180910390fd5b6109af82611bbb565b156109e6576040517f1ab7da6b00000000000000000000000000000000000000000000000000000000815260040160405180910390fd5b600060026001846109f79190612310565b81548110610a2e577f4e487b7100000000000000000000000000000000000000000000000000000000600052603260045260246000fd5b906000526020600020906007020190508060040160149054906101000a900460ff1615610a87576040517fddf1ecfc00000000000000000000000000000000000000000000000000000000815260040160405180910390fd5b600073ffffffffffffffffffffffffffffffffffffffff168160030160009054906101000a900473ffffffffffffffffffffffffffffffffffffffff1673ffffffffffffffffffffffffffffffffffffffff1614610b11576040517f99c9446b00000000000000000000000000000000000000000000000000000000815260040160405180910390fd5b818160030160006101000a81548173ffffffffffffffffffffffffffffffffffffffff021916908373ffffffffffffffffffffffffffffffffffffffff1602179055508173ffffffffffffffffffffffffffffffffffffffff16837f1d0ba82b48138c804a042cce564f9f9c5a1a903576dda8d1f57545b454142adb60405160405180910390a3505050565b610ba5611b3d565b610baf6000611c1e565b565b6000600160009054906101000a900473ffffffffffffffffffffffffffffffffffffffff16905090565b600060026000541415610c23576040517f08c379a0000000000000000000000000000000000000000000000000000000008152600401610c1a906121f1565b60405180910390fd5b6002600081905550600073ffffffffffffffffffffffffffffffffffffffff168473ffffffffffffffffffffffffffffffffffffffff161415610cb05734866fffffffffffffffffffffffffffffffff1614610cab576040517f83a5858600000000000000000000000000000000000000000000000000000000815260040160405180910390fd5b610cec565b6000341115610ceb576040517f0aebd0a100000000000000000000000000000000000000000000000000000000815260040160405180910390fd5b5b600460008473ffffffffffffffffffffffffffffffffffffffff1673ffffffffffffffffffffffffffffffffffffffff16815260200190815260200160002060009054906101000a900460ff16610d6f576040517fa361c61a00000000000000000000000000000000000000000000000000000000815260040160405180910390fd5b6000604051806101400160405280896fffffffffffffffffffffffffffffffff168152602001886fffffffffffffffffffffffffffffffff168152602001876bffffffffffffffffffffffff1681526020018573ffffffffffffffffffffffffffffffffffffffff1681526020018673ffffffffffffffffffffffffffffffffffffffff168152602001600073ffffffffffffffffffffffffffffffffffffffff1681526020013373ffffffffffffffffffffffffffffffffffffffff168152602001600015158152602001848152602001600015158152509050600281908060018154018082558091505060019003906000526020600020906007020160009091909190915060008201518160000160006101000a8154816fffffffffffffffffffffffffffffffff02191690836fffffffffffffffffffffffffffffffff16021790555060208201518160000160106101000a8154816fffffffffffffffffffffffffffffffff02191690836fffffffffffffffffffffffffffffffff16021790555060408201518160010160006101000a8154816bffffffffffffffffffffffff02191690836bffffffffffffffffffffffff160217905550606082015181600101600c6101000a81548173ffffffffffffffffffffffffffffffffffffffff021916908373ffffffffffffffffffffffffffffffffffffffff16021790555060808201518160020160006101000a81548173ffffffffffffffffffffffffffffffffffffffff021916908373ffffffffffffffffffffffffffffffffffffffff16021790555060a08201518160030160006101000a81548173ffffffffffffffffffffffffffffffffffffffff021916908373ffffffffffffffffffffffffffffffffffffffff16021790555060c08201518160040160006101000a81548173ffffffffffffffffffffffffffffffffffffffff021916908373ffffffffffffffffffffffffffffffffffffffff16021790555060e08201518160040160146101000a81548160ff02191690831515021790555061010082015181600501556101208201518160060160006101000a81548160ff02191690831515021790555050503373ffffffffffffffffffffffffffffffffffffffff166002805490507fa42a102b7be732c6c110f2a200de7ae4a49832e42c61c6c194cf1c94fbc5042e60405160405180910390a3600073ffffffffffffffffffffffffffffffffffffffff168573ffffffffffffffffffffffffffffffffffffffff16146111a95760008590508073ffffffffffffffffffffffffffffffffffffffff166323b872dd33308b6040518463ffffffff1660e01b81526004016111549392919061217a565b602060405180830381600087803b15801561116e57600080fd5b505af1158015611182573d6000803e3d6000fd5b505050506040513d601f19601f820116820180604052508101906111a69190611e5f565b50505b6000886fffffffffffffffffffffffffffffffff16111561125f576000816060015190508073ffffffffffffffffffffffffffffffffffffffff166323b872dd33308c6040518463ffffffff1660e01b815260040161120a9392919061217a565b602060405180830381600087803b15801561122457600080fd5b505af1158015611238573d6000803e3d6000fd5b505050506040513d601f19601f8201168201806040525081019061125c9190611e5f565b50505b60028054905091505060016000819055509695505050505050565b50565b600260005414156112c3576040517f08c379a00000000000000000000000000000000000000000000000000000000081526004016112ba906121f1565b60405180910390fd5b600260008190555060028054905081111561130a576040517f8150e7de00000000000000000000000000000000000000000000000000000000815260040160405180910390fd5b6000600260018361131b9190612310565b81548110611352577f4e487b7100000000000000000000000000000000000000000000000000000000600052603260045260246000fd5b906000526020600020906007020190508060040160149054906101000a900460ff166113aa576040517f2ea8067d00000000000000000000000000000000000000000000000000000000815260040160405180910390fd5b8060030160009054906101000a900473ffffffffffffffffffffffffffffffffffffffff1673ffffffffffffffffffffffffffffffffffffffff163373ffffffffffffffffffffffffffffffffffffffff16141561146d578060060160009054906101000a900460ff161561144b576040517f399acfc500000000000000000000000000000000000000000000000000000000815260040160405180910390fd5b60018160060160006101000a81548160ff0219169083151502179055506115aa565b60006003600084815260200190815260200160002060003373ffffffffffffffffffffffffffffffffffffffff1673ffffffffffffffffffffffffffffffffffffffff1681526020019081526020016000205411156115775760006003600084815260200190815260200160002060003373ffffffffffffffffffffffffffffffffffffffff1673ffffffffffffffffffffffffffffffffffffffff16815260200190815260200160002054905060006003600085815260200190815260200160002060003373ffffffffffffffffffffffffffffffffffffffff1673ffffffffffffffffffffffffffffffffffffffff16815260200190815260200160002081905550506115a9565b6040517fe30c5b0b00000000000000000000000000000000000000000000000000000000815260040160405180910390fd5b5b50600160008190555050565b6002805490508111156115f5576040517f8150e7de00000000000000000000000000000000000000000000000000000000815260040160405180910390fd5b60026001826116049190612310565b8154811061163b577f4e487b7100000000000000000000000000000000000000000000000000000000600052603260045260246000fd5b906000526020600020906007020160040160149054906101000a900460ff1615611691576040517fddf1ecfc00000000000000000000000000000000000000000000000000000000815260040160405180910390fd5b60026001826116a09190612310565b815481106116d7577f4e487b7100000000000000000000000000000000000000000000000000000000600052603260045260246000fd5b906000526020600020906007020160040160009054906101000a900473ffffffffffffffffffffffffffffffffffffffff1673ffffffffffffffffffffffffffffffffffffffff163373ffffffffffffffffffffffffffffffffffffffff161461176d576040517ffc6403e800000000000000000000000000000000000000000000000000000000815260040160405180910390fd5b6001600260018361177e9190612310565b815481106117b5577f4e487b7100000000000000000000000000000000000000000000000000000000600052603260045260246000fd5b906000526020600020906007020160040160146101000a81548160ff02191690831515021790555050565b6117e8611cec565b60026001836117f79190612310565b8154811061182e577f4e487b7100000000000000000000000000000000000000000000000000000000600052603260045260246000fd5b9060005260206000209060070201604051806101400160405290816000820160009054906101000a90046fffffffffffffffffffffffffffffffff166fffffffffffffffffffffffffffffffff166fffffffffffffffffffffffffffffffff1681526020016000820160109054906101000a90046fffffffffffffffffffffffffffffffff166fffffffffffffffffffffffffffffffff166fffffffffffffffffffffffffffffffff1681526020016001820160009054906101000a90046bffffffffffffffffffffffff166bffffffffffffffffffffffff166bffffffffffffffffffffffff16815260200160018201600c9054906101000a900473ffffffffffffffffffffffffffffffffffffffff1673ffffffffffffffffffffffffffffffffffffffff1673ffffffffffffffffffffffffffffffffffffffff1681526020016002820160009054906101000a900473ffffffffffffffffffffffffffffffffffffffff1673ffffffffffffffffffffffffffffffffffffffff1673ffffffffffffffffffffffffffffffffffffffff1681526020016003820160009054906101000a900473ffffffffffffffffffffffffffffffffffffffff1673ffffffffffffffffffffffffffffffffffffffff1673ffffffffffffffffffffffffffffffffffffffff1681526020016004820160009054906101000a900473ffffffffffffffffffffffffffffffffffffffff1673ffffffffffffffffffffffffffffffffffffffff1673ffffffffffffffffffffffffffffffffffffffff1681526020016004820160149054906101000a900460ff16151515158152602001600582015481526020016006820160009054906101000a900460ff1615151515815250509050919050565b611ac1611b3d565b600073ffffffffffffffffffffffffffffffffffffffff168173ffffffffffffffffffffffffffffffffffffffff161415611b31576040517f08c379a0000000000000000000000000000000000000000000000000000000008152600401611b28906121b1565b60405180910390fd5b611b3a81611c1e565b50565b611b45611ce4565b73ffffffffffffffffffffffffffffffffffffffff16611b63610bb1565b73ffffffffffffffffffffffffffffffffffffffff1614611bb9576040517f08c379a0000000000000000000000000000000000000000000000000000000008152600401611bb0906121d1565b60405180910390fd5b565b6000426002600184611bcd9190612310565b81548110611c04577f4e487b7100000000000000000000000000000000000000000000000000000000600052603260045260246000fd5b906000526020600020906007020160050154109050919050565b6000600160009054906101000a900473ffffffffffffffffffffffffffffffffffffffff16905081600160006101000a81548173ffffffffffffffffffffffffffffffffffffffff021916908373ffffffffffffffffffffffffffffffffffffffff1602179055508173ffffffffffffffffffffffffffffffffffffffff168173ffffffffffffffffffffffffffffffffffffffff167f8be0079c531659141344cd1fd0a4f28419497f9722a3daafe3b4186f6b6457e060405160405180910390a35050565b600033905090565b60405180610140016040528060006fffffffffffffffffffffffffffffffff16815260200160006fffffffffffffffffffffffffffffffff16815260200160006bffffffffffffffffffffffff168152602001600073ffffffffffffffffffffffffffffffffffffffff168152602001600073ffffffffffffffffffffffffffffffffffffffff168152602001600073ffffffffffffffffffffffffffffffffffffffff168152602001600073ffffffffffffffffffffffffffffffffffffffff168152602001600015158152602001600081526020016000151581525090565b600081359050611ddc816124a2565b92915050565b600081519050611df1816124b9565b92915050565b600081359050611e06816124d0565b92915050565b600081359050611e1b816124e7565b92915050565b600081359050611e30816124fe565b92915050565b600060208284031215611e4857600080fd5b6000611e5684828501611dcd565b91505092915050565b600060208284031215611e7157600080fd5b6000611e7f84828501611de2565b91505092915050565b60008060008060008060c08789031215611ea157600080fd5b6000611eaf89828a01611df7565b9650506020611ec089828a01611df7565b9550506040611ed189828a01611e21565b9450506060611ee289828a01611dcd565b9350506080611ef389828a01611dcd565b92505060a0611f0489828a01611e0c565b9150509295509295509295565b600060208284031215611f2357600080fd5b6000611f3184828501611e0c565b91505092915050565b60008060408385031215611f4d57600080fd5b6000611f5b85828601611e0c565b9250506020611f6c85828601611dcd565b9150509250929050565b60008060408385031215611f8957600080fd5b6000611f9785828601611e0c565b9250506020611fa885828601611df7565b9150509250929050565b611fbb81612344565b82525050565b611fca81612344565b82525050565b611fd981612356565b82525050565b6000611fec602683612263565b9150611ff782612401565b604082019050919050565b600061200f602083612263565b915061201a82612450565b602082019050919050565b6000612032601f83612263565b915061203d82612479565b602082019050919050565b6101408201600082015161205f6000850182612114565b5060208201516120726020850182612114565b5060408201516120856040850182612150565b5060608201516120986060850182611fb2565b5060808201516120ab6080850182611fb2565b5060a08201516120be60a0850182611fb2565b5060c08201516120d160c0850182611fb2565b5060e08201516120e460e0850182611fd0565b506101008201516120f9610100850182612132565b5061012082015161210e610120850182611fd0565b50505050565b61211d81612362565b82525050565b61212c816123c0565b82525050565b61213b8161239e565b82525050565b61214a8161239e565b82525050565b612159816123a8565b82525050565b60006020820190506121746000830184611fc1565b92915050565b600060608201905061218f6000830186611fc1565b61219c6020830185611fc1565b6121a96040830184612123565b949350505050565b600060208201905081810360008301526121ca81611fdf565b9050919050565b600060208201905081810360008301526121ea81612002565b9050919050565b6000602082019050818103600083015261220a81612025565b9050919050565b6000610140820190506122276000830184612048565b92915050565b60006020820190506122426000830184612123565b92915050565b600060208201905061225d6000830184612141565b92915050565b600082825260208201905092915050565b600061227f82612362565b915061228a83612362565b9250826fffffffffffffffffffffffffffffffff038211156122af576122ae6123d2565b5b828201905092915050565b60006122c58261239e565b91506122d08361239e565b9250827fffffffffffffffffffffffffffffffffffffffffffffffffffffffffffffffff03821115612305576123046123d2565b5b828201905092915050565b600061231b8261239e565b91506123268361239e565b925082821015612339576123386123d2565b5b828203905092915050565b600061234f8261237e565b9050919050565b60008115159050919050565b60006fffffffffffffffffffffffffffffffff82169050919050565b600073ffffffffffffffffffffffffffffffffffffffff82169050919050565b6000819050919050565b60006bffffffffffffffffffffffff82169050919050565b60006123cb82612362565b9050919050565b7f4e487b7100000000000000000000000000000000000000000000000000000000600052601160045260246000fd5b7f4f776e61626c653a206e6577206f776e657220697320746865207a65726f206160008201527f6464726573730000000000000000000000000000000000000000000000000000602082015250565b7f4f776e61626c653a2063616c6c6572206973206e6f7420746865206f776e6572600082015250565b7f5265656e7472616e637947756172643a207265656e7472616e742063616c6c00600082015250565b6124ab81612344565b81146124b657600080fd5b50565b6124c281612356565b81146124cd57600080fd5b50565b6124d981612362565b81146124e457600080fd5b50565b6124f08161239e565b81146124fb57600080fd5b50565b612507816123a8565b811461251257600080fd5b5056fea2646970667358221220605cbc8e5689541861dc899d0b1088e4c88d79d63a89292162537ea622488c3364736f6c63430008040033",
  "linkReferences": {},
  "deployedLinkReferences": {}
}