{
  "_format": "hh-sol-artifact-1",
  "contractName": "WorkFi",
  "sourceName": "contracts/WorkFi.sol",
  "abi": [
    {
      "inputs": [],
      "name": "AWorkerWasAlreadyAccepted",
      "type": "error"
    },
    {
      "inputs": [],
      "name": "BountyDoesNotExist",
      "type": "error"
    },
    {
      "inputs": [],
      "name": "BountyIsCompleted",
      "type": "error"
    },
    {
      "inputs": [],
      "name": "BountyIsNotCompleted",
      "type": "error"
    },
    {
      "inputs": [],
      "name": "DeadlineExpired",
      "type": "error"
    },
    {
      "inputs": [
        {
          "internalType": "uint256",
          "name": "maxPossibleAmount",
          "type": "uint256"
        }
      ],
      "name": "MaxInvestmentExceeded",
      "type": "error"
    },
    {
      "inputs": [],
      "name": "NotAWhitelistedStablecoin",
      "type": "error"
    },
    {
      "inputs": [],
      "name": "NotAnInvestorOrWorker",
      "type": "error"
    },
    {
      "inputs": [],
      "name": "NotRecruiter",
      "type": "error"
    },
    {
      "inputs": [],
      "name": "RecruiterCannotInvest",
      "type": "error"
    },
    {
      "inputs": [],
      "name": "ValueMustBeEqualToNativePayIfPayingWithEth",
      "type": "error"
    },
    {
      "inputs": [],
      "name": "ValueShouldBeZeroIfNotPayingWithEth",
      "type": "error"
    },
    {
      "inputs": [],
      "name": "WorkerCannotBeZero",
      "type": "error"
    },
    {
      "inputs": [],
      "name": "WorkerCannotInvest",
      "type": "error"
    },
    {
      "inputs": [],
      "name": "WorkerHasBeenPaid",
      "type": "error"
    },
    {
      "anonymous": false,
      "inputs": [
        {
          "indexed": true,
          "internalType": "uint256",
          "name": "bountyId",
          "type": "uint256"
        },
        {
          "indexed": true,
          "internalType": "address",
          "name": "recruiter",
          "type": "address"
        }
      ],
      "name": "BountyCreated",
      "type": "event"
    },
    {
      "anonymous": false,
      "inputs": [
        {
          "indexed": true,
          "internalType": "uint256",
          "name": "bountyId",
          "type": "uint256"
        },
        {
          "indexed": true,
          "internalType": "address",
          "name": "investor",
          "type": "address"
        },
        {
          "indexed": false,
          "internalType": "uint256",
          "name": "amount",
          "type": "uint256"
        }
      ],
      "name": "Invested",
      "type": "event"
    },
    {
      "anonymous": false,
      "inputs": [
        {
          "indexed": true,
          "internalType": "address",
          "name": "previousOwner",
          "type": "address"
        },
        {
          "indexed": true,
          "internalType": "address",
          "name": "newOwner",
          "type": "address"
        }
      ],
      "name": "OwnershipTransferred",
      "type": "event"
    },
    {
      "anonymous": false,
      "inputs": [
        {
          "indexed": true,
          "internalType": "address",
          "name": "stablecoin",
          "type": "address"
        }
      ],
      "name": "StablecoinAddedToWhitelist",
      "type": "event"
    },
    {
      "anonymous": false,
      "inputs": [
        {
          "indexed": true,
          "internalType": "address",
          "name": "stablecoin",
          "type": "address"
        }
      ],
      "name": "StablecoinRemovedFromWhitelist",
      "type": "event"
    },
    {
      "anonymous": false,
      "inputs": [
        {
          "indexed": true,
          "internalType": "uint256",
          "name": "bountyId",
          "type": "uint256"
        },
        {
          "indexed": true,
          "internalType": "address",
          "name": "worker",
          "type": "address"
        }
      ],
      "name": "WorkerAccepted",
      "type": "event"
    },
    {
      "inputs": [
        {
          "internalType": "uint256",
          "name": "bountyId",
          "type": "uint256"
        }
      ],
      "name": "acceptPayment",
      "outputs": [],
      "stateMutability": "nonpayable",
      "type": "function"
    },
    {
      "inputs": [
        {
          "internalType": "uint256",
          "name": "bountyId",
          "type": "uint256"
        },
        {
          "internalType": "address",
          "name": "worker",
          "type": "address"
        }
      ],
      "name": "acceptWorker",
      "outputs": [],
      "stateMutability": "nonpayable",
      "type": "function"
    },
    {
      "inputs": [
        {
          "internalType": "address",
          "name": "stablecoin",
          "type": "address"
        }
      ],
      "name": "addStablecoinToWhitelist",
      "outputs": [],
      "stateMutability": "nonpayable",
      "type": "function"
    },
    {
      "inputs": [
        {
          "internalType": "uint256",
          "name": "bountyId",
          "type": "uint256"
        }
      ],
      "name": "closeBounty",
      "outputs": [],
      "stateMutability": "nonpayable",
      "type": "function"
    },
    {
      "inputs": [
        {
          "internalType": "uint128",
          "name": "stablePay",
          "type": "uint128"
        },
        {
          "internalType": "uint128",
          "name": "nativePay",
          "type": "uint128"
        },
        {
          "internalType": "uint96",
          "name": "exchangeRate",
          "type": "uint96"
        },
        {
          "internalType": "address",
          "name": "nativeToken",
          "type": "address"
        },
        {
          "internalType": "address",
          "name": "stablecoin",
          "type": "address"
        },
        {
          "internalType": "uint256",
          "name": "deadline",
          "type": "uint256"
        }
      ],
      "name": "createBounty",
      "outputs": [
        {
          "internalType": "uint256",
          "name": "",
          "type": "uint256"
        }
      ],
      "stateMutability": "payable",
      "type": "function"
    },
    {
      "inputs": [
        {
          "internalType": "uint256",
          "name": "bountyId",
          "type": "uint256"
        }
      ],
      "name": "getBounty",
      "outputs": [
        {
          "components": [
            {
              "internalType": "uint128",
              "name": "stablePay",
              "type": "uint128"
            },
            {
              "internalType": "uint128",
              "name": "nativePay",
              "type": "uint128"
            },
            {
              "internalType": "uint96",
              "name": "exchangeRate",
              "type": "uint96"
            },
            {
              "internalType": "address",
              "name": "stablecoin",
              "type": "address"
            },
            {
              "internalType": "address",
              "name": "nativeToken",
              "type": "address"
            },
            {
              "internalType": "address",
              "name": "worker",
              "type": "address"
            },
            {
              "internalType": "address",
              "name": "recruiter",
              "type": "address"
            },
            {
              "internalType": "bool",
              "name": "isCompleted",
              "type": "bool"
            },
            {
              "internalType": "uint256",
              "name": "deadline",
              "type": "uint256"
            },
            {
              "internalType": "bool",
              "name": "hasWorkerBeenPaid",
              "type": "bool"
            }
          ],
          "internalType": "struct IWorkFi.BountyMetadata",
          "name": "",
          "type": "tuple"
        }
      ],
      "stateMutability": "view",
      "type": "function"
    },
    {
      "inputs": [
        {
          "internalType": "uint256",
          "name": "bountyId",
          "type": "uint256"
        }
      ],
      "name": "getInvestment",
      "outputs": [
        {
          "internalType": "uint256",
          "name": "",
          "type": "uint256"
        }
      ],
      "stateMutability": "view",
      "type": "function"
    },
    {
      "inputs": [
        {
          "internalType": "uint256",
          "name": "bountyId",
          "type": "uint256"
        },
        {
          "internalType": "uint128",
          "name": "stableAmount",
          "type": "uint128"
        }
      ],
      "name": "invest",
      "outputs": [],
      "stateMutability": "nonpayable",
      "type": "function"
    },
    {
      "inputs": [
        {
          "internalType": "uint256",
          "name": "bountyId",
          "type": "uint256"
        }
      ],
      "name": "markBountyAsCompleted",
      "outputs": [],
      "stateMutability": "nonpayable",
      "type": "function"
    },
    {
      "inputs": [],
      "name": "owner",
      "outputs": [
        {
          "internalType": "address",
          "name": "",
          "type": "address"
        }
      ],
      "stateMutability": "view",
      "type": "function"
    },
    {
      "inputs": [
        {
          "internalType": "address",
          "name": "stablecoin",
          "type": "address"
        }
      ],
      "name": "removeStablecoinFromWhitelist",
      "outputs": [],
      "stateMutability": "nonpayable",
      "type": "function"
    },
    {
      "inputs": [],
      "name": "renounceOwnership",
      "outputs": [],
      "stateMutability": "nonpayable",
      "type": "function"
    },
    {
      "inputs": [
        {
          "internalType": "address",
          "name": "newOwner",
          "type": "address"
        }
      ],
      "name": "transferOwnership",
      "outputs": [],
      "stateMutability": "nonpayable",
      "type": "function"
    }
  ],
  "bytecode": "0x60806040523480156200001157600080fd5b5060016000819055506200003a6200002e6200004060201b60201c565b6200004860201b60201c565b6200010e565b600033905090565b6000600160009054906101000a900473ffffffffffffffffffffffffffffffffffffffff16905081600160006101000a81548173ffffffffffffffffffffffffffffffffffffffff021916908373ffffffffffffffffffffffffffffffffffffffff1602179055508173ffffffffffffffffffffffffffffffffffffffff168173ffffffffffffffffffffffffffffffffffffffff167f8be0079c531659141344cd1fd0a4f28419497f9722a3daafe3b4186f6b6457e060405160405180910390a35050565b6125b9806200011e6000396000f3fe6080604052600436106100c25760003560e01c80638da5cb5b1161007f578063bf846e0411610059578063bf846e0414610243578063d4d3697c1461026c578063ee8c4bbf14610295578063f2fde38b146102d2576100c2565b80638da5cb5b146101bf5780639a269a05146101ea578063b988997f1461021a576100c2565b8063228b6f45146100c757806322ae634f146100f0578063582797181461012d5780635c0b19411461015657806363dd5c1f1461017f578063715018a6146101a8575b600080fd5b3480156100d357600080fd5b506100ee60048036038101906100e99190611e5a565b6102fb565b005b3480156100fc57600080fd5b5061011760048036038101906101129190611f35565b6103a1565b604051610124919061226c565b60405180910390f35b34801561013957600080fd5b50610154600480360381019061014f9190611f9a565b61043a565b005b34801561016257600080fd5b5061017d60048036038101906101789190611e5a565b61091e565b005b34801561018b57600080fd5b506101a660048036038101906101a19190611f5e565b6109c4565b005b3480156101b457600080fd5b506101bd610c61565b005b3480156101cb57600080fd5b506101d4610c75565b6040516101e19190612183565b60405180910390f35b61020460048036038101906101ff9190611eac565b610c9f565b604051610211919061226c565b60405180910390f35b34801561022657600080fd5b50610241600480360381019061023c9190611f35565b61133e565b005b34801561024f57600080fd5b5061026a60048036038101906102659190611f35565b611341565b005b34801561027857600080fd5b50610293600480360381019061028e9190611f35565b61167a565b005b3480156102a157600080fd5b506102bc60048036038101906102b79190611f35565b611804565b6040516102c99190612235565b60405180910390f35b3480156102de57600080fd5b506102f960048036038101906102f49190611e5a565b611add565b005b610303611b61565b6001600460008373ffffffffffffffffffffffffffffffffffffffff1673ffffffffffffffffffffffffffffffffffffffff16815260200190815260200160002060006101000a81548160ff0219169083151502179055508073ffffffffffffffffffffffffffffffffffffffff167fa5b2df84db0941e7676d85be87df7655f22b50609194645573ea63223f97987c60405160405180910390a250565b60006002805490508211156103e2576040517f8150e7de00000000000000000000000000000000000000000000000000000000815260040160405180910390fd5b6003600083815260200190815260200160002060003373ffffffffffffffffffffffffffffffffffffffff1673ffffffffffffffffffffffffffffffffffffffff168152602001908152602001600020549050919050565b600280549050821115610479576040517f8150e7de00000000000000000000000000000000000000000000000000000000815260040160405180910390fd5b61048282611bdf565b156104b9576040517f1ab7da6b00000000000000000000000000000000000000000000000000000000815260040160405180910390fd5b600060026001846104ca919061237e565b81548110610501577f4e487b7100000000000000000000000000000000000000000000000000000000600052603260045260246000fd5b906000526020600020906007020190508060040160149054906101000a900460ff161561055a576040517fddf1ecfc00000000000000000000000000000000000000000000000000000000815260040160405180910390fd5b8060030160009054906101000a900473ffffffffffffffffffffffffffffffffffffffff1673ffffffffffffffffffffffffffffffffffffffff163373ffffffffffffffffffffffffffffffffffffffff1614156105e4576040517f73c37c2800000000000000000000000000000000000000000000000000000000815260040160405180910390fd5b8060040160009054906101000a900473ffffffffffffffffffffffffffffffffffffffff1673ffffffffffffffffffffffffffffffffffffffff163373ffffffffffffffffffffffffffffffffffffffff16141561066e576040517f7b42ad9c00000000000000000000000000000000000000000000000000000000815260040160405180910390fd5b60008160010160009054906101000a90046bffffffffffffffffffffffff166bffffffffffffffffffffffff168260000160109054906101000a90046fffffffffffffffffffffffffffffffff166106c69190612334565b6fffffffffffffffffffffffffffffffff16905080836fffffffffffffffffffffffffffffffff16111561073157806040517f808dc40f000000000000000000000000000000000000000000000000000000008152600401610728919061226c565b60405180910390fd5b828260000160008282829054906101000a90046fffffffffffffffffffffffffffffffff166107609190612298565b92506101000a8154816fffffffffffffffffffffffffffffffff02191690836fffffffffffffffffffffffffffffffff160217905550826fffffffffffffffffffffffffffffffff166003600086815260200190815260200160002060003373ffffffffffffffffffffffffffffffffffffffff1673ffffffffffffffffffffffffffffffffffffffff168152602001908152602001600020600082825461080891906122de565b925050819055503373ffffffffffffffffffffffffffffffffffffffff16847f85e040b1b514c2f60555b8b931138cd55218c914496a8fcf822858bd240df422856040516108569190612251565b60405180910390a3600082600101600c9054906101000a900473ffffffffffffffffffffffffffffffffffffffff1690508073ffffffffffffffffffffffffffffffffffffffff166323b872dd3330876040518463ffffffff1660e01b81526004016108c49392919061219e565b602060405180830381600087803b1580156108de57600080fd5b505af11580156108f2573d6000803e3d6000fd5b505050506040513d601f19601f820116820180604052508101906109169190611e83565b505050505050565b610926611b61565b6000600460008373ffffffffffffffffffffffffffffffffffffffff1673ffffffffffffffffffffffffffffffffffffffff16815260200190815260200160002060006101000a81548160ff0219169083151502179055508073ffffffffffffffffffffffffffffffffffffffff167f59e282a3362703b42cb4526d0a76d5f1acc03d3944f5dc8ab0bffc69bddfb6be60405160405180910390a250565b600280549050821115610a03576040517f8150e7de00000000000000000000000000000000000000000000000000000000815260040160405180910390fd5b600073ffffffffffffffffffffffffffffffffffffffff168173ffffffffffffffffffffffffffffffffffffffff161415610a6a576040517f2bc20eca00000000000000000000000000000000000000000000000000000000815260040160405180910390fd5b610a7382611bdf565b15610aaa576040517f1ab7da6b00000000000000000000000000000000000000000000000000000000815260040160405180910390fd5b60006002600184610abb919061237e565b81548110610af2577f4e487b7100000000000000000000000000000000000000000000000000000000600052603260045260246000fd5b906000526020600020906007020190508060040160149054906101000a900460ff1615610b4b576040517fddf1ecfc00000000000000000000000000000000000000000000000000000000815260040160405180910390fd5b600073ffffffffffffffffffffffffffffffffffffffff168160030160009054906101000a900473ffffffffffffffffffffffffffffffffffffffff1673ffffffffffffffffffffffffffffffffffffffff1614610bd5576040517f99c9446b00000000000000000000000000000000000000000000000000000000815260040160405180910390fd5b818160030160006101000a81548173ffffffffffffffffffffffffffffffffffffffff021916908373ffffffffffffffffffffffffffffffffffffffff1602179055508173ffffffffffffffffffffffffffffffffffffffff16837f1d0ba82b48138c804a042cce564f9f9c5a1a903576dda8d1f57545b454142adb60405160405180910390a3505050565b610c69611b61565b610c736000611c42565b565b6000600160009054906101000a900473ffffffffffffffffffffffffffffffffffffffff16905090565b600060026000541415610ce7576040517f08c379a0000000000000000000000000000000000000000000000000000000008152600401610cde90612215565b60405180910390fd5b6002600081905550600073ffffffffffffffffffffffffffffffffffffffff168473ffffffffffffffffffffffffffffffffffffffff161415610d745734866fffffffffffffffffffffffffffffffff1614610d6f576040517f83a5858600000000000000000000000000000000000000000000000000000000815260040160405180910390fd5b610db0565b6000341115610daf576040517f0aebd0a100000000000000000000000000000000000000000000000000000000815260040160405180910390fd5b5b600460008473ffffffffffffffffffffffffffffffffffffffff1673ffffffffffffffffffffffffffffffffffffffff16815260200190815260200160002060009054906101000a900460ff16610e33576040517fa361c61a00000000000000000000000000000000000000000000000000000000815260040160405180910390fd5b6000604051806101400160405280896fffffffffffffffffffffffffffffffff168152602001886fffffffffffffffffffffffffffffffff168152602001876bffffffffffffffffffffffff1681526020018573ffffffffffffffffffffffffffffffffffffffff1681526020018673ffffffffffffffffffffffffffffffffffffffff168152602001600073ffffffffffffffffffffffffffffffffffffffff1681526020013373ffffffffffffffffffffffffffffffffffffffff168152602001600015158152602001848152602001600015158152509050600281908060018154018082558091505060019003906000526020600020906007020160009091909190915060008201518160000160006101000a8154816fffffffffffffffffffffffffffffffff02191690836fffffffffffffffffffffffffffffffff16021790555060208201518160000160106101000a8154816fffffffffffffffffffffffffffffffff02191690836fffffffffffffffffffffffffffffffff16021790555060408201518160010160006101000a8154816bffffffffffffffffffffffff02191690836bffffffffffffffffffffffff160217905550606082015181600101600c6101000a81548173ffffffffffffffffffffffffffffffffffffffff021916908373ffffffffffffffffffffffffffffffffffffffff16021790555060808201518160020160006101000a81548173ffffffffffffffffffffffffffffffffffffffff021916908373ffffffffffffffffffffffffffffffffffffffff16021790555060a08201518160030160006101000a81548173ffffffffffffffffffffffffffffffffffffffff021916908373ffffffffffffffffffffffffffffffffffffffff16021790555060c08201518160040160006101000a81548173ffffffffffffffffffffffffffffffffffffffff021916908373ffffffffffffffffffffffffffffffffffffffff16021790555060e08201518160040160146101000a81548160ff02191690831515021790555061010082015181600501556101208201518160060160006101000a81548160ff02191690831515021790555050503373ffffffffffffffffffffffffffffffffffffffff166002805490507fa42a102b7be732c6c110f2a200de7ae4a49832e42c61c6c194cf1c94fbc5042e60405160405180910390a3600073ffffffffffffffffffffffffffffffffffffffff168573ffffffffffffffffffffffffffffffffffffffff161461126d5760008590508073ffffffffffffffffffffffffffffffffffffffff166323b872dd33308b6040518463ffffffff1660e01b81526004016112189392919061219e565b602060405180830381600087803b15801561123257600080fd5b505af1158015611246573d6000803e3d6000fd5b505050506040513d601f19601f8201168201806040525081019061126a9190611e83565b50505b6000886fffffffffffffffffffffffffffffffff161115611323576000816060015190508073ffffffffffffffffffffffffffffffffffffffff166323b872dd33308c6040518463ffffffff1660e01b81526004016112ce9392919061219e565b602060405180830381600087803b1580156112e857600080fd5b505af11580156112fc573d6000803e3d6000fd5b505050506040513d601f19601f820116820180604052508101906113209190611e83565b50505b60028054905091505060016000819055509695505050505050565b50565b60026000541415611387576040517f08c379a000000000000000000000000000000000000000000000000000000000815260040161137e90612215565b60405180910390fd5b60026000819055506002805490508111156113ce576040517f8150e7de00000000000000000000000000000000000000000000000000000000815260040160405180910390fd5b600060026001836113df919061237e565b81548110611416577f4e487b7100000000000000000000000000000000000000000000000000000000600052603260045260246000fd5b906000526020600020906007020190508060040160149054906101000a900460ff1661146e576040517f2ea8067d00000000000000000000000000000000000000000000000000000000815260040160405180910390fd5b8060030160009054906101000a900473ffffffffffffffffffffffffffffffffffffffff1673ffffffffffffffffffffffffffffffffffffffff163373ffffffffffffffffffffffffffffffffffffffff161415611531578060060160009054906101000a900460ff161561150f576040517f399acfc500000000000000000000000000000000000000000000000000000000815260040160405180910390fd5b60018160060160006101000a81548160ff02191690831515021790555061166e565b60006003600084815260200190815260200160002060003373ffffffffffffffffffffffffffffffffffffffff1673ffffffffffffffffffffffffffffffffffffffff16815260200190815260200160002054111561163b5760006003600084815260200190815260200160002060003373ffffffffffffffffffffffffffffffffffffffff1673ffffffffffffffffffffffffffffffffffffffff16815260200190815260200160002054905060006003600085815260200190815260200160002060003373ffffffffffffffffffffffffffffffffffffffff1673ffffffffffffffffffffffffffffffffffffffff168152602001908152602001600020819055505061166d565b6040517fe30c5b0b00000000000000000000000000000000000000000000000000000000815260040160405180910390fd5b5b50600160008190555050565b6002805490508111156116b9576040517f8150e7de00000000000000000000000000000000000000000000000000000000815260040160405180910390fd5b600060026001836116ca919061237e565b81548110611701577f4e487b7100000000000000000000000000000000000000000000000000000000600052603260045260246000fd5b906000526020600020906007020190508060040160149054906101000a900460ff161561175a576040517fddf1ecfc00000000000000000000000000000000000000000000000000000000815260040160405180910390fd5b8060040160009054906101000a900473ffffffffffffffffffffffffffffffffffffffff1673ffffffffffffffffffffffffffffffffffffffff163373ffffffffffffffffffffffffffffffffffffffff16146117e3576040517ffc6403e800000000000000000000000000000000000000000000000000000000815260040160405180910390fd5b60018160040160146101000a81548160ff0219169083151502179055505050565b61180c611d10565b600260018361181b919061237e565b81548110611852577f4e487b7100000000000000000000000000000000000000000000000000000000600052603260045260246000fd5b9060005260206000209060070201604051806101400160405290816000820160009054906101000a90046fffffffffffffffffffffffffffffffff166fffffffffffffffffffffffffffffffff166fffffffffffffffffffffffffffffffff1681526020016000820160109054906101000a90046fffffffffffffffffffffffffffffffff166fffffffffffffffffffffffffffffffff166fffffffffffffffffffffffffffffffff1681526020016001820160009054906101000a90046bffffffffffffffffffffffff166bffffffffffffffffffffffff166bffffffffffffffffffffffff16815260200160018201600c9054906101000a900473ffffffffffffffffffffffffffffffffffffffff1673ffffffffffffffffffffffffffffffffffffffff1673ffffffffffffffffffffffffffffffffffffffff1681526020016002820160009054906101000a900473ffffffffffffffffffffffffffffffffffffffff1673ffffffffffffffffffffffffffffffffffffffff1673ffffffffffffffffffffffffffffffffffffffff1681526020016003820160009054906101000a900473ffffffffffffffffffffffffffffffffffffffff1673ffffffffffffffffffffffffffffffffffffffff1673ffffffffffffffffffffffffffffffffffffffff1681526020016004820160009054906101000a900473ffffffffffffffffffffffffffffffffffffffff1673ffffffffffffffffffffffffffffffffffffffff1673ffffffffffffffffffffffffffffffffffffffff1681526020016004820160149054906101000a900460ff16151515158152602001600582015481526020016006820160009054906101000a900460ff1615151515815250509050919050565b611ae5611b61565b600073ffffffffffffffffffffffffffffffffffffffff168173ffffffffffffffffffffffffffffffffffffffff161415611b55576040517f08c379a0000000000000000000000000000000000000000000000000000000008152600401611b4c906121d5565b60405180910390fd5b611b5e81611c42565b50565b611b69611d08565b73ffffffffffffffffffffffffffffffffffffffff16611b87610c75565b73ffffffffffffffffffffffffffffffffffffffff1614611bdd576040517f08c379a0000000000000000000000000000000000000000000000000000000008152600401611bd4906121f5565b60405180910390fd5b565b6000426002600184611bf1919061237e565b81548110611c28577f4e487b7100000000000000000000000000000000000000000000000000000000600052603260045260246000fd5b906000526020600020906007020160050154109050919050565b6000600160009054906101000a900473ffffffffffffffffffffffffffffffffffffffff16905081600160006101000a81548173ffffffffffffffffffffffffffffffffffffffff021916908373ffffffffffffffffffffffffffffffffffffffff1602179055508173ffffffffffffffffffffffffffffffffffffffff168173ffffffffffffffffffffffffffffffffffffffff167f8be0079c531659141344cd1fd0a4f28419497f9722a3daafe3b4186f6b6457e060405160405180910390a35050565b600033905090565b60405180610140016040528060006fffffffffffffffffffffffffffffffff16815260200160006fffffffffffffffffffffffffffffffff16815260200160006bffffffffffffffffffffffff168152602001600073ffffffffffffffffffffffffffffffffffffffff168152602001600073ffffffffffffffffffffffffffffffffffffffff168152602001600073ffffffffffffffffffffffffffffffffffffffff168152602001600073ffffffffffffffffffffffffffffffffffffffff168152602001600015158152602001600081526020016000151581525090565b600081359050611e0081612510565b92915050565b600081519050611e1581612527565b92915050565b600081359050611e2a8161253e565b92915050565b600081359050611e3f81612555565b92915050565b600081359050611e548161256c565b92915050565b600060208284031215611e6c57600080fd5b6000611e7a84828501611df1565b91505092915050565b600060208284031215611e9557600080fd5b6000611ea384828501611e06565b91505092915050565b60008060008060008060c08789031215611ec557600080fd5b6000611ed389828a01611e1b565b9650506020611ee489828a01611e1b565b9550506040611ef589828a01611e45565b9450506060611f0689828a01611df1565b9350506080611f1789828a01611df1565b92505060a0611f2889828a01611e30565b9150509295509295509295565b600060208284031215611f4757600080fd5b6000611f5584828501611e30565b91505092915050565b60008060408385031215611f7157600080fd5b6000611f7f85828601611e30565b9250506020611f9085828601611df1565b9150509250929050565b60008060408385031215611fad57600080fd5b6000611fbb85828601611e30565b9250506020611fcc85828601611e1b565b9150509250929050565b611fdf816123b2565b82525050565b611fee816123b2565b82525050565b611ffd816123c4565b82525050565b6000612010602683612287565b915061201b8261246f565b604082019050919050565b6000612033602083612287565b915061203e826124be565b602082019050919050565b6000612056601f83612287565b9150612061826124e7565b602082019050919050565b610140820160008201516120836000850182612138565b5060208201516120966020850182612138565b5060408201516120a96040850182612174565b5060608201516120bc6060850182611fd6565b5060808201516120cf6080850182611fd6565b5060a08201516120e260a0850182611fd6565b5060c08201516120f560c0850182611fd6565b5060e082015161210860e0850182611ff4565b5061010082015161211d610100850182612156565b50610120820151612132610120850182611ff4565b50505050565b612141816123d0565b82525050565b6121508161242e565b82525050565b61215f8161240c565b82525050565b61216e8161240c565b82525050565b61217d81612416565b82525050565b60006020820190506121986000830184611fe5565b92915050565b60006060820190506121b36000830186611fe5565b6121c06020830185611fe5565b6121cd6040830184612147565b949350505050565b600060208201905081810360008301526121ee81612003565b9050919050565b6000602082019050818103600083015261220e81612026565b9050919050565b6000602082019050818103600083015261222e81612049565b9050919050565b60006101408201905061224b600083018461206c565b92915050565b60006020820190506122666000830184612147565b92915050565b60006020820190506122816000830184612165565b92915050565b600082825260208201905092915050565b60006122a3826123d0565b91506122ae836123d0565b9250826fffffffffffffffffffffffffffffffff038211156122d3576122d2612440565b5b828201905092915050565b60006122e98261240c565b91506122f48361240c565b9250827fffffffffffffffffffffffffffffffffffffffffffffffffffffffffffffffff0382111561232957612328612440565b5b828201905092915050565b600061233f826123d0565b915061234a836123d0565b9250816fffffffffffffffffffffffffffffffff048311821515161561237357612372612440565b5b828202905092915050565b60006123898261240c565b91506123948361240c565b9250828210156123a7576123a6612440565b5b828203905092915050565b60006123bd826123ec565b9050919050565b60008115159050919050565b60006fffffffffffffffffffffffffffffffff82169050919050565b600073ffffffffffffffffffffffffffffffffffffffff82169050919050565b6000819050919050565b60006bffffffffffffffffffffffff82169050919050565b6000612439826123d0565b9050919050565b7f4e487b7100000000000000000000000000000000000000000000000000000000600052601160045260246000fd5b7f4f776e61626c653a206e6577206f776e657220697320746865207a65726f206160008201527f6464726573730000000000000000000000000000000000000000000000000000602082015250565b7f4f776e61626c653a2063616c6c6572206973206e6f7420746865206f776e6572600082015250565b7f5265656e7472616e637947756172643a207265656e7472616e742063616c6c00600082015250565b612519816123b2565b811461252457600080fd5b50565b612530816123c4565b811461253b57600080fd5b50565b612547816123d0565b811461255257600080fd5b50565b61255e8161240c565b811461256957600080fd5b50565b61257581612416565b811461258057600080fd5b5056fea26469706673582212201d18bac618d3c9b32022848ddc936d799efa7f9f903ffe754ded7f8ff3e9703864736f6c63430008040033",
  "linkReferences": {},
  "deployedLinkReferences": {}
}