{
  "_format": "hh-sol-artifact-1",
  "contractName": "WorkFi",
  "sourceName": "contracts/WorkFi.sol",
  "abi": [
    {
      "inputs": [],
      "name": "AWorkerWasAlreadyAccepted",
      "type": "error"
    },
    {
      "inputs": [],
      "name": "BountyDoesNotExist",
      "type": "error"
    },
    {
      "inputs": [],
      "name": "BountyIsNotCancelled",
      "type": "error"
    },
    {
      "inputs": [],
      "name": "BountyIsNotOngoing",
      "type": "error"
    },
    {
      "inputs": [],
      "name": "InvestmentOpportunityIsClosed",
      "type": "error"
    },
    {
      "inputs": [],
      "name": "InvestmentOpportunityIsStillOpen",
      "type": "error"
    },
    {
      "inputs": [
        {
          "internalType": "uint128",
          "name": "maxPossibleAmount",
          "type": "uint128"
        }
      ],
      "name": "MaxInvestmentExceeded",
      "type": "error"
    },
    {
      "inputs": [],
      "name": "NotAWhitelistedStablecoin",
      "type": "error"
    },
    {
      "inputs": [],
      "name": "NotAnInvestor",
      "type": "error"
    },
    {
      "inputs": [],
      "name": "NotRecruiter",
      "type": "error"
    },
    {
      "inputs": [],
      "name": "NotTheWorker",
      "type": "error"
    },
    {
      "inputs": [],
      "name": "RecruiterCannotInvest",
      "type": "error"
    },
    {
      "inputs": [
        {
          "internalType": "uint128",
          "name": "required",
          "type": "uint128"
        }
      ],
      "name": "ThisAmountOfEthIsRequired",
      "type": "error"
    },
    {
      "inputs": [],
      "name": "ValueShouldBeZeroIfNotPayingWithEth",
      "type": "error"
    },
    {
      "inputs": [],
      "name": "WorkerCannotBeZero",
      "type": "error"
    },
    {
      "inputs": [],
      "name": "WorkerCannotInvest",
      "type": "error"
    },
    {
      "inputs": [],
      "name": "WorkerDeadlineExpired",
      "type": "error"
    },
    {
      "inputs": [],
      "name": "WorkerHasBeenPaid",
      "type": "error"
    },
    {
      "anonymous": false,
      "inputs": [
        {
          "indexed": true,
          "internalType": "uint256",
          "name": "bountyId",
          "type": "uint256"
        }
      ],
      "name": "BountyCancelled",
      "type": "event"
    },
    {
      "anonymous": false,
      "inputs": [
        {
          "indexed": true,
          "internalType": "uint256",
          "name": "bountyId",
          "type": "uint256"
        }
      ],
      "name": "BountyCompleted",
      "type": "event"
    },
    {
      "anonymous": false,
      "inputs": [
        {
          "indexed": true,
          "internalType": "uint256",
          "name": "bountyId",
          "type": "uint256"
        },
        {
          "indexed": true,
          "internalType": "address",
          "name": "recruiter",
          "type": "address"
        }
      ],
      "name": "BountyCreated",
      "type": "event"
    },
    {
      "anonymous": false,
      "inputs": [
        {
          "indexed": true,
          "internalType": "uint256",
          "name": "bountyId",
          "type": "uint256"
        },
        {
          "indexed": true,
          "internalType": "address",
          "name": "investor",
          "type": "address"
        },
        {
          "indexed": false,
          "internalType": "uint128",
          "name": "amount",
          "type": "uint128"
        }
      ],
      "name": "Invested",
      "type": "event"
    },
    {
      "anonymous": false,
      "inputs": [
        {
          "indexed": true,
          "internalType": "uint256",
          "name": "bountyId",
          "type": "uint256"
        }
      ],
      "name": "InvestmentsWithdrawn",
      "type": "event"
    },
    {
      "anonymous": false,
      "inputs": [
        {
          "indexed": true,
          "internalType": "uint256",
          "name": "bountyId",
          "type": "uint256"
        },
        {
          "indexed": false,
          "internalType": "uint128",
          "name": "payment",
          "type": "uint128"
        }
      ],
      "name": "InvestorPaymentAccepted",
      "type": "event"
    },
    {
      "anonymous": false,
      "inputs": [
        {
          "indexed": true,
          "internalType": "address",
          "name": "previousOwner",
          "type": "address"
        },
        {
          "indexed": true,
          "internalType": "address",
          "name": "newOwner",
          "type": "address"
        }
      ],
      "name": "OwnershipTransferred",
      "type": "event"
    },
    {
      "anonymous": false,
      "inputs": [
        {
          "indexed": true,
          "internalType": "address",
          "name": "stablecoin",
          "type": "address"
        }
      ],
      "name": "StablecoinAddedToWhitelist",
      "type": "event"
    },
    {
      "anonymous": false,
      "inputs": [
        {
          "indexed": true,
          "internalType": "address",
          "name": "stablecoin",
          "type": "address"
        }
      ],
      "name": "StablecoinRemovedFromWhitelist",
      "type": "event"
    },
    {
      "anonymous": false,
      "inputs": [
        {
          "indexed": true,
          "internalType": "uint256",
          "name": "bountyId",
          "type": "uint256"
        },
        {
          "indexed": true,
          "internalType": "address",
          "name": "worker",
          "type": "address"
        }
      ],
      "name": "WorkerAccepted",
      "type": "event"
    },
    {
      "anonymous": false,
      "inputs": [
        {
          "indexed": true,
          "internalType": "uint256",
          "name": "bountyId",
          "type": "uint256"
        },
        {
          "indexed": false,
          "internalType": "uint128",
          "name": "nativePay",
          "type": "uint128"
        },
        {
          "indexed": false,
          "internalType": "uint128",
          "name": "stablePay",
          "type": "uint128"
        }
      ],
      "name": "WorkerPaymentAccepted",
      "type": "event"
    },
    {
      "inputs": [
        {
          "internalType": "uint256",
          "name": "bountyId",
          "type": "uint256"
        }
      ],
      "name": "acceptInvestorPayment",
      "outputs": [],
      "stateMutability": "nonpayable",
      "type": "function"
    },
    {
      "inputs": [
        {
          "internalType": "uint256",
          "name": "bountyId",
          "type": "uint256"
        },
        {
          "internalType": "address",
          "name": "worker",
          "type": "address"
        }
      ],
      "name": "acceptWorker",
      "outputs": [],
      "stateMutability": "nonpayable",
      "type": "function"
    },
    {
      "inputs": [
        {
          "internalType": "uint256",
          "name": "bountyId",
          "type": "uint256"
        }
      ],
      "name": "acceptWorkerPayment",
      "outputs": [],
      "stateMutability": "nonpayable",
      "type": "function"
    },
    {
      "inputs": [
        {
          "internalType": "address",
          "name": "stablecoin",
          "type": "address"
        }
      ],
      "name": "addStablecoinToWhitelist",
      "outputs": [],
      "stateMutability": "nonpayable",
      "type": "function"
    },
    {
      "inputs": [
        {
          "internalType": "uint128",
          "name": "workerNativePay",
          "type": "uint128"
        },
        {
          "internalType": "uint128",
          "name": "exchangeRate",
          "type": "uint128"
        },
        {
          "internalType": "uint128",
          "name": "dailyYieldPercentage",
          "type": "uint128"
        },
        {
          "internalType": "uint256",
          "name": "bountyCreationDate",
          "type": "uint256"
        },
        {
          "internalType": "uint256",
          "name": "workerDeadline",
          "type": "uint256"
        }
      ],
      "name": "calculateYieldPool",
      "outputs": [
        {
          "internalType": "uint128",
          "name": "",
          "type": "uint128"
        }
      ],
      "stateMutability": "pure",
      "type": "function"
    },
    {
      "inputs": [
        {
          "internalType": "uint256",
          "name": "bountyId",
          "type": "uint256"
        }
      ],
      "name": "cancelBounty",
      "outputs": [],
      "stateMutability": "nonpayable",
      "type": "function"
    },
    {
      "inputs": [
        {
          "internalType": "uint128",
          "name": "workerStablePay",
          "type": "uint128"
        },
        {
          "internalType": "uint128",
          "name": "workerNativePay",
          "type": "uint128"
        },
        {
          "internalType": "uint96",
          "name": "exchangeRate",
          "type": "uint96"
        },
        {
          "internalType": "address",
          "name": "nativeToken",
          "type": "address"
        },
        {
          "internalType": "address",
          "name": "stablecoin",
          "type": "address"
        },
        {
          "internalType": "uint128",
          "name": "dailyYieldPercentage",
          "type": "uint128"
        },
        {
          "internalType": "uint256",
          "name": "workerDeadline",
          "type": "uint256"
        }
      ],
      "name": "createBounty",
      "outputs": [
        {
          "internalType": "uint256",
          "name": "",
          "type": "uint256"
        }
      ],
      "stateMutability": "payable",
      "type": "function"
    },
    {
      "inputs": [
        {
          "internalType": "uint256",
          "name": "bountyId",
          "type": "uint256"
        }
      ],
      "name": "getAmountOfInvestments",
      "outputs": [
        {
          "internalType": "uint256",
          "name": "",
          "type": "uint256"
        }
      ],
      "stateMutability": "view",
      "type": "function"
    },
    {
      "inputs": [
        {
          "internalType": "uint256",
          "name": "bountyId",
          "type": "uint256"
        }
      ],
      "name": "getBounty",
      "outputs": [
        {
          "components": [
            {
              "internalType": "uint128",
              "name": "workerStablePay",
              "type": "uint128"
            },
            {
              "internalType": "uint128",
              "name": "workerNativePay",
              "type": "uint128"
            },
            {
              "internalType": "uint96",
              "name": "exchangeRate",
              "type": "uint96"
            },
            {
              "internalType": "address",
              "name": "stablecoin",
              "type": "address"
            },
            {
              "internalType": "address",
              "name": "nativeToken",
              "type": "address"
            },
            {
              "internalType": "uint128",
              "name": "dailyYieldPercentage",
              "type": "uint128"
            },
            {
              "internalType": "address",
              "name": "worker",
              "type": "address"
            },
            {
              "internalType": "address",
              "name": "recruiter",
              "type": "address"
            },
            {
              "internalType": "enum BountyStatus",
              "name": "status",
              "type": "uint8"
            },
            {
              "internalType": "uint256",
              "name": "workerDeadline",
              "type": "uint256"
            },
            {
              "internalType": "uint128",
              "name": "initialWorkerStablePay",
              "type": "uint128"
            },
            {
              "internalType": "uint128",
              "name": "initialWorkerNativePay",
              "type": "uint128"
            },
            {
              "internalType": "uint256",
              "name": "creationDate",
              "type": "uint256"
            }
          ],
          "internalType": "struct BountyMetadata",
          "name": "",
          "type": "tuple"
        }
      ],
      "stateMutability": "view",
      "type": "function"
    },
    {
      "inputs": [
        {
          "internalType": "uint256",
          "name": "bountyId",
          "type": "uint256"
        },
        {
          "internalType": "uint256",
          "name": "investmentId",
          "type": "uint256"
        }
      ],
      "name": "getInvestment",
      "outputs": [
        {
          "components": [
            {
              "internalType": "uint128",
              "name": "stableAmount",
              "type": "uint128"
            },
            {
              "internalType": "uint128",
              "name": "nativeTokenPayment",
              "type": "uint128"
            }
          ],
          "internalType": "struct IWorkFi.InvestmentMetadata",
          "name": "",
          "type": "tuple"
        }
      ],
      "stateMutability": "view",
      "type": "function"
    },
    {
      "inputs": [
        {
          "internalType": "uint256",
          "name": "bountyId",
          "type": "uint256"
        },
        {
          "internalType": "uint128",
          "name": "stableAmount",
          "type": "uint128"
        }
      ],
      "name": "invest",
      "outputs": [],
      "stateMutability": "nonpayable",
      "type": "function"
    },
    {
      "inputs": [
        {
          "internalType": "uint256",
          "name": "bountyId",
          "type": "uint256"
        }
      ],
      "name": "markBountyAsCompleted",
      "outputs": [],
      "stateMutability": "nonpayable",
      "type": "function"
    },
    {
      "inputs": [],
      "name": "owner",
      "outputs": [
        {
          "internalType": "address",
          "name": "",
          "type": "address"
        }
      ],
      "stateMutability": "view",
      "type": "function"
    },
    {
      "inputs": [
        {
          "internalType": "address",
          "name": "stablecoin",
          "type": "address"
        }
      ],
      "name": "removeStablecoinFromWhitelist",
      "outputs": [],
      "stateMutability": "nonpayable",
      "type": "function"
    },
    {
      "inputs": [],
      "name": "renounceOwnership",
      "outputs": [],
      "stateMutability": "nonpayable",
      "type": "function"
    },
    {
      "inputs": [
        {
          "internalType": "address",
          "name": "newOwner",
          "type": "address"
        }
      ],
      "name": "transferOwnership",
      "outputs": [],
      "stateMutability": "nonpayable",
      "type": "function"
    },
    {
      "inputs": [
        {
          "internalType": "uint256",
          "name": "bountyId",
          "type": "uint256"
        }
      ],
      "name": "withdrawInvestments",
      "outputs": [],
      "stateMutability": "nonpayable",
      "type": "function"
    }
  ],
  "bytecode": "0x60806040523480156200001157600080fd5b5060016000819055506200003a6200002e6200004060201b60201c565b6200004860201b60201c565b6200010e565b600033905090565b6000600160009054906101000a900473ffffffffffffffffffffffffffffffffffffffff16905081600160006101000a81548173ffffffffffffffffffffffffffffffffffffffff021916908373ffffffffffffffffffffffffffffffffffffffff1602179055508173ffffffffffffffffffffffffffffffffffffffff168173ffffffffffffffffffffffffffffffffffffffff167f8be0079c531659141344cd1fd0a4f28419497f9722a3daafe3b4186f6b6457e060405160405180910390a35050565b6148f8806200011e6000396000f3fe6080604052600436106100fe5760003560e01c8063715018a611610095578063d4d3697c11610064578063d4d3697c1461031b578063e5e5dff114610344578063ee8c4bbf1461036d578063f2fde38b146103aa578063f8ef4d76146103d3576100fe565b8063715018a6146102735780638da5cb5b1461028a578063ac5426ab146102b5578063c0376ce4146102de576100fe565b806358279718116100d157806358279718146101bb5780635c0b1941146101e457806363dd5c1f1461020d578063711588cd14610236576100fe565b806308c4f6ed1461010357806321b46a1014610140578063228b6f451461016957806330c3068514610192575b600080fd5b34801561010f57600080fd5b5061012a60048036038101906101259190613d54565b610403565b604051610137919061436e565b60405180910390f35b34801561014c57600080fd5b5061016760048036038101906101629190613d54565b610460565b005b34801561017557600080fd5b50610190600480360381019061018b9190613bc4565b610919565b005b34801561019e57600080fd5b506101b960048036038101906101b49190613d54565b6109bf565b005b3480156101c757600080fd5b506101e260048036038101906101dd9190613de2565b610dd7565b005b3480156101f057600080fd5b5061020b60048036038101906102069190613bc4565b61151c565b005b34801561021957600080fd5b50610234600480360381019061022f9190613da6565b6115c2565b005b34801561024257600080fd5b5061025d60048036038101906102589190613c3f565b611953565b60405161026a91906142e6565b60405180910390f35b34801561027f57600080fd5b50610288611a20565b005b34801561029657600080fd5b5061029f611a34565b6040516102ac9190614127565b60405180910390f35b3480156102c157600080fd5b506102dc60048036038101906102d79190613d54565b611a5e565b005b3480156102ea57600080fd5b5061030560048036038101906103009190613e1e565b611ea8565b60405161031291906142cb565b60405180910390f35b34801561032757600080fd5b50610342600480360381019061033d9190613d54565b612034565b005b34801561035057600080fd5b5061036b60048036038101906103669190613d54565b61231e565b005b34801561037957600080fd5b50610394600480360381019061038f9190613d54565b6127f2565b6040516103a1919061426b565b60405180910390f35b3480156103b657600080fd5b506103d160048036038101906103cc9190613bc4565b612c04565b005b6103ed60048036038101906103e89190613cb6565b612c88565b6040516103fa919061436e565b60405180910390f35b60006003600083815260200190815260200160002060003373ffffffffffffffffffffffffffffffffffffffff1673ffffffffffffffffffffffffffffffffffffffff168152602001908152602001600020805490509050919050565b600260005414156104a6576040517f08c379a000000000000000000000000000000000000000000000000000000000815260040161049d9061424b565b60405180910390fd5b60026000819055506002805490508111156104ed576040517f8150e7de00000000000000000000000000000000000000000000000000000000815260040160405180910390fd5b600060026001836104fe9190614562565b81548110610535577f4e487b7100000000000000000000000000000000000000000000000000000000600052603260045260246000fd5b906000526020600020906009020190506002600381111561057f577f4e487b7100000000000000000000000000000000000000000000000000000000600052602160045260246000fd5b8160050160149054906101000a900460ff1660038111156105c9577f4e487b7100000000000000000000000000000000000000000000000000000000600052602160045260246000fd5b1415610601576040517f399acfc500000000000000000000000000000000000000000000000000000000815260040160405180910390fd5b8060040160009054906101000a900473ffffffffffffffffffffffffffffffffffffffff1673ffffffffffffffffffffffffffffffffffffffff163373ffffffffffffffffffffffffffffffffffffffff161461068a576040517fafdf2ce500000000000000000000000000000000000000000000000000000000815260040160405180910390fd5b60008160000160109054906101000a90046fffffffffffffffffffffffffffffffff16905060008260000160009054906101000a90046fffffffffffffffffffffffffffffffff16905060028360050160146101000a81548160ff02191690836003811115610722577f4e487b7100000000000000000000000000000000000000000000000000000000600052602160045260246000fd5b02179055508273__$5e478dcef66b0d39d86eb428706bb5f1c6$__6305d46a1d90916040518263ffffffff1660e01b81526004016107609190614287565b60006040518083038186803b15801561077857600080fd5b505af415801561078c573d6000803e3d6000fd5b50505050837f0d15d1b7a8256ac701c087dd0be0a0ab20494033aad566e718ffc6ff7863025f83836040516107c2929190614301565b60405180910390a261082f8360020160009054906101000a900473ffffffffffffffffffffffffffffffffffffffff168460040160009054906101000a900473ffffffffffffffffffffffffffffffffffffffff16846fffffffffffffffffffffffffffffffff16613528565b600083600101600c9054906101000a900473ffffffffffffffffffffffffffffffffffffffff1690508073ffffffffffffffffffffffffffffffffffffffff1663a9059cbb8560040160009054906101000a900473ffffffffffffffffffffffffffffffffffffffff16846040518363ffffffff1660e01b81526004016108b7929190614179565b602060405180830381600087803b1580156108d157600080fd5b505af11580156108e5573d6000803e3d6000fd5b505050506040513d601f19601f820116820180604052508101906109099190613bed565b5050505050600160008190555050565b610921613624565b6001600460008373ffffffffffffffffffffffffffffffffffffffff1673ffffffffffffffffffffffffffffffffffffffff16815260200190815260200160002060006101000a81548160ff0219169083151502179055508073ffffffffffffffffffffffffffffffffffffffff167fa5b2df84db0941e7676d85be87df7655f22b50609194645573ea63223f97987c60405160405180910390a250565b600060026001836109d09190614562565b81548110610a07577f4e487b7100000000000000000000000000000000000000000000000000000000600052603260045260246000fd5b90600052602060002090600902019050600380811115610a50577f4e487b7100000000000000000000000000000000000000000000000000000000600052602160045260246000fd5b8160050160149054906101000a900460ff166003811115610a9a577f4e487b7100000000000000000000000000000000000000000000000000000000600052602160045260246000fd5b14610ad1576040517f728a2ab600000000000000000000000000000000000000000000000000000000815260040160405180910390fd5b60006003600084815260200190815260200160002060003373ffffffffffffffffffffffffffffffffffffffff1673ffffffffffffffffffffffffffffffffffffffff168152602001908152602001600020805490501415610b5f576040517fb777672400000000000000000000000000000000000000000000000000000000815260040160405180910390fd5b6000805b6003600085815260200190815260200160002060003373ffffffffffffffffffffffffffffffffffffffff1673ffffffffffffffffffffffffffffffffffffffff16815260200190815260200160002080549050811015610c90576003600085815260200190815260200160002060003373ffffffffffffffffffffffffffffffffffffffff1673ffffffffffffffffffffffffffffffffffffffff1681526020019081526020016000208181548110610c46577f4e487b7100000000000000000000000000000000000000000000000000000000600052603260045260246000fd5b9060005260206000200160000160009054906101000a90046fffffffffffffffffffffffffffffffff1682610c7b9190614413565b91508080610c8890614649565b915050610b63565b506003600084815260200190815260200160002060003373ffffffffffffffffffffffffffffffffffffffff1673ffffffffffffffffffffffffffffffffffffffff1681526020019081526020016000206000610ced9190613915565b827f368c7cd8e7f03d52370b8d499e3c7470a0583004359e18a7918d611b2124132260405160405180910390a2600082600101600c9054906101000a900473ffffffffffffffffffffffffffffffffffffffff1690508073ffffffffffffffffffffffffffffffffffffffff1663a9059cbb33846040518363ffffffff1660e01b8152600401610d7e929190614179565b602060405180830381600087803b158015610d9857600080fd5b505af1158015610dac573d6000803e3d6000fd5b505050506040513d601f19601f82011682018060405250810190610dd09190613bed565b5050505050565b600280549050821115610e16576040517f8150e7de00000000000000000000000000000000000000000000000000000000815260040160405180910390fd5b60006002600184610e279190614562565b81548110610e5e577f4e487b7100000000000000000000000000000000000000000000000000000000600052603260045260246000fd5b906000526020600020906009020190508073__$5e478dcef66b0d39d86eb428706bb5f1c6$__63580011889091610bb86040518363ffffffff1660e01b8152600401610eab9291906142a2565b60206040518083038186803b158015610ec357600080fd5b505af4158015610ed7573d6000803e3d6000fd5b505050506040513d601f19601f82011682018060405250810190610efb9190613bed565b15610f32576040517fb652eee300000000000000000000000000000000000000000000000000000000815260040160405180910390fd5b8060040160009054906101000a900473ffffffffffffffffffffffffffffffffffffffff1673ffffffffffffffffffffffffffffffffffffffff163373ffffffffffffffffffffffffffffffffffffffff161415610fbc576040517f73c37c2800000000000000000000000000000000000000000000000000000000815260040160405180910390fd5b8060050160009054906101000a900473ffffffffffffffffffffffffffffffffffffffff1673ffffffffffffffffffffffffffffffffffffffff163373ffffffffffffffffffffffffffffffffffffffff161415611046576040517f7b42ad9c00000000000000000000000000000000000000000000000000000000815260040160405180910390fd5b60008160010160009054906101000a90046bffffffffffffffffffffffff166bffffffffffffffffffffffff168260000160109054906101000a90046fffffffffffffffffffffffffffffffff1661109e919061448a565b9050806fffffffffffffffffffffffffffffffff16836fffffffffffffffffffffffffffffffff16111561110957806040517f8cc585e400000000000000000000000000000000000000000000000000000000815260040161110091906142e6565b60405180910390fd5b60008260010160009054906101000a90046bffffffffffffffffffffffff166bffffffffffffffffffffffff16846111419190614459565b9050808360000160108282829054906101000a90046fffffffffffffffffffffffffffffffff16611172919061452e565b92506101000a8154816fffffffffffffffffffffffffffffffff02191690836fffffffffffffffffffffffffffffffff160217905550838360000160008282829054906101000a90046fffffffffffffffffffffffffffffffff166111d79190614413565b92506101000a8154816fffffffffffffffffffffffffffffffff02191690836fffffffffffffffffffffffffffffffff160217905550600073__$68f0cd47664ad2a7a4ad3f283322e95943$__63dc00ece18560080154428760060154610bb86040518563ffffffff1660e01b815260040161125694939291906143b2565b60206040518083038186803b15801561126e57600080fd5b505af4158015611282573d6000803e3d6000fd5b505050506040513d601f19601f820116820180604052508101906112a69190613c16565b90506003600087815260200190815260200160002060003373ffffffffffffffffffffffffffffffffffffffff1673ffffffffffffffffffffffffffffffffffffffff1681526020019081526020016000206040518060400160405280876fffffffffffffffffffffffffffffffff168152602001611346888860030160009054906101000a90046fffffffffffffffffffffffffffffffff16866136a2565b856113519190614413565b6fffffffffffffffffffffffffffffffff168152509080600181540180825580915050600190039060005260206000200160009091909190915060008201518160000160006101000a8154816fffffffffffffffffffffffffffffffff02191690836fffffffffffffffffffffffffffffffff16021790555060208201518160000160106101000a8154816fffffffffffffffffffffffffffffffff02191690836fffffffffffffffffffffffffffffffff16021790555050503373ffffffffffffffffffffffffffffffffffffffff16867ff53ccaea78f40d9e5e62fd32c3b916b6248bcc781ef9345e206f0674f650b58a8760405161145291906142e6565b60405180910390a3600084600101600c9054906101000a900473ffffffffffffffffffffffffffffffffffffffff1690508073ffffffffffffffffffffffffffffffffffffffff166323b872dd3330896040518463ffffffff1660e01b81526004016114c093929190614142565b602060405180830381600087803b1580156114da57600080fd5b505af11580156114ee573d6000803e3d6000fd5b505050506040513d601f19601f820116820180604052508101906115129190613bed565b5050505050505050565b611524613624565b6000600460008373ffffffffffffffffffffffffffffffffffffffff1673ffffffffffffffffffffffffffffffffffffffff16815260200190815260200160002060006101000a81548160ff0219169083151502179055508073ffffffffffffffffffffffffffffffffffffffff167f59e282a3362703b42cb4526d0a76d5f1acc03d3944f5dc8ab0bffc69bddfb6be60405160405180910390a250565b600280549050821115611601576040517f8150e7de00000000000000000000000000000000000000000000000000000000815260040160405180910390fd5b600073ffffffffffffffffffffffffffffffffffffffff168173ffffffffffffffffffffffffffffffffffffffff161415611668576040517f2bc20eca00000000000000000000000000000000000000000000000000000000815260040160405180910390fd5b600060026001846116799190614562565b815481106116b0577f4e487b7100000000000000000000000000000000000000000000000000000000600052603260045260246000fd5b9060005260206000209060090201905073__$68f0cd47664ad2a7a4ad3f283322e95943$__63dd50d07f82600601546040518263ffffffff1660e01b81526004016116fb9190614353565b60206040518083038186803b15801561171357600080fd5b505af4158015611727573d6000803e3d6000fd5b505050506040513d601f19601f8201168201806040525081019061174b9190613bed565b15611782576040517f0baf493500000000000000000000000000000000000000000000000000000000815260040160405180910390fd5b600060038111156117bc577f4e487b7100000000000000000000000000000000000000000000000000000000600052602160045260246000fd5b8160050160149054906101000a900460ff166003811115611806577f4e487b7100000000000000000000000000000000000000000000000000000000600052602160045260246000fd5b1461183d576040517fb3b8134a00000000000000000000000000000000000000000000000000000000815260040160405180910390fd5b600073ffffffffffffffffffffffffffffffffffffffff168160040160009054906101000a900473ffffffffffffffffffffffffffffffffffffffff1673ffffffffffffffffffffffffffffffffffffffff16146118c7576040517f99c9446b00000000000000000000000000000000000000000000000000000000815260040160405180910390fd5b818160040160006101000a81548173ffffffffffffffffffffffffffffffffffffffff021916908373ffffffffffffffffffffffffffffffffffffffff1602179055508173ffffffffffffffffffffffffffffffffffffffff16837f1d0ba82b48138c804a042cce564f9f9c5a1a903576dda8d1f57545b454142adb60405160405180910390a3505050565b6000808587611962919061448a565b9050600073__$68f0cd47664ad2a7a4ad3f283322e95943$__63dc00ece1868787610bb86040518563ffffffff1660e01b81526004016119a594939291906143b2565b60206040518083038186803b1580156119bd57600080fd5b505af41580156119d1573d6000803e3d6000fd5b505050506040513d601f19601f820116820180604052508101906119f59190613c16565b90506000611a048388846136a2565b90508781611a12919061448a565b935050505095945050505050565b611a28613624565b611a326000613753565b565b6000600160009054906101000a900473ffffffffffffffffffffffffffffffffffffffff16905090565b60026000541415611aa4576040517f08c379a0000000000000000000000000000000000000000000000000000000008152600401611a9b9061424b565b60405180910390fd5b6002600081905550600280549050811115611aeb576040517f8150e7de00000000000000000000000000000000000000000000000000000000815260040160405180910390fd5b60006002600183611afc9190614562565b81548110611b33577f4e487b7100000000000000000000000000000000000000000000000000000000600052603260045260246000fd5b906000526020600020906009020190508073__$5e478dcef66b0d39d86eb428706bb5f1c6$__63580011889091610bb86040518363ffffffff1660e01b8152600401611b809291906142a2565b60206040518083038186803b158015611b9857600080fd5b505af4158015611bac573d6000803e3d6000fd5b505050506040513d601f19601f82011682018060405250810190611bd09190613bed565b611c06576040517f5b4ca53900000000000000000000000000000000000000000000000000000000815260040160405180910390fd5b60006003600084815260200190815260200160002060003373ffffffffffffffffffffffffffffffffffffffff1673ffffffffffffffffffffffffffffffffffffffff168152602001908152602001600020805490501415611c94576040517fb777672400000000000000000000000000000000000000000000000000000000815260040160405180910390fd5b6000805b6003600085815260200190815260200160002060003373ffffffffffffffffffffffffffffffffffffffff1673ffffffffffffffffffffffffffffffffffffffff16815260200190815260200160002080549050811015611dc5576003600085815260200190815260200160002060003373ffffffffffffffffffffffffffffffffffffffff1673ffffffffffffffffffffffffffffffffffffffff1681526020019081526020016000208181548110611d7b577f4e487b7100000000000000000000000000000000000000000000000000000000600052603260045260246000fd5b9060005260206000200160000160109054906101000a90046fffffffffffffffffffffffffffffffff1682611db09190614413565b91508080611dbd90614649565b915050611c98565b506003600084815260200190815260200160002060003373ffffffffffffffffffffffffffffffffffffffff1673ffffffffffffffffffffffffffffffffffffffff1681526020019081526020016000206000611e229190613915565b827f855ef22eae8ad28734be800428e4ec1671c8d3c1e80c21b12765757cb9b5d53182604051611e5291906142e6565b60405180910390a2611e9b8260020160009054906101000a900473ffffffffffffffffffffffffffffffffffffffff1633836fffffffffffffffffffffffffffffffff16613528565b5050600160008190555050565b611eb0613936565b600280549050831115611eef576040517f8150e7de00000000000000000000000000000000000000000000000000000000815260040160405180910390fd5b6003600084815260200190815260200160002060003373ffffffffffffffffffffffffffffffffffffffff1673ffffffffffffffffffffffffffffffffffffffff168152602001908152602001600020600183611f4c9190614562565b81548110611f83577f4e487b7100000000000000000000000000000000000000000000000000000000600052603260045260246000fd5b906000526020600020016040518060400160405290816000820160009054906101000a90046fffffffffffffffffffffffffffffffff166fffffffffffffffffffffffffffffffff166fffffffffffffffffffffffffffffffff1681526020016000820160109054906101000a90046fffffffffffffffffffffffffffffffff166fffffffffffffffffffffffffffffffff166fffffffffffffffffffffffffffffffff1681525050905092915050565b600280549050811115612073576040517f8150e7de00000000000000000000000000000000000000000000000000000000815260040160405180910390fd5b600060026001836120849190614562565b815481106120bb577f4e487b7100000000000000000000000000000000000000000000000000000000600052603260045260246000fd5b906000526020600020906009020190508060050160009054906101000a900473ffffffffffffffffffffffffffffffffffffffff1673ffffffffffffffffffffffffffffffffffffffff163373ffffffffffffffffffffffffffffffffffffffff1614612154576040517ffc6403e800000000000000000000000000000000000000000000000000000000815260040160405180910390fd5b600073ffffffffffffffffffffffffffffffffffffffff168160040160009054906101000a900473ffffffffffffffffffffffffffffffffffffffff1673ffffffffffffffffffffffffffffffffffffffff1614156121df576040517f2bc20eca00000000000000000000000000000000000000000000000000000000815260040160405180910390fd5b60006003811115612219577f4e487b7100000000000000000000000000000000000000000000000000000000600052602160045260246000fd5b8160050160149054906101000a900460ff166003811115612263577f4e487b7100000000000000000000000000000000000000000000000000000000600052602160045260246000fd5b1461229a576040517fb3b8134a00000000000000000000000000000000000000000000000000000000815260040160405180910390fd5b60018160050160146101000a81548160ff021916908360038111156122e8577f4e487b7100000000000000000000000000000000000000000000000000000000600052602160045260246000fd5b0217905550817f687045981c43db01605c41aa9dbf9296e20e6848624353e83979327e96434ccc60405160405180910390a25050565b60028054905081111561235d576040517f8150e7de00000000000000000000000000000000000000000000000000000000815260040160405180910390fd5b6000600260018361236e9190614562565b815481106123a5577f4e487b7100000000000000000000000000000000000000000000000000000000600052603260045260246000fd5b906000526020600020906009020190508060050160009054906101000a900473ffffffffffffffffffffffffffffffffffffffff1673ffffffffffffffffffffffffffffffffffffffff163373ffffffffffffffffffffffffffffffffffffffff161461243e576040517ffc6403e800000000000000000000000000000000000000000000000000000000815260040160405180910390fd5b60006003811115612478577f4e487b7100000000000000000000000000000000000000000000000000000000600052602160045260246000fd5b8160050160149054906101000a900460ff1660038111156124c2577f4e487b7100000000000000000000000000000000000000000000000000000000600052602160045260246000fd5b146124f9576040517fb3b8134a00000000000000000000000000000000000000000000000000000000815260040160405180910390fd5b60038160050160146101000a81548160ff02191690836003811115612547577f4e487b7100000000000000000000000000000000000000000000000000000000600052602160045260246000fd5b02179055508073__$5e478dcef66b0d39d86eb428706bb5f1c6$__6305d46a1d90916040518263ffffffff1660e01b81526004016125859190614287565b60006040518083038186803b15801561259d57600080fd5b505af41580156125b1573d6000803e3d6000fd5b5050505060006126328260070160109054906101000a90046fffffffffffffffffffffffffffffffff168360010160009054906101000a90046bffffffffffffffffffffffff166bffffffffffffffffffffffff168460030160009054906101000a90046fffffffffffffffffffffffffffffffff16428660060154611953565b9050827f92717314c0b0f9d632e1d46a0b8437778ff9daee1db8ec295f2bc0b57c4bcaac60405160405180910390a26126f18260020160009054906101000a900473ffffffffffffffffffffffffffffffffffffffff168360050160009054906101000a900473ffffffffffffffffffffffffffffffffffffffff16838560070160109054906101000a90046fffffffffffffffffffffffffffffffff166126da9190614413565b6fffffffffffffffffffffffffffffffff16613528565b600082600101600c9054906101000a900473ffffffffffffffffffffffffffffffffffffffff1690508073ffffffffffffffffffffffffffffffffffffffff1663a9059cbb8460050160009054906101000a900473ffffffffffffffffffffffffffffffffffffffff168560070160009054906101000a90046fffffffffffffffffffffffffffffffff166040518363ffffffff1660e01b8152600401612799929190614179565b602060405180830381600087803b1580156127b357600080fd5b505af11580156127c7573d6000803e3d6000fd5b505050506040513d601f19601f820116820180604052508101906127eb9190613bed565b5050505050565b6127fa613974565b60026001836128099190614562565b81548110612840577f4e487b7100000000000000000000000000000000000000000000000000000000600052603260045260246000fd5b9060005260206000209060090201604051806101a00160405290816000820160009054906101000a90046fffffffffffffffffffffffffffffffff166fffffffffffffffffffffffffffffffff166fffffffffffffffffffffffffffffffff1681526020016000820160109054906101000a90046fffffffffffffffffffffffffffffffff166fffffffffffffffffffffffffffffffff166fffffffffffffffffffffffffffffffff1681526020016001820160009054906101000a90046bffffffffffffffffffffffff166bffffffffffffffffffffffff166bffffffffffffffffffffffff16815260200160018201600c9054906101000a900473ffffffffffffffffffffffffffffffffffffffff1673ffffffffffffffffffffffffffffffffffffffff1673ffffffffffffffffffffffffffffffffffffffff1681526020016002820160009054906101000a900473ffffffffffffffffffffffffffffffffffffffff1673ffffffffffffffffffffffffffffffffffffffff1673ffffffffffffffffffffffffffffffffffffffff1681526020016003820160009054906101000a90046fffffffffffffffffffffffffffffffff166fffffffffffffffffffffffffffffffff166fffffffffffffffffffffffffffffffff1681526020016004820160009054906101000a900473ffffffffffffffffffffffffffffffffffffffff1673ffffffffffffffffffffffffffffffffffffffff1673ffffffffffffffffffffffffffffffffffffffff1681526020016005820160009054906101000a900473ffffffffffffffffffffffffffffffffffffffff1673ffffffffffffffffffffffffffffffffffffffff1673ffffffffffffffffffffffffffffffffffffffff1681526020016005820160149054906101000a900460ff166003811115612b19577f4e487b7100000000000000000000000000000000000000000000000000000000600052602160045260246000fd5b6003811115612b51577f4e487b7100000000000000000000000000000000000000000000000000000000600052602160045260246000fd5b8152602001600682015481526020016007820160009054906101000a90046fffffffffffffffffffffffffffffffff166fffffffffffffffffffffffffffffffff166fffffffffffffffffffffffffffffffff1681526020016007820160109054906101000a90046fffffffffffffffffffffffffffffffff166fffffffffffffffffffffffffffffffff166fffffffffffffffffffffffffffffffff1681526020016008820154815250509050919050565b612c0c613624565b600073ffffffffffffffffffffffffffffffffffffffff168173ffffffffffffffffffffffffffffffffffffffff161415612c7c576040517f08c379a0000000000000000000000000000000000000000000000000000000008152600401612c73906141cb565b60405180910390fd5b612c8581613753565b50565b600060026000541415612cd0576040517f08c379a0000000000000000000000000000000000000000000000000000000008152600401612cc79061424b565b60405180910390fd5b60026000819055506000612cf588886bffffffffffffffffffffffff16864287611953565b905060008189612d059190614413565b9050600073ffffffffffffffffffffffffffffffffffffffff168773ffffffffffffffffffffffffffffffffffffffff161415612d9757806fffffffffffffffffffffffffffffffff163414612d9257806040517fec7fbc5d000000000000000000000000000000000000000000000000000000008152600401612d8991906142e6565b60405180910390fd5b612dd3565b6000341115612dd2576040517f0aebd0a100000000000000000000000000000000000000000000000000000000815260040160405180910390fd5b5b600460008773ffffffffffffffffffffffffffffffffffffffff1673ffffffffffffffffffffffffffffffffffffffff16815260200190815260200160002060009054906101000a900460ff16612e56576040517fa361c61a00000000000000000000000000000000000000000000000000000000815260040160405180910390fd5b73__$68f0cd47664ad2a7a4ad3f283322e95943$__636d13eebf42866040518363ffffffff1660e01b8152600401612e8f929190614389565b60006040518083038186803b158015612ea757600080fd5b505af4158015612ebb573d6000803e3d6000fd5b505050506000604051806101a001604052808c6fffffffffffffffffffffffffffffffff1681526020018b6fffffffffffffffffffffffffffffffff1681526020018a6bffffffffffffffffffffffff1681526020018873ffffffffffffffffffffffffffffffffffffffff1681526020018973ffffffffffffffffffffffffffffffffffffffff168152602001876fffffffffffffffffffffffffffffffff168152602001600073ffffffffffffffffffffffffffffffffffffffff1681526020013373ffffffffffffffffffffffffffffffffffffffff16815260200160006003811115612fd4577f4e487b7100000000000000000000000000000000000000000000000000000000600052602160045260246000fd5b81526020018681526020018c6fffffffffffffffffffffffffffffffff1681526020018b6fffffffffffffffffffffffffffffffff168152602001428152509050600281908060018154018082558091505060019003906000526020600020906009020160009091909190915060008201518160000160006101000a8154816fffffffffffffffffffffffffffffffff02191690836fffffffffffffffffffffffffffffffff16021790555060208201518160000160106101000a8154816fffffffffffffffffffffffffffffffff02191690836fffffffffffffffffffffffffffffffff16021790555060408201518160010160006101000a8154816bffffffffffffffffffffffff02191690836bffffffffffffffffffffffff160217905550606082015181600101600c6101000a81548173ffffffffffffffffffffffffffffffffffffffff021916908373ffffffffffffffffffffffffffffffffffffffff16021790555060808201518160020160006101000a81548173ffffffffffffffffffffffffffffffffffffffff021916908373ffffffffffffffffffffffffffffffffffffffff16021790555060a08201518160030160006101000a8154816fffffffffffffffffffffffffffffffff02191690836fffffffffffffffffffffffffffffffff16021790555060c08201518160040160006101000a81548173ffffffffffffffffffffffffffffffffffffffff021916908373ffffffffffffffffffffffffffffffffffffffff16021790555060e08201518160050160006101000a81548173ffffffffffffffffffffffffffffffffffffffff021916908373ffffffffffffffffffffffffffffffffffffffff1602179055506101008201518160050160146101000a81548160ff021916908360038111156132a3577f4e487b7100000000000000000000000000000000000000000000000000000000600052602160045260246000fd5b021790555061012082015181600601556101408201518160070160006101000a8154816fffffffffffffffffffffffffffffffff02191690836fffffffffffffffffffffffffffffffff1602179055506101608201518160070160106101000a8154816fffffffffffffffffffffffffffffffff02191690836fffffffffffffffffffffffffffffffff160217905550610180820151816008015550503373ffffffffffffffffffffffffffffffffffffffff166002805490507fa42a102b7be732c6c110f2a200de7ae4a49832e42c61c6c194cf1c94fbc5042e60405160405180910390a3600073ffffffffffffffffffffffffffffffffffffffff168873ffffffffffffffffffffffffffffffffffffffff16146134545760008890508073ffffffffffffffffffffffffffffffffffffffff166323b872dd3330866040518463ffffffff1660e01b81526004016133ff93929190614142565b602060405180830381600087803b15801561341957600080fd5b505af115801561342d573d6000803e3d6000fd5b505050506040513d601f19601f820116820180604052508101906134519190613bed565b50505b60008b6fffffffffffffffffffffffffffffffff16111561350a576000816060015190508073ffffffffffffffffffffffffffffffffffffffff166323b872dd33308f6040518463ffffffff1660e01b81526004016134b593929190614142565b602060405180830381600087803b1580156134cf57600080fd5b505af11580156134e3573d6000803e3d6000fd5b505050506040513d601f19601f820116820180604052508101906135079190613bed565b50505b60028054905093505050506001600081905550979650505050505050565b600073ffffffffffffffffffffffffffffffffffffffff168373ffffffffffffffffffffffffffffffffffffffff16146135f55760008390508073ffffffffffffffffffffffffffffffffffffffff1663a9059cbb84846040518363ffffffff1660e01b815260040161359c9291906141a2565b602060405180830381600087803b1580156135b657600080fd5b505af11580156135ca573d6000803e3d6000fd5b505050506040513d601f19601f820116820180604052508101906135ee9190613bed565b505061361f565b61361e818373ffffffffffffffffffffffffffffffffffffffff1661381990919063ffffffff16565b5b505050565b61362c61390d565b73ffffffffffffffffffffffffffffffffffffffff1661364a611a34565b73ffffffffffffffffffffffffffffffffffffffff16146136a0576040517f08c379a00000000000000000000000000000000000000000000000000000000081526004016136979061422b565b60405180910390fd5b565b6000816fffffffffffffffffffffffffffffffff1673__$5dc460cc747dc4210092f6da12cdb25a64$__632133e3b986866040518363ffffffff1660e01b81526004016136f092919061432a565b60206040518083038186803b15801561370857600080fd5b505af415801561371c573d6000803e3d6000fd5b505050506040513d601f19601f820116820180604052508101906137409190613d7d565b61374a91906144d4565b90509392505050565b6000600160009054906101000a900473ffffffffffffffffffffffffffffffffffffffff16905081600160006101000a81548173ffffffffffffffffffffffffffffffffffffffff021916908373ffffffffffffffffffffffffffffffffffffffff1602179055508173ffffffffffffffffffffffffffffffffffffffff168173ffffffffffffffffffffffffffffffffffffffff167f8be0079c531659141344cd1fd0a4f28419497f9722a3daafe3b4186f6b6457e060405160405180910390a35050565b8047101561385c576040517f08c379a00000000000000000000000000000000000000000000000000000000081526004016138539061420b565b60405180910390fd5b60008273ffffffffffffffffffffffffffffffffffffffff168260405161388290614112565b60006040518083038185875af1925050503d80600081146138bf576040519150601f19603f3d011682016040523d82523d6000602084013e6138c4565b606091505b5050905080613908576040517f08c379a00000000000000000000000000000000000000000000000000000000081526004016138ff906141eb565b60405180910390fd5b505050565b600033905090565b50805460008255906000526020600020908101906139339190613ad4565b50565b604051806040016040528060006fffffffffffffffffffffffffffffffff16815260200160006fffffffffffffffffffffffffffffffff1681525090565b604051806101a0016040528060006fffffffffffffffffffffffffffffffff16815260200160006fffffffffffffffffffffffffffffffff16815260200160006bffffffffffffffffffffffff168152602001600073ffffffffffffffffffffffffffffffffffffffff168152602001600073ffffffffffffffffffffffffffffffffffffffff16815260200160006fffffffffffffffffffffffffffffffff168152602001600073ffffffffffffffffffffffffffffffffffffffff168152602001600073ffffffffffffffffffffffffffffffffffffffff16815260200160006003811115613a8e577f4e487b7100000000000000000000000000000000000000000000000000000000600052602160045260246000fd5b81526020016000815260200160006fffffffffffffffffffffffffffffffff16815260200160006fffffffffffffffffffffffffffffffff168152602001600081525090565b5b80821115613b2d57600080820160006101000a8154906fffffffffffffffffffffffffffffffff02191690556000820160106101000a8154906fffffffffffffffffffffffffffffffff021916905550600101613ad5565b5090565b600081359050613b408161484f565b92915050565b600081519050613b5581614866565b92915050565b600081359050613b6a8161487d565b92915050565b600081519050613b7f8161487d565b92915050565b600081359050613b9481614894565b92915050565b600081519050613ba981614894565b92915050565b600081359050613bbe816148ab565b92915050565b600060208284031215613bd657600080fd5b6000613be484828501613b31565b91505092915050565b600060208284031215613bff57600080fd5b6000613c0d84828501613b46565b91505092915050565b600060208284031215613c2857600080fd5b6000613c3684828501613b70565b91505092915050565b600080600080600060a08688031215613c5757600080fd5b6000613c6588828901613b5b565b9550506020613c7688828901613b5b565b9450506040613c8788828901613b5b565b9350506060613c9888828901613b85565b9250506080613ca988828901613b85565b9150509295509295909350565b600080600080600080600060e0888a031215613cd157600080fd5b6000613cdf8a828b01613b5b565b9750506020613cf08a828b01613b5b565b9650506040613d018a828b01613baf565b9550506060613d128a828b01613b31565b9450506080613d238a828b01613b31565b93505060a0613d348a828b01613b5b565b92505060c0613d458a828b01613b85565b91505092959891949750929550565b600060208284031215613d6657600080fd5b6000613d7484828501613b85565b91505092915050565b600060208284031215613d8f57600080fd5b6000613d9d84828501613b9a565b91505092915050565b60008060408385031215613db957600080fd5b6000613dc785828601613b85565b9250506020613dd885828601613b31565b9150509250929050565b60008060408385031215613df557600080fd5b6000613e0385828601613b85565b9250506020613e1485828601613b5b565b9150509250929050565b60008060408385031215613e3157600080fd5b6000613e3f85828601613b85565b9250506020613e5085828601613b85565b9150509250929050565b613e6381614596565b82525050565b613e7281614596565b82525050565b613e8181614625565b82525050565b6000613e94602683614402565b9150613e9f8261471f565b604082019050919050565b6000613eb7603a83614402565b9150613ec28261476e565b604082019050919050565b6000613eda601d83614402565b9150613ee5826147bd565b602082019050919050565b6000613efd602083614402565b9150613f08826147e6565b602082019050919050565b6000613f206000836143f7565b9150613f2b8261480f565b600082019050919050565b6000613f43601f83614402565b9150613f4e82614812565b602082019050919050565b6101a082016000820151613f70600085018261409a565b506020820151613f83602085018261409a565b506040820151613f966040850182614103565b506060820151613fa96060850182613e5a565b506080820151613fbc6080850182613e5a565b5060a0820151613fcf60a085018261409a565b5060c0820151613fe260c0850182613e5a565b5060e0820151613ff560e0850182613e5a565b5061010082015161400a610100850182613e78565b5061012082015161401f6101208501826140d6565b5061014082015161403461014085018261409a565b5061016082015161404961016085018261409a565b5061018082015161405e6101808501826140d6565b50505050565b8082525050565b604082016000820151614081600085018261409a565b506020820151614094602085018261409a565b50505050565b6140a3816145c7565b82525050565b6140b2816145c7565b82525050565b6140c181614637565b82525050565b6140d081614637565b82525050565b6140df81614603565b82525050565b6140ee81614603565b82525050565b6140fd81614603565b82525050565b61410c8161460d565b82525050565b600061411d82613f13565b9150819050919050565b600060208201905061413c6000830184613e69565b92915050565b60006060820190506141576000830186613e69565b6141646020830185613e69565b61417160408301846140b8565b949350505050565b600060408201905061418e6000830185613e69565b61419b60208301846140b8565b9392505050565b60006040820190506141b76000830185613e69565b6141c460208301846140e5565b9392505050565b600060208201905081810360008301526141e481613e87565b9050919050565b6000602082019050818103600083015261420481613eaa565b9050919050565b6000602082019050818103600083015261422481613ecd565b9050919050565b6000602082019050818103600083015261424481613ef0565b9050919050565b6000602082019050818103600083015261426481613f36565b9050919050565b60006101a0820190506142816000830184613f59565b92915050565b600060208201905061429c6000830184614064565b92915050565b60006040820190506142b76000830185614064565b6142c460208301846140f4565b9392505050565b60006040820190506142e0600083018461406b565b92915050565b60006020820190506142fb60008301846140a9565b92915050565b600060408201905061431660008301856140a9565b61432360208301846140a9565b9392505050565b600060408201905061433f60008301856140c7565b61434c60208301846140c7565b9392505050565b600060208201905061436860008301846140f4565b92915050565b600060208201905061438360008301846140e5565b92915050565b600060408201905061439e60008301856140f4565b6143ab60208301846140f4565b9392505050565b60006080820190506143c760008301876140f4565b6143d460208301866140f4565b6143e160408301856140f4565b6143ee60608301846140f4565b95945050505050565b600081905092915050565b600082825260208201905092915050565b600061441e826145c7565b9150614429836145c7565b9250826fffffffffffffffffffffffffffffffff0382111561444e5761444d614692565b5b828201905092915050565b6000614464826145c7565b915061446f836145c7565b92508261447f5761447e6146c1565b5b828204905092915050565b6000614495826145c7565b91506144a0836145c7565b9250816fffffffffffffffffffffffffffffffff04831182151516156144c9576144c8614692565b5b828202905092915050565b60006144df82614603565b91506144ea83614603565b9250817fffffffffffffffffffffffffffffffffffffffffffffffffffffffffffffffff048311821515161561452357614522614692565b5b828202905092915050565b6000614539826145c7565b9150614544836145c7565b92508282101561455757614556614692565b5b828203905092915050565b600061456d82614603565b915061457883614603565b92508282101561458b5761458a614692565b5b828203905092915050565b60006145a1826145e3565b9050919050565b60008115159050919050565b60008190506145c28261483b565b919050565b60006fffffffffffffffffffffffffffffffff82169050919050565b600073ffffffffffffffffffffffffffffffffffffffff82169050919050565b6000819050919050565b60006bffffffffffffffffffffffff82169050919050565b6000614630826145b4565b9050919050565b6000614642826145c7565b9050919050565b600061465482614603565b91507fffffffffffffffffffffffffffffffffffffffffffffffffffffffffffffffff82141561468757614686614692565b5b600182019050919050565b7f4e487b7100000000000000000000000000000000000000000000000000000000600052601160045260246000fd5b7f4e487b7100000000000000000000000000000000000000000000000000000000600052601260045260246000fd5b7f4e487b7100000000000000000000000000000000000000000000000000000000600052602160045260246000fd5b7f4f776e61626c653a206e6577206f776e657220697320746865207a65726f206160008201527f6464726573730000000000000000000000000000000000000000000000000000602082015250565b7f416464726573733a20756e61626c6520746f2073656e642076616c75652c207260008201527f6563697069656e74206d61792068617665207265766572746564000000000000602082015250565b7f416464726573733a20696e73756666696369656e742062616c616e6365000000600082015250565b7f4f776e61626c653a2063616c6c6572206973206e6f7420746865206f776e6572600082015250565b50565b7f5265656e7472616e637947756172643a207265656e7472616e742063616c6c00600082015250565b6004811061484c5761484b6146f0565b5b50565b61485881614596565b811461486357600080fd5b50565b61486f816145a8565b811461487a57600080fd5b50565b614886816145c7565b811461489157600080fd5b50565b61489d81614603565b81146148a857600080fd5b50565b6148b48161460d565b81146148bf57600080fd5b5056fea2646970667358221220d1d1cf1f5c3af92bc0becd68b03f10aee78a02993ccf976c7734a110ad8317f364736f6c63430008040033",
  "linkReferences": {
    "contracts/Bounty.sol": {
      "BountyUtils": [
        {
          "length": 20,
          "start": 2120
        },
        {
          "length": 20,
          "start": 3983
        },
        {
          "length": 20,
          "start": 7268
        },
        {
          "length": 20,
          "start": 9837
        }
      ]
    },
    "contracts/DeadlineUtils.sol": {
      "DeadlineUtils": [
        {
          "length": 20,
          "start": 4911
        },
        {
          "length": 20,
          "start": 6112
        },
        {
          "length": 20,
          "start": 6790
        },
        {
          "length": 20,
          "start": 12150
        }
      ]
    },
    "contracts/MathUtils.sol": {
      "MathUtils": [
        {
          "length": 20,
          "start": 14295
        }
      ]
    }
  },
  "deployedLinkReferences": {
    "contracts/Bounty.sol": {
      "BountyUtils": [
        {
          "length": 20,
          "start": 1834
        },
        {
          "length": 20,
          "start": 3697
        },
        {
          "length": 20,
          "start": 6982
        },
        {
          "length": 20,
          "start": 9551
        }
      ]
    },
    "contracts/DeadlineUtils.sol": {
      "DeadlineUtils": [
        {
          "length": 20,
          "start": 4625
        },
        {
          "length": 20,
          "start": 5826
        },
        {
          "length": 20,
          "start": 6504
        },
        {
          "length": 20,
          "start": 11864
        }
      ]
    },
    "contracts/MathUtils.sol": {
      "MathUtils": [
        {
          "length": 20,
          "start": 14009
        }
      ]
    }
  }
}