{
  "_format": "hh-sol-artifact-1",
  "contractName": "WorkFi",
  "sourceName": "contracts/WorkFi.sol",
  "abi": [
    {
      "inputs": [],
      "name": "AWorkerWasAlreadyAccepted",
      "type": "error"
    },
    {
      "inputs": [],
      "name": "BountyDoesNotExist",
      "type": "error"
    },
    {
      "inputs": [],
      "name": "BountyIsNotCancelled",
      "type": "error"
    },
    {
      "inputs": [],
      "name": "BountyIsNotOngoing",
      "type": "error"
    },
    {
      "inputs": [],
      "name": "InvestmentOpportunityIsClosed",
      "type": "error"
    },
    {
      "inputs": [],
      "name": "InvestmentOpportunityIsStillOpen",
      "type": "error"
    },
    {
      "inputs": [
        {
          "internalType": "uint128",
          "name": "maxPossibleAmount",
          "type": "uint128"
        }
      ],
      "name": "MaxInvestmentExceeded",
      "type": "error"
    },
    {
      "inputs": [],
      "name": "NotAWhitelistedStablecoin",
      "type": "error"
    },
    {
      "inputs": [],
      "name": "NotAnInvestor",
      "type": "error"
    },
    {
      "inputs": [],
      "name": "NotRecruiter",
      "type": "error"
    },
    {
      "inputs": [],
      "name": "NotTheWorker",
      "type": "error"
    },
    {
      "inputs": [],
      "name": "RecruiterCannotInvest",
      "type": "error"
    },
    {
      "inputs": [
        {
          "internalType": "uint128",
          "name": "required",
          "type": "uint128"
        }
      ],
      "name": "ThisAmountOfEthIsRequired",
      "type": "error"
    },
    {
      "inputs": [],
      "name": "ValueShouldBeZeroIfNotPayingWithEth",
      "type": "error"
    },
    {
      "inputs": [],
      "name": "WorkerCannotBeZero",
      "type": "error"
    },
    {
      "inputs": [],
      "name": "WorkerCannotInvest",
      "type": "error"
    },
    {
      "inputs": [],
      "name": "WorkerDeadlineExpired",
      "type": "error"
    },
    {
      "inputs": [],
      "name": "WorkerHasBeenPaid",
      "type": "error"
    },
    {
      "anonymous": false,
      "inputs": [
        {
          "indexed": true,
          "internalType": "uint256",
          "name": "bountyId",
          "type": "uint256"
        }
      ],
      "name": "BountyCancelled",
      "type": "event"
    },
    {
      "anonymous": false,
      "inputs": [
        {
          "indexed": true,
          "internalType": "uint256",
          "name": "bountyId",
          "type": "uint256"
        }
      ],
      "name": "BountyCompleted",
      "type": "event"
    },
    {
      "anonymous": false,
      "inputs": [
        {
          "indexed": true,
          "internalType": "uint256",
          "name": "bountyId",
          "type": "uint256"
        },
        {
          "indexed": true,
          "internalType": "address",
          "name": "recruiter",
          "type": "address"
        }
      ],
      "name": "BountyCreated",
      "type": "event"
    },
    {
      "anonymous": false,
      "inputs": [
        {
          "indexed": true,
          "internalType": "uint256",
          "name": "bountyId",
          "type": "uint256"
        },
        {
          "indexed": true,
          "internalType": "address",
          "name": "investor",
          "type": "address"
        },
        {
          "indexed": false,
          "internalType": "uint128",
          "name": "amount",
          "type": "uint128"
        }
      ],
      "name": "Invested",
      "type": "event"
    },
    {
      "anonymous": false,
      "inputs": [
        {
          "indexed": true,
          "internalType": "uint256",
          "name": "bountyId",
          "type": "uint256"
        }
      ],
      "name": "InvestmentsWithdrawn",
      "type": "event"
    },
    {
      "anonymous": false,
      "inputs": [
        {
          "indexed": true,
          "internalType": "uint256",
          "name": "bountyId",
          "type": "uint256"
        },
        {
          "indexed": false,
          "internalType": "uint128",
          "name": "payment",
          "type": "uint128"
        }
      ],
      "name": "InvestorPaymentAccepted",
      "type": "event"
    },
    {
      "anonymous": false,
      "inputs": [
        {
          "indexed": true,
          "internalType": "address",
          "name": "previousOwner",
          "type": "address"
        },
        {
          "indexed": true,
          "internalType": "address",
          "name": "newOwner",
          "type": "address"
        }
      ],
      "name": "OwnershipTransferred",
      "type": "event"
    },
    {
      "anonymous": false,
      "inputs": [
        {
          "indexed": true,
          "internalType": "address",
          "name": "stablecoin",
          "type": "address"
        }
      ],
      "name": "StablecoinAddedToWhitelist",
      "type": "event"
    },
    {
      "anonymous": false,
      "inputs": [
        {
          "indexed": true,
          "internalType": "address",
          "name": "stablecoin",
          "type": "address"
        }
      ],
      "name": "StablecoinRemovedFromWhitelist",
      "type": "event"
    },
    {
      "anonymous": false,
      "inputs": [
        {
          "indexed": true,
          "internalType": "uint256",
          "name": "bountyId",
          "type": "uint256"
        },
        {
          "indexed": true,
          "internalType": "address",
          "name": "worker",
          "type": "address"
        }
      ],
      "name": "WorkerAccepted",
      "type": "event"
    },
    {
      "anonymous": false,
      "inputs": [
        {
          "indexed": true,
          "internalType": "uint256",
          "name": "bountyId",
          "type": "uint256"
        },
        {
          "indexed": false,
          "internalType": "uint128",
          "name": "nativePay",
          "type": "uint128"
        },
        {
          "indexed": false,
          "internalType": "uint128",
          "name": "stablePay",
          "type": "uint128"
        }
      ],
      "name": "WorkerPaymentAccepted",
      "type": "event"
    },
    {
      "inputs": [
        {
          "internalType": "uint256",
          "name": "bountyId",
          "type": "uint256"
        }
      ],
      "name": "acceptInvestorPayment",
      "outputs": [],
      "stateMutability": "nonpayable",
      "type": "function"
    },
    {
      "inputs": [
        {
          "internalType": "uint256",
          "name": "bountyId",
          "type": "uint256"
        },
        {
          "internalType": "address",
          "name": "worker",
          "type": "address"
        }
      ],
      "name": "acceptWorker",
      "outputs": [],
      "stateMutability": "nonpayable",
      "type": "function"
    },
    {
      "inputs": [
        {
          "internalType": "uint256",
          "name": "bountyId",
          "type": "uint256"
        }
      ],
      "name": "acceptWorkerPayment",
      "outputs": [],
      "stateMutability": "nonpayable",
      "type": "function"
    },
    {
      "inputs": [
        {
          "internalType": "address",
          "name": "stablecoin",
          "type": "address"
        }
      ],
      "name": "addStablecoinToWhitelist",
      "outputs": [],
      "stateMutability": "nonpayable",
      "type": "function"
    },
    {
      "inputs": [
        {
          "internalType": "uint128",
          "name": "workerNativePay",
          "type": "uint128"
        },
        {
          "internalType": "uint128",
          "name": "dailyYieldPercentage",
          "type": "uint128"
        },
        {
          "internalType": "uint256",
          "name": "bountyCreationDate",
          "type": "uint256"
        },
        {
          "internalType": "uint256",
          "name": "workerDeadline",
          "type": "uint256"
        }
      ],
      "name": "calculateYieldPool",
      "outputs": [
        {
          "internalType": "uint128",
          "name": "",
          "type": "uint128"
        }
      ],
      "stateMutability": "pure",
      "type": "function"
    },
    {
      "inputs": [
        {
          "internalType": "uint256",
          "name": "bountyId",
          "type": "uint256"
        }
      ],
      "name": "cancelBounty",
      "outputs": [],
      "stateMutability": "nonpayable",
      "type": "function"
    },
    {
      "inputs": [
        {
          "internalType": "uint128",
          "name": "workerStablePay",
          "type": "uint128"
        },
        {
          "internalType": "uint128",
          "name": "workerNativePay",
          "type": "uint128"
        },
        {
          "internalType": "uint96",
          "name": "exchangeRate",
          "type": "uint96"
        },
        {
          "internalType": "address",
          "name": "nativeToken",
          "type": "address"
        },
        {
          "internalType": "address",
          "name": "stablecoin",
          "type": "address"
        },
        {
          "internalType": "uint128",
          "name": "dailyYieldPercentage",
          "type": "uint128"
        },
        {
          "internalType": "uint256",
          "name": "workerDeadline",
          "type": "uint256"
        }
      ],
      "name": "createBounty",
      "outputs": [
        {
          "internalType": "uint256",
          "name": "",
          "type": "uint256"
        }
      ],
      "stateMutability": "payable",
      "type": "function"
    },
    {
      "inputs": [
        {
          "internalType": "uint256",
          "name": "bountyId",
          "type": "uint256"
        }
      ],
      "name": "getAmountOfInvestments",
      "outputs": [
        {
          "internalType": "uint256",
          "name": "",
          "type": "uint256"
        }
      ],
      "stateMutability": "view",
      "type": "function"
    },
    {
      "inputs": [
        {
          "internalType": "uint256",
          "name": "bountyId",
          "type": "uint256"
        }
      ],
      "name": "getBounty",
      "outputs": [
        {
          "components": [
            {
              "internalType": "uint128",
              "name": "workerStablePay",
              "type": "uint128"
            },
            {
              "internalType": "uint128",
              "name": "workerNativePay",
              "type": "uint128"
            },
            {
              "internalType": "uint96",
              "name": "exchangeRate",
              "type": "uint96"
            },
            {
              "internalType": "address",
              "name": "stablecoin",
              "type": "address"
            },
            {
              "internalType": "address",
              "name": "nativeToken",
              "type": "address"
            },
            {
              "internalType": "uint128",
              "name": "dailyYieldPercentage",
              "type": "uint128"
            },
            {
              "internalType": "address",
              "name": "worker",
              "type": "address"
            },
            {
              "internalType": "address",
              "name": "recruiter",
              "type": "address"
            },
            {
              "internalType": "enum BountyStatus",
              "name": "status",
              "type": "uint8"
            },
            {
              "internalType": "uint256",
              "name": "workerDeadline",
              "type": "uint256"
            },
            {
              "internalType": "uint128",
              "name": "initialWorkerStablePay",
              "type": "uint128"
            },
            {
              "internalType": "uint128",
              "name": "initialWorkerNativePay",
              "type": "uint128"
            },
            {
              "internalType": "uint256",
              "name": "creationDate",
              "type": "uint256"
            }
          ],
          "internalType": "struct BountyMetadata",
          "name": "",
          "type": "tuple"
        }
      ],
      "stateMutability": "view",
      "type": "function"
    },
    {
      "inputs": [
        {
          "internalType": "uint256",
          "name": "bountyId",
          "type": "uint256"
        },
        {
          "internalType": "uint256",
          "name": "investmentId",
          "type": "uint256"
        }
      ],
      "name": "getInvestment",
      "outputs": [
        {
          "components": [
            {
              "internalType": "uint128",
              "name": "stableAmount",
              "type": "uint128"
            },
            {
              "internalType": "uint128",
              "name": "nativeTokenPayment",
              "type": "uint128"
            }
          ],
          "internalType": "struct IWorkFi.InvestmentMetadata",
          "name": "",
          "type": "tuple"
        }
      ],
      "stateMutability": "view",
      "type": "function"
    },
    {
      "inputs": [
        {
          "internalType": "uint256",
          "name": "bountyId",
          "type": "uint256"
        },
        {
          "internalType": "uint128",
          "name": "stableAmount",
          "type": "uint128"
        }
      ],
      "name": "invest",
      "outputs": [],
      "stateMutability": "nonpayable",
      "type": "function"
    },
    {
      "inputs": [
        {
          "internalType": "uint256",
          "name": "bountyId",
          "type": "uint256"
        }
      ],
      "name": "markBountyAsCompleted",
      "outputs": [],
      "stateMutability": "nonpayable",
      "type": "function"
    },
    {
      "inputs": [],
      "name": "owner",
      "outputs": [
        {
          "internalType": "address",
          "name": "",
          "type": "address"
        }
      ],
      "stateMutability": "view",
      "type": "function"
    },
    {
      "inputs": [
        {
          "internalType": "address",
          "name": "stablecoin",
          "type": "address"
        }
      ],
      "name": "removeStablecoinFromWhitelist",
      "outputs": [],
      "stateMutability": "nonpayable",
      "type": "function"
    },
    {
      "inputs": [],
      "name": "renounceOwnership",
      "outputs": [],
      "stateMutability": "nonpayable",
      "type": "function"
    },
    {
      "inputs": [
        {
          "internalType": "address",
          "name": "newOwner",
          "type": "address"
        }
      ],
      "name": "transferOwnership",
      "outputs": [],
      "stateMutability": "nonpayable",
      "type": "function"
    },
    {
      "inputs": [
        {
          "internalType": "uint256",
          "name": "bountyId",
          "type": "uint256"
        }
      ],
      "name": "withdrawInvestments",
      "outputs": [],
      "stateMutability": "nonpayable",
      "type": "function"
    }
  ],
  "bytecode": "0x60806040523480156200001157600080fd5b5060016000819055506200003a6200002e6200004060201b60201c565b6200004860201b60201c565b6200010e565b600033905090565b6000600160009054906101000a900473ffffffffffffffffffffffffffffffffffffffff16905081600160006101000a81548173ffffffffffffffffffffffffffffffffffffffff021916908373ffffffffffffffffffffffffffffffffffffffff1602179055508173ffffffffffffffffffffffffffffffffffffffff168173ffffffffffffffffffffffffffffffffffffffff167f8be0079c531659141344cd1fd0a4f28419497f9722a3daafe3b4186f6b6457e060405160405180910390a35050565b61489b806200011e6000396000f3fe6080604052600436106100fe5760003560e01c80638da5cb5b11610095578063d4d3697c11610064578063d4d3697c1461031b578063e5e5dff114610344578063ee8c4bbf1461036d578063f2fde38b146103aa578063f8ef4d76146103d3576100fe565b80638da5cb5b1461024d578063ac5426ab14610278578063b596a722146102a1578063c0376ce4146102de576100fe565b806358279718116100d157806358279718146101bb5780635c0b1941146101e457806363dd5c1f1461020d578063715018a614610236576100fe565b806308c4f6ed1461010357806321b46a1014610140578063228b6f451461016957806330c3068514610192575b600080fd5b34801561010f57600080fd5b5061012a60048036038101906101259190613cf7565b610403565b6040516101379190614311565b60405180910390f35b34801561014c57600080fd5b5061016760048036038101906101629190613cf7565b610460565b005b34801561017557600080fd5b50610190600480360381019061018b9190613b7b565b610919565b005b34801561019e57600080fd5b506101b960048036038101906101b49190613cf7565b6109bf565b005b3480156101c757600080fd5b506101e260048036038101906101dd9190613d85565b610dd7565b005b3480156101f057600080fd5b5061020b60048036038101906102069190613b7b565b61151a565b005b34801561021957600080fd5b50610234600480360381019061022f9190613d49565b6115c0565b005b34801561024257600080fd5b5061024b611951565b005b34801561025957600080fd5b50610262611965565b60405161026f91906140ca565b60405180910390f35b34801561028457600080fd5b5061029f600480360381019061029a9190613cf7565b61198f565b005b3480156102ad57600080fd5b506102c860048036038101906102c39190613bf6565b611dd9565b6040516102d59190614289565b60405180910390f35b3480156102ea57600080fd5b5061030560048036038101906103009190613dc1565b611e83565b604051610312919061426e565b60405180910390f35b34801561032757600080fd5b50610342600480360381019061033d9190613cf7565b61200f565b005b34801561035057600080fd5b5061036b60048036038101906103669190613cf7565b6122f9565b005b34801561037957600080fd5b50610394600480360381019061038f9190613cf7565b6127a2565b6040516103a1919061420e565b60405180910390f35b3480156103b657600080fd5b506103d160048036038101906103cc9190613b7b565b612bb4565b005b6103ed60048036038101906103e89190613c59565b612c38565b6040516103fa9190614311565b60405180910390f35b60006003600083815260200190815260200160002060003373ffffffffffffffffffffffffffffffffffffffff1673ffffffffffffffffffffffffffffffffffffffff168152602001908152602001600020805490509050919050565b600260005414156104a6576040517f08c379a000000000000000000000000000000000000000000000000000000000815260040161049d906141ee565b60405180910390fd5b60026000819055506002805490508111156104ed576040517f8150e7de00000000000000000000000000000000000000000000000000000000815260040160405180910390fd5b600060026001836104fe9190614505565b81548110610535577f4e487b7100000000000000000000000000000000000000000000000000000000600052603260045260246000fd5b906000526020600020906009020190506002600381111561057f577f4e487b7100000000000000000000000000000000000000000000000000000000600052602160045260246000fd5b8160050160149054906101000a900460ff1660038111156105c9577f4e487b7100000000000000000000000000000000000000000000000000000000600052602160045260246000fd5b1415610601576040517f399acfc500000000000000000000000000000000000000000000000000000000815260040160405180910390fd5b8060040160009054906101000a900473ffffffffffffffffffffffffffffffffffffffff1673ffffffffffffffffffffffffffffffffffffffff163373ffffffffffffffffffffffffffffffffffffffff161461068a576040517fafdf2ce500000000000000000000000000000000000000000000000000000000815260040160405180910390fd5b60008160000160109054906101000a90046fffffffffffffffffffffffffffffffff16905060008260000160009054906101000a90046fffffffffffffffffffffffffffffffff16905060028360050160146101000a81548160ff02191690836003811115610722577f4e487b7100000000000000000000000000000000000000000000000000000000600052602160045260246000fd5b02179055508273__$5e478dcef66b0d39d86eb428706bb5f1c6$__6305d46a1d90916040518263ffffffff1660e01b8152600401610760919061422a565b60006040518083038186803b15801561077857600080fd5b505af415801561078c573d6000803e3d6000fd5b50505050837f0d15d1b7a8256ac701c087dd0be0a0ab20494033aad566e718ffc6ff7863025f83836040516107c29291906142a4565b60405180910390a261082f8360020160009054906101000a900473ffffffffffffffffffffffffffffffffffffffff168460040160009054906101000a900473ffffffffffffffffffffffffffffffffffffffff16846fffffffffffffffffffffffffffffffff166134c9565b600083600101600c9054906101000a900473ffffffffffffffffffffffffffffffffffffffff1690508073ffffffffffffffffffffffffffffffffffffffff1663a9059cbb8560040160009054906101000a900473ffffffffffffffffffffffffffffffffffffffff16846040518363ffffffff1660e01b81526004016108b792919061411c565b602060405180830381600087803b1580156108d157600080fd5b505af11580156108e5573d6000803e3d6000fd5b505050506040513d601f19601f820116820180604052508101906109099190613ba4565b5050505050600160008190555050565b6109216135c5565b6001600460008373ffffffffffffffffffffffffffffffffffffffff1673ffffffffffffffffffffffffffffffffffffffff16815260200190815260200160002060006101000a81548160ff0219169083151502179055508073ffffffffffffffffffffffffffffffffffffffff167fa5b2df84db0941e7676d85be87df7655f22b50609194645573ea63223f97987c60405160405180910390a250565b600060026001836109d09190614505565b81548110610a07577f4e487b7100000000000000000000000000000000000000000000000000000000600052603260045260246000fd5b90600052602060002090600902019050600380811115610a50577f4e487b7100000000000000000000000000000000000000000000000000000000600052602160045260246000fd5b8160050160149054906101000a900460ff166003811115610a9a577f4e487b7100000000000000000000000000000000000000000000000000000000600052602160045260246000fd5b14610ad1576040517f728a2ab600000000000000000000000000000000000000000000000000000000815260040160405180910390fd5b60006003600084815260200190815260200160002060003373ffffffffffffffffffffffffffffffffffffffff1673ffffffffffffffffffffffffffffffffffffffff168152602001908152602001600020805490501415610b5f576040517fb777672400000000000000000000000000000000000000000000000000000000815260040160405180910390fd5b6000805b6003600085815260200190815260200160002060003373ffffffffffffffffffffffffffffffffffffffff1673ffffffffffffffffffffffffffffffffffffffff16815260200190815260200160002080549050811015610c90576003600085815260200190815260200160002060003373ffffffffffffffffffffffffffffffffffffffff1673ffffffffffffffffffffffffffffffffffffffff1681526020019081526020016000208181548110610c46577f4e487b7100000000000000000000000000000000000000000000000000000000600052603260045260246000fd5b9060005260206000200160000160009054906101000a90046fffffffffffffffffffffffffffffffff1682610c7b91906143b6565b91508080610c88906145ec565b915050610b63565b506003600084815260200190815260200160002060003373ffffffffffffffffffffffffffffffffffffffff1673ffffffffffffffffffffffffffffffffffffffff1681526020019081526020016000206000610ced91906138cc565b827f368c7cd8e7f03d52370b8d499e3c7470a0583004359e18a7918d611b2124132260405160405180910390a2600082600101600c9054906101000a900473ffffffffffffffffffffffffffffffffffffffff1690508073ffffffffffffffffffffffffffffffffffffffff1663a9059cbb33846040518363ffffffff1660e01b8152600401610d7e92919061411c565b602060405180830381600087803b158015610d9857600080fd5b505af1158015610dac573d6000803e3d6000fd5b505050506040513d601f19601f82011682018060405250810190610dd09190613ba4565b5050505050565b600280549050821115610e16576040517f8150e7de00000000000000000000000000000000000000000000000000000000815260040160405180910390fd5b60006002600184610e279190614505565b81548110610e5e577f4e487b7100000000000000000000000000000000000000000000000000000000600052603260045260246000fd5b906000526020600020906009020190508073__$5e478dcef66b0d39d86eb428706bb5f1c6$__63580011889091610bb86040518363ffffffff1660e01b8152600401610eab929190614245565b60206040518083038186803b158015610ec357600080fd5b505af4158015610ed7573d6000803e3d6000fd5b505050506040513d601f19601f82011682018060405250810190610efb9190613ba4565b15610f32576040517fb652eee300000000000000000000000000000000000000000000000000000000815260040160405180910390fd5b8060040160009054906101000a900473ffffffffffffffffffffffffffffffffffffffff1673ffffffffffffffffffffffffffffffffffffffff163373ffffffffffffffffffffffffffffffffffffffff161415610fbc576040517f73c37c2800000000000000000000000000000000000000000000000000000000815260040160405180910390fd5b8060050160009054906101000a900473ffffffffffffffffffffffffffffffffffffffff1673ffffffffffffffffffffffffffffffffffffffff163373ffffffffffffffffffffffffffffffffffffffff161415611046576040517f7b42ad9c00000000000000000000000000000000000000000000000000000000815260040160405180910390fd5b600061109c8260000160109054906101000a90046fffffffffffffffffffffffffffffffff168360010160009054906101000a90046bffffffffffffffffffffffff166bffffffffffffffffffffffff16613643565b9050806fffffffffffffffffffffffffffffffff16836fffffffffffffffffffffffffffffffff16111561110757806040517f8cc585e40000000000000000000000000000000000000000000000000000000081526004016110fe9190614289565b60405180910390fd5b60008260010160009054906101000a90046bffffffffffffffffffffffff166bffffffffffffffffffffffff168461113f91906143fc565b9050808360000160108282829054906101000a90046fffffffffffffffffffffffffffffffff1661117091906144d1565b92506101000a8154816fffffffffffffffffffffffffffffffff02191690836fffffffffffffffffffffffffffffffff160217905550838360000160008282829054906101000a90046fffffffffffffffffffffffffffffffff166111d591906143b6565b92506101000a8154816fffffffffffffffffffffffffffffffff02191690836fffffffffffffffffffffffffffffffff160217905550600073__$68f0cd47664ad2a7a4ad3f283322e95943$__63dc00ece18560080154428760060154610bb86040518563ffffffff1660e01b81526004016112549493929190614355565b60206040518083038186803b15801561126c57600080fd5b505af4158015611280573d6000803e3d6000fd5b505050506040513d601f19601f820116820180604052508101906112a49190613bcd565b90506003600087815260200190815260200160002060003373ffffffffffffffffffffffffffffffffffffffff1673ffffffffffffffffffffffffffffffffffffffff1681526020019081526020016000206040518060400160405280876fffffffffffffffffffffffffffffffff168152602001611344888860030160009054906101000a90046fffffffffffffffffffffffffffffffff1686613659565b8561134f91906143b6565b6fffffffffffffffffffffffffffffffff168152509080600181540180825580915050600190039060005260206000200160009091909190915060008201518160000160006101000a8154816fffffffffffffffffffffffffffffffff02191690836fffffffffffffffffffffffffffffffff16021790555060208201518160000160106101000a8154816fffffffffffffffffffffffffffffffff02191690836fffffffffffffffffffffffffffffffff16021790555050503373ffffffffffffffffffffffffffffffffffffffff16867ff53ccaea78f40d9e5e62fd32c3b916b6248bcc781ef9345e206f0674f650b58a876040516114509190614289565b60405180910390a3600084600101600c9054906101000a900473ffffffffffffffffffffffffffffffffffffffff1690508073ffffffffffffffffffffffffffffffffffffffff166323b872dd3330896040518463ffffffff1660e01b81526004016114be939291906140e5565b602060405180830381600087803b1580156114d857600080fd5b505af11580156114ec573d6000803e3d6000fd5b505050506040513d601f19601f820116820180604052508101906115109190613ba4565b5050505050505050565b6115226135c5565b6000600460008373ffffffffffffffffffffffffffffffffffffffff1673ffffffffffffffffffffffffffffffffffffffff16815260200190815260200160002060006101000a81548160ff0219169083151502179055508073ffffffffffffffffffffffffffffffffffffffff167f59e282a3362703b42cb4526d0a76d5f1acc03d3944f5dc8ab0bffc69bddfb6be60405160405180910390a250565b6002805490508211156115ff576040517f8150e7de00000000000000000000000000000000000000000000000000000000815260040160405180910390fd5b600073ffffffffffffffffffffffffffffffffffffffff168173ffffffffffffffffffffffffffffffffffffffff161415611666576040517f2bc20eca00000000000000000000000000000000000000000000000000000000815260040160405180910390fd5b600060026001846116779190614505565b815481106116ae577f4e487b7100000000000000000000000000000000000000000000000000000000600052603260045260246000fd5b9060005260206000209060090201905073__$68f0cd47664ad2a7a4ad3f283322e95943$__63dd50d07f82600601546040518263ffffffff1660e01b81526004016116f991906142f6565b60206040518083038186803b15801561171157600080fd5b505af4158015611725573d6000803e3d6000fd5b505050506040513d601f19601f820116820180604052508101906117499190613ba4565b15611780576040517f0baf493500000000000000000000000000000000000000000000000000000000815260040160405180910390fd5b600060038111156117ba577f4e487b7100000000000000000000000000000000000000000000000000000000600052602160045260246000fd5b8160050160149054906101000a900460ff166003811115611804577f4e487b7100000000000000000000000000000000000000000000000000000000600052602160045260246000fd5b1461183b576040517fb3b8134a00000000000000000000000000000000000000000000000000000000815260040160405180910390fd5b600073ffffffffffffffffffffffffffffffffffffffff168160040160009054906101000a900473ffffffffffffffffffffffffffffffffffffffff1673ffffffffffffffffffffffffffffffffffffffff16146118c5576040517f99c9446b00000000000000000000000000000000000000000000000000000000815260040160405180910390fd5b818160040160006101000a81548173ffffffffffffffffffffffffffffffffffffffff021916908373ffffffffffffffffffffffffffffffffffffffff1602179055508173ffffffffffffffffffffffffffffffffffffffff16837f1d0ba82b48138c804a042cce564f9f9c5a1a903576dda8d1f57545b454142adb60405160405180910390a3505050565b6119596135c5565b611963600061370a565b565b6000600160009054906101000a900473ffffffffffffffffffffffffffffffffffffffff16905090565b600260005414156119d5576040517f08c379a00000000000000000000000000000000000000000000000000000000081526004016119cc906141ee565b60405180910390fd5b6002600081905550600280549050811115611a1c576040517f8150e7de00000000000000000000000000000000000000000000000000000000815260040160405180910390fd5b60006002600183611a2d9190614505565b81548110611a64577f4e487b7100000000000000000000000000000000000000000000000000000000600052603260045260246000fd5b906000526020600020906009020190508073__$5e478dcef66b0d39d86eb428706bb5f1c6$__63580011889091610bb86040518363ffffffff1660e01b8152600401611ab1929190614245565b60206040518083038186803b158015611ac957600080fd5b505af4158015611add573d6000803e3d6000fd5b505050506040513d601f19601f82011682018060405250810190611b019190613ba4565b611b37576040517f5b4ca53900000000000000000000000000000000000000000000000000000000815260040160405180910390fd5b60006003600084815260200190815260200160002060003373ffffffffffffffffffffffffffffffffffffffff1673ffffffffffffffffffffffffffffffffffffffff168152602001908152602001600020805490501415611bc5576040517fb777672400000000000000000000000000000000000000000000000000000000815260040160405180910390fd5b6000805b6003600085815260200190815260200160002060003373ffffffffffffffffffffffffffffffffffffffff1673ffffffffffffffffffffffffffffffffffffffff16815260200190815260200160002080549050811015611cf6576003600085815260200190815260200160002060003373ffffffffffffffffffffffffffffffffffffffff1673ffffffffffffffffffffffffffffffffffffffff1681526020019081526020016000208181548110611cac577f4e487b7100000000000000000000000000000000000000000000000000000000600052603260045260246000fd5b9060005260206000200160000160109054906101000a90046fffffffffffffffffffffffffffffffff1682611ce191906143b6565b91508080611cee906145ec565b915050611bc9565b506003600084815260200190815260200160002060003373ffffffffffffffffffffffffffffffffffffffff1673ffffffffffffffffffffffffffffffffffffffff1681526020019081526020016000206000611d5391906138cc565b827f855ef22eae8ad28734be800428e4ec1671c8d3c1e80c21b12765757cb9b5d53182604051611d839190614289565b60405180910390a2611dcc8260020160009054906101000a900473ffffffffffffffffffffffffffffffffffffffff1633836fffffffffffffffffffffffffffffffff166134c9565b5050600160008190555050565b60008073__$68f0cd47664ad2a7a4ad3f283322e95943$__63dc00ece1858686610bb86040518563ffffffff1660e01b8152600401611e1b9493929190614355565b60206040518083038186803b158015611e3357600080fd5b505af4158015611e47573d6000803e3d6000fd5b505050506040513d601f19601f82011682018060405250810190611e6b9190613bcd565b9050611e78868683613659565b915050949350505050565b611e8b6138ed565b600280549050831115611eca576040517f8150e7de00000000000000000000000000000000000000000000000000000000815260040160405180910390fd5b6003600084815260200190815260200160002060003373ffffffffffffffffffffffffffffffffffffffff1673ffffffffffffffffffffffffffffffffffffffff168152602001908152602001600020600183611f279190614505565b81548110611f5e577f4e487b7100000000000000000000000000000000000000000000000000000000600052603260045260246000fd5b906000526020600020016040518060400160405290816000820160009054906101000a90046fffffffffffffffffffffffffffffffff166fffffffffffffffffffffffffffffffff166fffffffffffffffffffffffffffffffff1681526020016000820160109054906101000a90046fffffffffffffffffffffffffffffffff166fffffffffffffffffffffffffffffffff166fffffffffffffffffffffffffffffffff1681525050905092915050565b60028054905081111561204e576040517f8150e7de00000000000000000000000000000000000000000000000000000000815260040160405180910390fd5b6000600260018361205f9190614505565b81548110612096577f4e487b7100000000000000000000000000000000000000000000000000000000600052603260045260246000fd5b906000526020600020906009020190508060050160009054906101000a900473ffffffffffffffffffffffffffffffffffffffff1673ffffffffffffffffffffffffffffffffffffffff163373ffffffffffffffffffffffffffffffffffffffff161461212f576040517ffc6403e800000000000000000000000000000000000000000000000000000000815260040160405180910390fd5b600073ffffffffffffffffffffffffffffffffffffffff168160040160009054906101000a900473ffffffffffffffffffffffffffffffffffffffff1673ffffffffffffffffffffffffffffffffffffffff1614156121ba576040517f2bc20eca00000000000000000000000000000000000000000000000000000000815260040160405180910390fd5b600060038111156121f4577f4e487b7100000000000000000000000000000000000000000000000000000000600052602160045260246000fd5b8160050160149054906101000a900460ff16600381111561223e577f4e487b7100000000000000000000000000000000000000000000000000000000600052602160045260246000fd5b14612275576040517fb3b8134a00000000000000000000000000000000000000000000000000000000815260040160405180910390fd5b60018160050160146101000a81548160ff021916908360038111156122c3577f4e487b7100000000000000000000000000000000000000000000000000000000600052602160045260246000fd5b0217905550817f687045981c43db01605c41aa9dbf9296e20e6848624353e83979327e96434ccc60405160405180910390a25050565b600280549050811115612338576040517f8150e7de00000000000000000000000000000000000000000000000000000000815260040160405180910390fd5b600060026001836123499190614505565b81548110612380577f4e487b7100000000000000000000000000000000000000000000000000000000600052603260045260246000fd5b906000526020600020906009020190508060050160009054906101000a900473ffffffffffffffffffffffffffffffffffffffff1673ffffffffffffffffffffffffffffffffffffffff163373ffffffffffffffffffffffffffffffffffffffff1614612419576040517ffc6403e800000000000000000000000000000000000000000000000000000000815260040160405180910390fd5b60006003811115612453577f4e487b7100000000000000000000000000000000000000000000000000000000600052602160045260246000fd5b8160050160149054906101000a900460ff16600381111561249d577f4e487b7100000000000000000000000000000000000000000000000000000000600052602160045260246000fd5b146124d4576040517fb3b8134a00000000000000000000000000000000000000000000000000000000815260040160405180910390fd5b60038160050160146101000a81548160ff02191690836003811115612522577f4e487b7100000000000000000000000000000000000000000000000000000000600052602160045260246000fd5b02179055508073__$5e478dcef66b0d39d86eb428706bb5f1c6$__6305d46a1d90916040518263ffffffff1660e01b8152600401612560919061422a565b60006040518083038186803b15801561257857600080fd5b505af415801561258c573d6000803e3d6000fd5b5050505060006125e28260070160109054906101000a90046fffffffffffffffffffffffffffffffff168360030160009054906101000a90046fffffffffffffffffffffffffffffffff16428560060154611dd9565b9050827f92717314c0b0f9d632e1d46a0b8437778ff9daee1db8ec295f2bc0b57c4bcaac60405160405180910390a26126a18260020160009054906101000a900473ffffffffffffffffffffffffffffffffffffffff168360050160009054906101000a900473ffffffffffffffffffffffffffffffffffffffff16838560070160109054906101000a90046fffffffffffffffffffffffffffffffff1661268a91906143b6565b6fffffffffffffffffffffffffffffffff166134c9565b600082600101600c9054906101000a900473ffffffffffffffffffffffffffffffffffffffff1690508073ffffffffffffffffffffffffffffffffffffffff1663a9059cbb8460050160009054906101000a900473ffffffffffffffffffffffffffffffffffffffff168560070160009054906101000a90046fffffffffffffffffffffffffffffffff166040518363ffffffff1660e01b815260040161274992919061411c565b602060405180830381600087803b15801561276357600080fd5b505af1158015612777573d6000803e3d6000fd5b505050506040513d601f19601f8201168201806040525081019061279b9190613ba4565b5050505050565b6127aa61392b565b60026001836127b99190614505565b815481106127f0577f4e487b7100000000000000000000000000000000000000000000000000000000600052603260045260246000fd5b9060005260206000209060090201604051806101a00160405290816000820160009054906101000a90046fffffffffffffffffffffffffffffffff166fffffffffffffffffffffffffffffffff166fffffffffffffffffffffffffffffffff1681526020016000820160109054906101000a90046fffffffffffffffffffffffffffffffff166fffffffffffffffffffffffffffffffff166fffffffffffffffffffffffffffffffff1681526020016001820160009054906101000a90046bffffffffffffffffffffffff166bffffffffffffffffffffffff166bffffffffffffffffffffffff16815260200160018201600c9054906101000a900473ffffffffffffffffffffffffffffffffffffffff1673ffffffffffffffffffffffffffffffffffffffff1673ffffffffffffffffffffffffffffffffffffffff1681526020016002820160009054906101000a900473ffffffffffffffffffffffffffffffffffffffff1673ffffffffffffffffffffffffffffffffffffffff1673ffffffffffffffffffffffffffffffffffffffff1681526020016003820160009054906101000a90046fffffffffffffffffffffffffffffffff166fffffffffffffffffffffffffffffffff166fffffffffffffffffffffffffffffffff1681526020016004820160009054906101000a900473ffffffffffffffffffffffffffffffffffffffff1673ffffffffffffffffffffffffffffffffffffffff1673ffffffffffffffffffffffffffffffffffffffff1681526020016005820160009054906101000a900473ffffffffffffffffffffffffffffffffffffffff1673ffffffffffffffffffffffffffffffffffffffff1673ffffffffffffffffffffffffffffffffffffffff1681526020016005820160149054906101000a900460ff166003811115612ac9577f4e487b7100000000000000000000000000000000000000000000000000000000600052602160045260246000fd5b6003811115612b01577f4e487b7100000000000000000000000000000000000000000000000000000000600052602160045260246000fd5b8152602001600682015481526020016007820160009054906101000a90046fffffffffffffffffffffffffffffffff166fffffffffffffffffffffffffffffffff166fffffffffffffffffffffffffffffffff1681526020016007820160109054906101000a90046fffffffffffffffffffffffffffffffff166fffffffffffffffffffffffffffffffff166fffffffffffffffffffffffffffffffff1681526020016008820154815250509050919050565b612bbc6135c5565b600073ffffffffffffffffffffffffffffffffffffffff168173ffffffffffffffffffffffffffffffffffffffff161415612c2c576040517f08c379a0000000000000000000000000000000000000000000000000000000008152600401612c239061416e565b60405180910390fd5b612c358161370a565b50565b600060026000541415612c80576040517f08c379a0000000000000000000000000000000000000000000000000000000008152600401612c77906141ee565b60405180910390fd5b60026000819055506000612c9688854286611dd9565b905060008189612ca691906143b6565b9050600073ffffffffffffffffffffffffffffffffffffffff168773ffffffffffffffffffffffffffffffffffffffff161415612d3857806fffffffffffffffffffffffffffffffff163414612d3357806040517fec7fbc5d000000000000000000000000000000000000000000000000000000008152600401612d2a9190614289565b60405180910390fd5b612d74565b6000341115612d73576040517f0aebd0a100000000000000000000000000000000000000000000000000000000815260040160405180910390fd5b5b600460008773ffffffffffffffffffffffffffffffffffffffff1673ffffffffffffffffffffffffffffffffffffffff16815260200190815260200160002060009054906101000a900460ff16612df7576040517fa361c61a00000000000000000000000000000000000000000000000000000000815260040160405180910390fd5b73__$68f0cd47664ad2a7a4ad3f283322e95943$__636d13eebf42866040518363ffffffff1660e01b8152600401612e3092919061432c565b60006040518083038186803b158015612e4857600080fd5b505af4158015612e5c573d6000803e3d6000fd5b505050506000604051806101a001604052808c6fffffffffffffffffffffffffffffffff1681526020018b6fffffffffffffffffffffffffffffffff1681526020018a6bffffffffffffffffffffffff1681526020018873ffffffffffffffffffffffffffffffffffffffff1681526020018973ffffffffffffffffffffffffffffffffffffffff168152602001876fffffffffffffffffffffffffffffffff168152602001600073ffffffffffffffffffffffffffffffffffffffff1681526020013373ffffffffffffffffffffffffffffffffffffffff16815260200160006003811115612f75577f4e487b7100000000000000000000000000000000000000000000000000000000600052602160045260246000fd5b81526020018681526020018c6fffffffffffffffffffffffffffffffff1681526020018b6fffffffffffffffffffffffffffffffff168152602001428152509050600281908060018154018082558091505060019003906000526020600020906009020160009091909190915060008201518160000160006101000a8154816fffffffffffffffffffffffffffffffff02191690836fffffffffffffffffffffffffffffffff16021790555060208201518160000160106101000a8154816fffffffffffffffffffffffffffffffff02191690836fffffffffffffffffffffffffffffffff16021790555060408201518160010160006101000a8154816bffffffffffffffffffffffff02191690836bffffffffffffffffffffffff160217905550606082015181600101600c6101000a81548173ffffffffffffffffffffffffffffffffffffffff021916908373ffffffffffffffffffffffffffffffffffffffff16021790555060808201518160020160006101000a81548173ffffffffffffffffffffffffffffffffffffffff021916908373ffffffffffffffffffffffffffffffffffffffff16021790555060a08201518160030160006101000a8154816fffffffffffffffffffffffffffffffff02191690836fffffffffffffffffffffffffffffffff16021790555060c08201518160040160006101000a81548173ffffffffffffffffffffffffffffffffffffffff021916908373ffffffffffffffffffffffffffffffffffffffff16021790555060e08201518160050160006101000a81548173ffffffffffffffffffffffffffffffffffffffff021916908373ffffffffffffffffffffffffffffffffffffffff1602179055506101008201518160050160146101000a81548160ff02191690836003811115613244577f4e487b7100000000000000000000000000000000000000000000000000000000600052602160045260246000fd5b021790555061012082015181600601556101408201518160070160006101000a8154816fffffffffffffffffffffffffffffffff02191690836fffffffffffffffffffffffffffffffff1602179055506101608201518160070160106101000a8154816fffffffffffffffffffffffffffffffff02191690836fffffffffffffffffffffffffffffffff160217905550610180820151816008015550503373ffffffffffffffffffffffffffffffffffffffff166002805490507fa42a102b7be732c6c110f2a200de7ae4a49832e42c61c6c194cf1c94fbc5042e60405160405180910390a3600073ffffffffffffffffffffffffffffffffffffffff168873ffffffffffffffffffffffffffffffffffffffff16146133f55760008890508073ffffffffffffffffffffffffffffffffffffffff166323b872dd3330866040518463ffffffff1660e01b81526004016133a0939291906140e5565b602060405180830381600087803b1580156133ba57600080fd5b505af11580156133ce573d6000803e3d6000fd5b505050506040513d601f19601f820116820180604052508101906133f29190613ba4565b50505b60008b6fffffffffffffffffffffffffffffffff1611156134ab576000816060015190508073ffffffffffffffffffffffffffffffffffffffff166323b872dd33308f6040518463ffffffff1660e01b8152600401613456939291906140e5565b602060405180830381600087803b15801561347057600080fd5b505af1158015613484573d6000803e3d6000fd5b505050506040513d601f19601f820116820180604052508101906134a89190613ba4565b50505b60028054905093505050506001600081905550979650505050505050565b600073ffffffffffffffffffffffffffffffffffffffff168373ffffffffffffffffffffffffffffffffffffffff16146135965760008390508073ffffffffffffffffffffffffffffffffffffffff1663a9059cbb84846040518363ffffffff1660e01b815260040161353d929190614145565b602060405180830381600087803b15801561355757600080fd5b505af115801561356b573d6000803e3d6000fd5b505050506040513d601f19601f8201168201806040525081019061358f9190613ba4565b50506135c0565b6135bf818373ffffffffffffffffffffffffffffffffffffffff166137d090919063ffffffff16565b5b505050565b6135cd6138c4565b73ffffffffffffffffffffffffffffffffffffffff166135eb611965565b73ffffffffffffffffffffffffffffffffffffffff1614613641576040517f08c379a0000000000000000000000000000000000000000000000000000000008152600401613638906141ce565b60405180910390fd5b565b60008183613651919061442d565b905092915050565b6000816fffffffffffffffffffffffffffffffff1673__$5dc460cc747dc4210092f6da12cdb25a64$__632133e3b986866040518363ffffffff1660e01b81526004016136a79291906142cd565b60206040518083038186803b1580156136bf57600080fd5b505af41580156136d3573d6000803e3d6000fd5b505050506040513d601f19601f820116820180604052508101906136f79190613d20565b6137019190614477565b90509392505050565b6000600160009054906101000a900473ffffffffffffffffffffffffffffffffffffffff16905081600160006101000a81548173ffffffffffffffffffffffffffffffffffffffff021916908373ffffffffffffffffffffffffffffffffffffffff1602179055508173ffffffffffffffffffffffffffffffffffffffff168173ffffffffffffffffffffffffffffffffffffffff167f8be0079c531659141344cd1fd0a4f28419497f9722a3daafe3b4186f6b6457e060405160405180910390a35050565b80471015613813576040517f08c379a000000000000000000000000000000000000000000000000000000000815260040161380a906141ae565b60405180910390fd5b60008273ffffffffffffffffffffffffffffffffffffffff1682604051613839906140b5565b60006040518083038185875af1925050503d8060008114613876576040519150601f19603f3d011682016040523d82523d6000602084013e61387b565b606091505b50509050806138bf576040517f08c379a00000000000000000000000000000000000000000000000000000000081526004016138b69061418e565b60405180910390fd5b505050565b600033905090565b50805460008255906000526020600020908101906138ea9190613a8b565b50565b604051806040016040528060006fffffffffffffffffffffffffffffffff16815260200160006fffffffffffffffffffffffffffffffff1681525090565b604051806101a0016040528060006fffffffffffffffffffffffffffffffff16815260200160006fffffffffffffffffffffffffffffffff16815260200160006bffffffffffffffffffffffff168152602001600073ffffffffffffffffffffffffffffffffffffffff168152602001600073ffffffffffffffffffffffffffffffffffffffff16815260200160006fffffffffffffffffffffffffffffffff168152602001600073ffffffffffffffffffffffffffffffffffffffff168152602001600073ffffffffffffffffffffffffffffffffffffffff16815260200160006003811115613a45577f4e487b7100000000000000000000000000000000000000000000000000000000600052602160045260246000fd5b81526020016000815260200160006fffffffffffffffffffffffffffffffff16815260200160006fffffffffffffffffffffffffffffffff168152602001600081525090565b5b80821115613ae457600080820160006101000a8154906fffffffffffffffffffffffffffffffff02191690556000820160106101000a8154906fffffffffffffffffffffffffffffffff021916905550600101613a8c565b5090565b600081359050613af7816147f2565b92915050565b600081519050613b0c81614809565b92915050565b600081359050613b2181614820565b92915050565b600081519050613b3681614820565b92915050565b600081359050613b4b81614837565b92915050565b600081519050613b6081614837565b92915050565b600081359050613b758161484e565b92915050565b600060208284031215613b8d57600080fd5b6000613b9b84828501613ae8565b91505092915050565b600060208284031215613bb657600080fd5b6000613bc484828501613afd565b91505092915050565b600060208284031215613bdf57600080fd5b6000613bed84828501613b27565b91505092915050565b60008060008060808587031215613c0c57600080fd5b6000613c1a87828801613b12565b9450506020613c2b87828801613b12565b9350506040613c3c87828801613b3c565b9250506060613c4d87828801613b3c565b91505092959194509250565b600080600080600080600060e0888a031215613c7457600080fd5b6000613c828a828b01613b12565b9750506020613c938a828b01613b12565b9650506040613ca48a828b01613b66565b9550506060613cb58a828b01613ae8565b9450506080613cc68a828b01613ae8565b93505060a0613cd78a828b01613b12565b92505060c0613ce88a828b01613b3c565b91505092959891949750929550565b600060208284031215613d0957600080fd5b6000613d1784828501613b3c565b91505092915050565b600060208284031215613d3257600080fd5b6000613d4084828501613b51565b91505092915050565b60008060408385031215613d5c57600080fd5b6000613d6a85828601613b3c565b9250506020613d7b85828601613ae8565b9150509250929050565b60008060408385031215613d9857600080fd5b6000613da685828601613b3c565b9250506020613db785828601613b12565b9150509250929050565b60008060408385031215613dd457600080fd5b6000613de285828601613b3c565b9250506020613df385828601613b3c565b9150509250929050565b613e0681614539565b82525050565b613e1581614539565b82525050565b613e24816145c8565b82525050565b6000613e376026836143a5565b9150613e42826146c2565b604082019050919050565b6000613e5a603a836143a5565b9150613e6582614711565b604082019050919050565b6000613e7d601d836143a5565b9150613e8882614760565b602082019050919050565b6000613ea06020836143a5565b9150613eab82614789565b602082019050919050565b6000613ec360008361439a565b9150613ece826147b2565b600082019050919050565b6000613ee6601f836143a5565b9150613ef1826147b5565b602082019050919050565b6101a082016000820151613f13600085018261403d565b506020820151613f26602085018261403d565b506040820151613f3960408501826140a6565b506060820151613f4c6060850182613dfd565b506080820151613f5f6080850182613dfd565b5060a0820151613f7260a085018261403d565b5060c0820151613f8560c0850182613dfd565b5060e0820151613f9860e0850182613dfd565b50610100820151613fad610100850182613e1b565b50610120820151613fc2610120850182614079565b50610140820151613fd761014085018261403d565b50610160820151613fec61016085018261403d565b50610180820151614001610180850182614079565b50505050565b8082525050565b604082016000820151614024600085018261403d565b506020820151614037602085018261403d565b50505050565b6140468161456a565b82525050565b6140558161456a565b82525050565b614064816145da565b82525050565b614073816145da565b82525050565b614082816145a6565b82525050565b614091816145a6565b82525050565b6140a0816145a6565b82525050565b6140af816145b0565b82525050565b60006140c082613eb6565b9150819050919050565b60006020820190506140df6000830184613e0c565b92915050565b60006060820190506140fa6000830186613e0c565b6141076020830185613e0c565b614114604083018461405b565b949350505050565b60006040820190506141316000830185613e0c565b61413e602083018461405b565b9392505050565b600060408201905061415a6000830185613e0c565b6141676020830184614088565b9392505050565b6000602082019050818103600083015261418781613e2a565b9050919050565b600060208201905081810360008301526141a781613e4d565b9050919050565b600060208201905081810360008301526141c781613e70565b9050919050565b600060208201905081810360008301526141e781613e93565b9050919050565b6000602082019050818103600083015261420781613ed9565b9050919050565b60006101a0820190506142246000830184613efc565b92915050565b600060208201905061423f6000830184614007565b92915050565b600060408201905061425a6000830185614007565b6142676020830184614097565b9392505050565b6000604082019050614283600083018461400e565b92915050565b600060208201905061429e600083018461404c565b92915050565b60006040820190506142b9600083018561404c565b6142c6602083018461404c565b9392505050565b60006040820190506142e2600083018561406a565b6142ef602083018461406a565b9392505050565b600060208201905061430b6000830184614097565b92915050565b60006020820190506143266000830184614088565b92915050565b60006040820190506143416000830185614097565b61434e6020830184614097565b9392505050565b600060808201905061436a6000830187614097565b6143776020830186614097565b6143846040830185614097565b6143916060830184614097565b95945050505050565b600081905092915050565b600082825260208201905092915050565b60006143c18261456a565b91506143cc8361456a565b9250826fffffffffffffffffffffffffffffffff038211156143f1576143f0614635565b5b828201905092915050565b60006144078261456a565b91506144128361456a565b92508261442257614421614664565b5b828204905092915050565b60006144388261456a565b91506144438361456a565b9250816fffffffffffffffffffffffffffffffff048311821515161561446c5761446b614635565b5b828202905092915050565b6000614482826145a6565b915061448d836145a6565b9250817fffffffffffffffffffffffffffffffffffffffffffffffffffffffffffffffff04831182151516156144c6576144c5614635565b5b828202905092915050565b60006144dc8261456a565b91506144e78361456a565b9250828210156144fa576144f9614635565b5b828203905092915050565b6000614510826145a6565b915061451b836145a6565b92508282101561452e5761452d614635565b5b828203905092915050565b600061454482614586565b9050919050565b60008115159050919050565b6000819050614565826147de565b919050565b60006fffffffffffffffffffffffffffffffff82169050919050565b600073ffffffffffffffffffffffffffffffffffffffff82169050919050565b6000819050919050565b60006bffffffffffffffffffffffff82169050919050565b60006145d382614557565b9050919050565b60006145e58261456a565b9050919050565b60006145f7826145a6565b91507fffffffffffffffffffffffffffffffffffffffffffffffffffffffffffffffff82141561462a57614629614635565b5b600182019050919050565b7f4e487b7100000000000000000000000000000000000000000000000000000000600052601160045260246000fd5b7f4e487b7100000000000000000000000000000000000000000000000000000000600052601260045260246000fd5b7f4e487b7100000000000000000000000000000000000000000000000000000000600052602160045260246000fd5b7f4f776e61626c653a206e6577206f776e657220697320746865207a65726f206160008201527f6464726573730000000000000000000000000000000000000000000000000000602082015250565b7f416464726573733a20756e61626c6520746f2073656e642076616c75652c207260008201527f6563697069656e74206d61792068617665207265766572746564000000000000602082015250565b7f416464726573733a20696e73756666696369656e742062616c616e6365000000600082015250565b7f4f776e61626c653a2063616c6c6572206973206e6f7420746865206f776e6572600082015250565b50565b7f5265656e7472616e637947756172643a207265656e7472616e742063616c6c00600082015250565b600481106147ef576147ee614693565b5b50565b6147fb81614539565b811461480657600080fd5b50565b6148128161454b565b811461481d57600080fd5b50565b6148298161456a565b811461483457600080fd5b50565b614840816145a6565b811461484b57600080fd5b50565b614857816145b0565b811461486257600080fd5b5056fea26469706673582212203f776100ece7ee6d1622201dc68159bc2379d93846f87b32342f0a290e1bcef564736f6c63430008040033",
  "linkReferences": {
    "contracts/Bounty.sol": {
      "BountyUtils": [
        {
          "length": 20,
          "start": 2120
        },
        {
          "length": 20,
          "start": 3983
        },
        {
          "length": 20,
          "start": 7061
        },
        {
          "length": 20,
          "start": 9800
        }
      ]
    },
    "contracts/DeadlineUtils.sol": {
      "DeadlineUtils": [
        {
          "length": 20,
          "start": 4909
        },
        {
          "length": 20,
          "start": 6110
        },
        {
          "length": 20,
          "start": 7932
        },
        {
          "length": 20,
          "start": 12055
        }
      ]
    },
    "contracts/MathUtils.sol": {
      "MathUtils": [
        {
          "length": 20,
          "start": 14222
        }
      ]
    }
  },
  "deployedLinkReferences": {
    "contracts/Bounty.sol": {
      "BountyUtils": [
        {
          "length": 20,
          "start": 1834
        },
        {
          "length": 20,
          "start": 3697
        },
        {
          "length": 20,
          "start": 6775
        },
        {
          "length": 20,
          "start": 9514
        }
      ]
    },
    "contracts/DeadlineUtils.sol": {
      "DeadlineUtils": [
        {
          "length": 20,
          "start": 4623
        },
        {
          "length": 20,
          "start": 5824
        },
        {
          "length": 20,
          "start": 7646
        },
        {
          "length": 20,
          "start": 11769
        }
      ]
    },
    "contracts/MathUtils.sol": {
      "MathUtils": [
        {
          "length": 20,
          "start": 13936
        }
      ]
    }
  }
}