{
  "_format": "hh-sol-artifact-1",
  "contractName": "WorkFi",
  "sourceName": "contracts/WorkFi.sol",
  "abi": [
    {
      "inputs": [
        {
          "internalType": "uint256",
          "name": "bountyId",
          "type": "uint256"
        }
      ],
      "name": "acceptPayment",
      "outputs": [],
      "stateMutability": "nonpayable",
      "type": "function"
    },
    {
      "inputs": [
        {
          "internalType": "uint256",
          "name": "bountyId",
          "type": "uint256"
        },
        {
          "internalType": "address",
          "name": "worker",
          "type": "address"
        }
      ],
      "name": "acceptWorker",
      "outputs": [],
      "stateMutability": "nonpayable",
      "type": "function"
    },
    {
      "inputs": [
        {
          "internalType": "uint256",
          "name": "bountyId",
          "type": "uint256"
        }
      ],
      "name": "closeBounty",
      "outputs": [],
      "stateMutability": "nonpayable",
      "type": "function"
    },
    {
      "inputs": [
        {
          "internalType": "uint128",
          "name": "stablePay",
          "type": "uint128"
        },
        {
          "internalType": "uint128",
          "name": "nativePay",
          "type": "uint128"
        },
        {
          "internalType": "uint96",
          "name": "exchangeRate",
          "type": "uint96"
        },
        {
          "internalType": "address",
          "name": "nativeToken",
          "type": "address"
        },
        {
          "internalType": "uint256",
          "name": "deadline",
          "type": "uint256"
        }
      ],
      "name": "createBounty",
      "outputs": [
        {
          "internalType": "uint256",
          "name": "",
          "type": "uint256"
        }
      ],
      "stateMutability": "nonpayable",
      "type": "function"
    },
    {
      "inputs": [
        {
          "internalType": "address",
          "name": "recruiter",
          "type": "address"
        }
      ],
      "name": "getBountiesCreatedByRecruiter",
      "outputs": [
        {
          "internalType": "uint256[]",
          "name": "",
          "type": "uint256[]"
        }
      ],
      "stateMutability": "view",
      "type": "function"
    },
    {
      "inputs": [
        {
          "internalType": "uint256",
          "name": "bountyId",
          "type": "uint256"
        }
      ],
      "name": "getBounty",
      "outputs": [
        {
          "components": [
            {
              "internalType": "uint128",
              "name": "stablePay",
              "type": "uint128"
            },
            {
              "internalType": "uint128",
              "name": "nativePay",
              "type": "uint128"
            },
            {
              "internalType": "uint96",
              "name": "exchangeRate",
              "type": "uint96"
            },
            {
              "internalType": "address",
              "name": "nativeToken",
              "type": "address"
            },
            {
              "internalType": "address",
              "name": "worker",
              "type": "address"
            },
            {
              "internalType": "address",
              "name": "recruiter",
              "type": "address"
            },
            {
              "internalType": "bool",
              "name": "isClosed",
              "type": "bool"
            },
            {
              "internalType": "uint256",
              "name": "deadline",
              "type": "uint256"
            }
          ],
          "internalType": "struct IWorkFi.BountyMetadata",
          "name": "",
          "type": "tuple"
        }
      ],
      "stateMutability": "view",
      "type": "function"
    },
    {
      "inputs": [],
      "name": "getInvestedBounties",
      "outputs": [
        {
          "internalType": "uint256[]",
          "name": "",
          "type": "uint256[]"
        }
      ],
      "stateMutability": "view",
      "type": "function"
    },
    {
      "inputs": [
        {
          "internalType": "uint256",
          "name": "bountyId",
          "type": "uint256"
        }
      ],
      "name": "getInvestment",
      "outputs": [
        {
          "internalType": "uint128",
          "name": "",
          "type": "uint128"
        }
      ],
      "stateMutability": "view",
      "type": "function"
    },
    {
      "inputs": [
        {
          "internalType": "uint256",
          "name": "bountyId",
          "type": "uint256"
        },
        {
          "internalType": "uint128",
          "name": "stableAmount",
          "type": "uint128"
        }
      ],
      "name": "invest",
      "outputs": [],
      "stateMutability": "nonpayable",
      "type": "function"
    }
  ],
  "bytecode": "0x608060405234801561001057600080fd5b5061135c806100206000396000f3fe608060405234801561001057600080fd5b50600436106100935760003560e01c8063b988997f11610066578063b988997f14610130578063bf846e041461014c578063d8b8b81c14610168578063dfa81f8714610198578063ee8c4bbf146101b657610093565b806322ae634f14610098578063364e933d146100c857806358279718146100f857806363dd5c1f14610114575b600080fd5b6100b260048036038101906100ad9190610e8d565b6101e6565b6040516100bf91906110ed565b60405180910390f35b6100e260048036038101906100dd9190610ded565b61025c565b6040516100ef91906110af565b60405180910390f35b610112600480360381019061010d9190610ef2565b6102f3565b005b61012e60048036038101906101299190610eb6565b6105b7565b005b61014a60048036038101906101459190610e8d565b610651565b005b61016660048036038101906101619190610e8d565b6106c4565b005b610182600480360381019061017d9190610e16565b6106c7565b60405161018f9190611108565b60405180910390f35b6101a06109e1565b6040516101ad91906110af565b60405180910390f35b6101d060048036038101906101cb9190610e8d565b610a76565b6040516101dd91906110d1565b60405180910390f35b6000600360003373ffffffffffffffffffffffffffffffffffffffff1673ffffffffffffffffffffffffffffffffffffffff168152602001908152602001600020600083815260200190815260200160002060009054906101000a90046fffffffffffffffffffffffffffffffff169050919050565b6060600160008373ffffffffffffffffffffffffffffffffffffffff1673ffffffffffffffffffffffffffffffffffffffff1681526020019081526020016000208054806020026020016040519081016040528092919081815260200182805480156102e757602002820191906000526020600020905b8154815260200190600101908083116102d3575b50505050509050919050565b80600060018461030391906111a2565b8154811061033a577f4e487b7100000000000000000000000000000000000000000000000000000000600052603260045260246000fd5b906000526020600020906005020160000160008282829054906101000a90046fffffffffffffffffffffffffffffffff16610375919061115c565b92506101000a8154816fffffffffffffffffffffffffffffffff02191690836fffffffffffffffffffffffffffffffff16021790555080600360003373ffffffffffffffffffffffffffffffffffffffff1673ffffffffffffffffffffffffffffffffffffffff168152602001908152602001600020600084815260200190815260200160002060008282829054906101000a90046fffffffffffffffffffffffffffffffff16610426919061115c565b92506101000a8154816fffffffffffffffffffffffffffffffff02191690836fffffffffffffffffffffffffffffffff16021790555060005b600260003373ffffffffffffffffffffffffffffffffffffffff1673ffffffffffffffffffffffffffffffffffffffff1681526020019081526020016000208054905081101561054b5782600260003373ffffffffffffffffffffffffffffffffffffffff1673ffffffffffffffffffffffffffffffffffffffff1681526020019081526020016000208281548110610521577f4e487b7100000000000000000000000000000000000000000000000000000000600052603260045260246000fd5b9060005260206000200154141561053857506105b3565b808061054390611252565b91505061045f565b50600260003373ffffffffffffffffffffffffffffffffffffffff1673ffffffffffffffffffffffffffffffffffffffff1681526020019081526020016000208290806001815401808255809150506001900390600052602060002001600090919091909150555b5050565b8060006001846105c791906111a2565b815481106105fe577f4e487b7100000000000000000000000000000000000000000000000000000000600052603260045260246000fd5b906000526020600020906005020160020160006101000a81548173ffffffffffffffffffffffffffffffffffffffff021916908373ffffffffffffffffffffffffffffffffffffffff1602179055505050565b6001600060018361066291906111a2565b81548110610699577f4e487b7100000000000000000000000000000000000000000000000000000000600052603260045260246000fd5b906000526020600020906005020160030160146101000a81548160ff02191690831515021790555050565b50565b600080604051806101000160405280886fffffffffffffffffffffffffffffffff168152602001876fffffffffffffffffffffffffffffffff168152602001866bffffffffffffffffffffffff1681526020018573ffffffffffffffffffffffffffffffffffffffff168152602001600073ffffffffffffffffffffffffffffffffffffffff1681526020013373ffffffffffffffffffffffffffffffffffffffff168152602001600015158152602001848152509050600081908060018154018082558091505060019003906000526020600020906005020160009091909190915060008201518160000160006101000a8154816fffffffffffffffffffffffffffffffff02191690836fffffffffffffffffffffffffffffffff16021790555060208201518160000160106101000a8154816fffffffffffffffffffffffffffffffff02191690836fffffffffffffffffffffffffffffffff16021790555060408201518160010160006101000a8154816bffffffffffffffffffffffff02191690836bffffffffffffffffffffffff160217905550606082015181600101600c6101000a81548173ffffffffffffffffffffffffffffffffffffffff021916908373ffffffffffffffffffffffffffffffffffffffff16021790555060808201518160020160006101000a81548173ffffffffffffffffffffffffffffffffffffffff021916908373ffffffffffffffffffffffffffffffffffffffff16021790555060a08201518160030160006101000a81548173ffffffffffffffffffffffffffffffffffffffff021916908373ffffffffffffffffffffffffffffffffffffffff16021790555060c08201518160030160146101000a81548160ff02191690831515021790555060e082015181600401555050600160008260a0015173ffffffffffffffffffffffffffffffffffffffff1673ffffffffffffffffffffffffffffffffffffffff168152602001908152602001600020600080549050908060018154018082558091505060019003906000526020600020016000909190919091505560008054905091505095945050505050565b6060600260003373ffffffffffffffffffffffffffffffffffffffff1673ffffffffffffffffffffffffffffffffffffffff168152602001908152602001600020805480602002602001604051908101604052809291908181526020018280548015610a6c57602002820191906000526020600020905b815481526020019060010190808311610a58575b5050505050905090565b610a7e610cde565b6000600183610a8d91906111a2565b81548110610ac4577f4e487b7100000000000000000000000000000000000000000000000000000000600052603260045260246000fd5b9060005260206000209060050201604051806101000160405290816000820160009054906101000a90046fffffffffffffffffffffffffffffffff166fffffffffffffffffffffffffffffffff166fffffffffffffffffffffffffffffffff1681526020016000820160109054906101000a90046fffffffffffffffffffffffffffffffff166fffffffffffffffffffffffffffffffff166fffffffffffffffffffffffffffffffff1681526020016001820160009054906101000a90046bffffffffffffffffffffffff166bffffffffffffffffffffffff166bffffffffffffffffffffffff16815260200160018201600c9054906101000a900473ffffffffffffffffffffffffffffffffffffffff1673ffffffffffffffffffffffffffffffffffffffff1673ffffffffffffffffffffffffffffffffffffffff1681526020016002820160009054906101000a900473ffffffffffffffffffffffffffffffffffffffff1673ffffffffffffffffffffffffffffffffffffffff1673ffffffffffffffffffffffffffffffffffffffff1681526020016003820160009054906101000a900473ffffffffffffffffffffffffffffffffffffffff1673ffffffffffffffffffffffffffffffffffffffff1673ffffffffffffffffffffffffffffffffffffffff1681526020016003820160149054906101000a900460ff161515151581526020016004820154815250509050919050565b60405180610100016040528060006fffffffffffffffffffffffffffffffff16815260200160006fffffffffffffffffffffffffffffffff16815260200160006bffffffffffffffffffffffff168152602001600073ffffffffffffffffffffffffffffffffffffffff168152602001600073ffffffffffffffffffffffffffffffffffffffff168152602001600073ffffffffffffffffffffffffffffffffffffffff168152602001600015158152602001600081525090565b600081359050610da8816112ca565b92915050565b600081359050610dbd816112e1565b92915050565b600081359050610dd2816112f8565b92915050565b600081359050610de78161130f565b92915050565b600060208284031215610dff57600080fd5b6000610e0d84828501610d99565b91505092915050565b600080600080600060a08688031215610e2e57600080fd5b6000610e3c88828901610dae565b9550506020610e4d88828901610dae565b9450506040610e5e88828901610dd8565b9350506060610e6f88828901610d99565b9250506080610e8088828901610dc3565b9150509295509295909350565b600060208284031215610e9f57600080fd5b6000610ead84828501610dc3565b91505092915050565b60008060408385031215610ec957600080fd5b6000610ed785828601610dc3565b9250506020610ee885828601610d99565b9150509250929050565b60008060408385031215610f0557600080fd5b6000610f1385828601610dc3565b9250506020610f2485828601610dae565b9150509250929050565b6000610f3a8383611082565b60208301905092915050565b610f4f816111d6565b82525050565b6000610f6082611133565b610f6a818561114b565b9350610f7583611123565b8060005b83811015610fa6578151610f8d8882610f2e565b9750610f988361113e565b925050600181019050610f79565b5085935050505092915050565b610fbc816111e8565b82525050565b61010082016000820151610fd96000850182611064565b506020820151610fec6020850182611064565b506040820151610fff60408501826110a0565b5060608201516110126060850182610f46565b5060808201516110256080850182610f46565b5060a082015161103860a0850182610f46565b5060c082015161104b60c0850182610fb3565b5060e082015161105e60e0850182611082565b50505050565b61106d816111f4565b82525050565b61107c816111f4565b82525050565b61108b81611230565b82525050565b61109a81611230565b82525050565b6110a98161123a565b82525050565b600060208201905081810360008301526110c98184610f55565b905092915050565b6000610100820190506110e76000830184610fc2565b92915050565b60006020820190506111026000830184611073565b92915050565b600060208201905061111d6000830184611091565b92915050565b6000819050602082019050919050565b600081519050919050565b6000602082019050919050565b600082825260208201905092915050565b6000611167826111f4565b9150611172836111f4565b9250826fffffffffffffffffffffffffffffffff038211156111975761119661129b565b5b828201905092915050565b60006111ad82611230565b91506111b883611230565b9250828210156111cb576111ca61129b565b5b828203905092915050565b60006111e182611210565b9050919050565b60008115159050919050565b60006fffffffffffffffffffffffffffffffff82169050919050565b600073ffffffffffffffffffffffffffffffffffffffff82169050919050565b6000819050919050565b60006bffffffffffffffffffffffff82169050919050565b600061125d82611230565b91507fffffffffffffffffffffffffffffffffffffffffffffffffffffffffffffffff8214156112905761128f61129b565b5b600182019050919050565b7f4e487b7100000000000000000000000000000000000000000000000000000000600052601160045260246000fd5b6112d3816111d6565b81146112de57600080fd5b50565b6112ea816111f4565b81146112f557600080fd5b50565b61130181611230565b811461130c57600080fd5b50565b6113188161123a565b811461132357600080fd5b5056fea2646970667358221220e66ae1c93b68de0f8aa0dab2d305e666436abb7dd95117e619ffa0a8cecc012064736f6c63430008040033",
  "linkReferences": {},
  "deployedLinkReferences": {}
}